:020000040800F2
:1000000000100020691B000887D9040887D904085C
:1000100087D9040887D9040887D9040887D9040830
:1000200087D9040887D9040887D9040887D9040820
:1000300087D9040887D90408E76E000887D904081F
:1000400087D9040887D9040887D9040887D9040800
:1000500087D9040887D9040887D9040887D90408F0
:1000600087D9040887D9040887D9040841140008EF
:100070003114000887D9040887D9040887D90408EF
:1000800087D9040887D9040887D9040887D90408C0
:1000900087D9040887D904082124000887D90408CF
:1000A00087D9040887D9040887D9040887D90408A0
:1000B00087D9040887D9040861E10108FDEB01082C
:1000C0001B8F0508178F050891E30108278F050886
:1000D0001F8F0508D5EB0108238F05083DEC0108AB
:1000E00029ED010887D9040887D9040887D90408AD
:1000F00087D9040887D9040887D9040887D9040850
:1001000087D9040887D9040887D9040887D904083F
:1001100087D9040887D9040887D9040887D904082F
:1001200087D9040887D9040887D9040887D904081F
:1001300087D9040887D9040887D9040887D904080F
:1001400087D9040887D9040887D9040801750008ED
:1001500087D9040887D90408110A050801C80108CD
:1001600087D9040887D90408D38C0508D98C0508D9
:1001700087D9040887D9040887D90408000000003B
:100180002DE9F04180460F461546106051604FF44E
:100190007A7200234CF0DCF806460C461FA3D3E924
:1001A0000023404639464CF0D3F883B22B81184ADD
:1001B00002FB03F3F61A64F100044FF461620023BA
:1001C000304621464CF0C4F8C0B2A8724FF46163C7
:1001D00003FB00F0301A64F100040022031915D269
:1001E00013440C4AA2FB0312D208C2EB02129B1A60
:1001F000C31A094AA3FB0232C3F38703EB72C3EBB2
:100200000313A0EB83002873BDE8F0810122E7E728
:100210008051010089888888EFEEEEEE005C2605AB
:1002200000000000000000002DE9F04F2DED028BD2
:1002300093B082460C4693461D4657EC106B8DEDED
:10024000080B32463B46304639464BF0A9FE0028A3
:1002500000F009814FF0FF32B14B304639464BF088
:10026000C7FE002840F0FF804FF0FF326FF480138C
:10027000304639464BF09EFE002840F0F4800022C4
:100280000023DDE90867304639464BF093FE00282D
:1002900040F0FC809DED087B8DED067B209B13F4E8
:1002A0008063119301D106231E93DDE90601024606
:1002B000C1F30A50C1F31303904643F07F5949F448
:1002C0004019A0F2FF304BF099FB83A3D3E9002340
:1002D0004BF0FEFB82A3D3E900234BF043FA064622
:1002E0000F4600228F4B404649464BF039FA7EA319
:1002F000D3E900234BF0ECFB02460B46304639466F
:100300004BF030FA4BF07EFE06464BF077FB804612
:10031000894677A3D3E900234BF0DAFB0022824B16
:100320004BF020FA4BF06EFE074673A3D3E900238F
:10033000404649464BF0CCFB8046894638464BF058
:100340005DFB6FA3D3E900234BF0C2FB02460B46D3
:10035000404649464BF004FA8046894602460B4621
:100360004BF0B6FBCDE90C0107F2FF37002100226C
:10037000CDE90A123B050B9300230A9342464B46F4
:10038000404649464BF0EEF9CDE90E0142464B4658
:1003900000204FF080414BF0E3F98046894600226F
:1003A000624BDDE90C014BF0BDFC0022604B4BF0D1
:1003B000D9F902460B46DDE90C014BF0B3FC0022F3
:1003C0005C4B4BF0CFF902460B46DDE90C014BF0DC
:1003D000A9FC02460B46404649464BF0C3F902468B
:1003E0000B46DDE90E014BF09DFC0022524B4BF019
:1003F000B9F9DDE90A234BF06BFB8046894649ECED
:10040000188BDDE906234BF0F3FD40B1013E0022DD
:10041000474B404649464BF085FC41EC180B06F132
:100420006303C62B3BD80427209B13F4006F40D0F6
:1004300035A3D3E90023DDE90689404649464BF060
:10044000CDFD00283BD032A3D3E9002340464946E6
:100450004BF0B0FD002832D01E9BB34221DD9E1B25
:10046000731E1E931FE0209B02931F9B01931E9BF4
:1004700000939DED080B2B465A462146504600F04E
:10048000CBF813B0BDEC028BBDE8F08F9FED227B63
:100490008DED067B069607F100430793FEE60527E0
:1004A000C2E700231E93209B43F480632093002720
:1004B0003E461F9B9F4241D2A3EB070840E01E9B94
:1004C000002BF6D0119B002BF3D01E9B013B1E93FB
:1004D000EFE700BFAFF30080FB799F501344D33F99
:1004E000B3C8608B288AC63F61436F63A787D23F3A
:1004F00071A379094F930A401655B5BBB16B024001
:10050000EF39FAFE422EE63F2D431CEBE2361A3F4E
:100510000000000080842E41000000000000000068
:10052000FFFFEF7F0000F83F0000E03F00002C409D
:1005300000002440000018400000F03F4FF0000889
:10054000209B13F0020902D00FB14FF000083EB11A
:1005500053EC182BDDE906014BF0E4FBCDE9060175
:1005600000220023DDE908014BF024FD00283BD1E7
:10057000209B23F400630293CDF804801E9B00931C
:100580009DED060B2B465A462146504600F044F896
:10059000002F3FF476AF209B13F0200F2CD04FF0AC
:1005A000450C00F101082B46024621466046D04723
:1005B00086EAE672A2EBE67205230593013F0497F3
:1005C000002303930A230293F30F019300922B4617
:1005D00042462146504657F013FBB9F1000F3FF455
:1005E00050AF02461F9F10E0DDE90601024601F10F
:1005F0000043CDE90623BBE74FF0650CD1E7561C5D
:100600002B4621462020D0473246A2EB0B03BB42AB
:10061000F5D3104635E700BF2DE9F04F2DED028BE5
:1006200093B00590089192469B4659EC108B1E9D05
:1006300042464B46404649464BF0B2FC002840D06B
:100640004FF0FF326FF48013404649464BF0B2FC46
:10065000002845D14FF0FF32B14B404649464BF0A0
:10066000C7FC00284BD1AAA3D3E900234046494642
:100670004BF0BEFC00285AD1A7A3D3E90023404683
:1006800049464BF097FC002851D1002200234046F8
:1006900049464BF08FFC002857D100230993209B3B
:1006A00013F4806F5CD000241F2C5BD8092D59D91E
:1006B00004F148036B44302203F8202C013D01343F
:1006C000F2E7209B03931F9B029303230193954B17
:1006D00000935B4652460899059857F0B7F910E128
:1006E000209B03931F9B0293042301938E4B009343
:1006F0005B4652460899059857F0A8F901E1209BFE
:1007000013F004030FD0894A7BB10423209903918D
:100710001F990291019300925B46524608990598F1
:1007200057F094F9EDE0824AEEE70323EEE7209BD1
:1007300002931F9B0193009549EC108B5B46524638
:1007400008990598FFF770FDDBE042464B46002014
:1007500000214BF005F880468946012309939EE766
:100760000625A0E7404649464BF04CFC06464BF0B8
:1007700045F902460B46404649464AF0F1FF6D4BAB
:1007800003EBC50393ED008B53EC182B4BF0A0F952
:1007900002460B46CDE906234BF05CFC07464BF0C6
:1007A0001DF902460B46DDE906014AF0D9FF024673
:1007B0000B46CDE9062300225F4B4BF019FC50B3EA
:1007C000013738464BF00AF902460B4651EC180B3C
:1007D0004BF0FAFB08B10136002755BB30464BF011
:1007E0000DF902460B46404649464AF0B9FF80469D
:1007F00089460022504B4BF0DDFB38B100224E4BB6
:10080000404649464BF0F4FB002842D016F0010F59
:100810003FD001363DE00022474BDDE906014BF0B9
:10082000C9FB0028D9D117B117F0010FD5D0013776
:10083000D3E71F2C17D8013D404BA3FB0723DB0850
:10084000194603EB8303A7EB4303621C303304F127
:1008500048000DEB000404F8203C092F02D90F4694
:100860001446E6E714461F2C0AD86B1E45B104F166
:1008700048026A44302102F8201C1D460134F2E788
:100880001F2C06D804F148036B442E2203F8202CB9
:1008900001341F2C17D82A4A82FB0632F317C3EB08
:1008A000A2031A4603EB8303A6EB4303611C303318
:1008B00004F148000DEB000404F8203C16460AB190
:1008C0000C46E6E70C46209B03F00303012B39D0CE
:1008D0001F2C09D8099B002B51D004F148036B440D
:1008E0002D2203F8202C0134209B03931F9B02939D
:1008F00001940AAB00935B4652460899059857F05D
:10090000A5F813B0BDEC028BBDE8F08FAFF300800B
:100910000000000065CDCD410000000065CDCDC1D7
:10092000FFFFEF7F24C4060828C4060818C4060881
:1009300020C4060830C406080000E03FCDCCCCCC73
:10094000676666661F9BB3B1099B1BB9209B13F0BA
:100950000C0F12D01F9B013B1F93194606E004F1B8
:1009600048036B44302203F8202C01348C42AFD270
:100970001F2CF4D9ACE71F99F8E71F99F6E7209BE5
:1009800013F0040F07D004F148036B442B2203F843
:10099000202C0134A8E7209B13F0080FA4D004F109
:1009A00048036B44202203F8202C01349CE700BF4D
:1009B00070B5A8B02C2200211DA868F0F0FA4FF005
:1009C00002331F9340F20B13814D14ACADF89C30F1
:1009D0000FCD0FC40FCD0FC42B687E4923607E4B13
:1009E0007E4807930023CDE908330A931EF0A8FA46
:1009F0007B4D286000285BD0012158F0A1FA20B17E
:100A000040F2F53177484CF0D3FF286857F025FFC6
:100A1000754E3070286857F022FF744B7449187077
:100A200028681EF007FE044600283BD13378714E3B
:100A30005BB9714822F0E6F8306010BB4FF4856175
:100A40006E4B6F4A67484BF013FE6E4822F0DAF89F
:100A500030600028EDD02246C18928681EF00CFBCA
:100A600001220321286858F07EFA3368214658682D
:100A700022F002F90446A8B95F4822F0C3F83060BA
:100A8000C0B1C189002228681EF0F6FA01220321B4
:100A9000286858F068FA33680421586822F0ECF8A6
:100AA000044638B1234622210220574A66F0BCFC96
:100AB00028B070BD03F07AFE544A04ABCDE90401BE
:100AC0000393A2F1080113F8010B02F8010D914202
:100AD000F9D10622FF210BA868F061FA0622FF2156
:100AE0000DF1320068F05BFA182200210EA868F0C0
:100AF00056FA08220EA903A868F0A8FA41F2342396
:100B00001C22002120A8ADF82C3068F048FA286893
:100B10001DA91EF081FF04460028C3D13C49286866
:100B200058F0B4FA04460028BCD13A49286858F075
:100B300097FA04460028B5D1374928681EF028FBEB
:100B400004460028AED120A3D3E90023CDE9002339
:100B5000286858F09DFA04460028A3D12F4A30494E
:100B6000286858F0D5FA044600289BD101201EF0D1
:100B700033FA00289CD0A0232A4A07A8D3802A4A07
:100B8000136003F05BFF294B186020B940F27141FC
:100B9000274B1B4A56E7274A2749284823F098FB4A
:100BA000264840F0CFFF2146254814AA04F024F837
:100BB000244B186000287FF47BAF40F27D41224B2C
:100BC0000F4A3FE7AFF30080488D01C103400000AA
:100BD000703B0708492B02086C320708D41200202A
:100BE000A08700208C2D0708E58F0020E48F0020CF
:100BF00007001100587700208F9F050881320708F1
:100C00005D3A0708799F0508CF320708EE8F00206C
:100C10006E3B07086C3B0708A487002038150020AE
:100C200098770020F4120020F48700200488002028
:100C300099320708B5320708592E0208C0870020EC
:100C4000BD3A02080C880020BE32070800000000F0
:100C50002DE9F7430546604C222110205F4A66F0DB
:100C6000E3FB18222946204668F0F0F9A27B5C4B92
:100C7000DFF8B0911A70E37C002289F8003000237D
:100C8000CDE90023574D00224FF40073286858F037
:100C9000FFF918B1012003B0BDE8F083524B534E69
:100CA0001B787BB9524821F0ADFF04463460F4B99B
:100CB0000220504A222166F0B7FB01224E4B212030
:100CC0001A70E8E74D4B4E4C1A884E4B286853F883
:100CD00022104D4A8B68216033601EF035FC22687B
:100CE0004A4B946824221B8802FB0344DEE7484BEE
:100CF0001C60434BD3F80080B8F1000F07D00023ED
:100D00002420D8F80C108B4208D1002727E040F2AD
:100D1000AA61404B404A41484BF0AAFCD8F8087001
:100D200000FB0377FA695278120912F00E0F45D0D2
:100D3000052A43D80022F989286837601EF09CF9FB
:100D400001220321286858F00EF933680021586801
:100D500021F092FF324B93F9000021F0C5FF1CA354
:100D6000D3E90023CDE90023286858F091F9D8F899
:100D70000830BB4214D0D9890022286833601EF0A5
:100D80007BF901220321286858F0EDF8336804212B
:100D9000586821F071FF224B93F9000021F0A4FF65
:100DA00099F8003034601B0913F00E0F08D022F0C0
:100DB000B9FC012022F00AFA00206CE70133A2E717
:100DC00001220721286858F057FA0028EFD061E780
:100DD000488D01C1034200005C77002004350708FC
:100DE000DB8F0020A0870020DF8F002058770020B5
:100DF000612D020820350708DC8F00204A8F002073
:100E00004C77002008100020D12D0208488F0020C8
:100E1000547700205C3507080B3907088C2D07082C
:100E2000C8150020DA8F00200348044B834202D00B
:100E3000034B03B118477047502200205022002076
:100E400000000000064B0749C91A891048BF01314C
:100E5000491003D0044B0BB101481847704700BF3D
:100E600050220020502200200000000010B5064C47
:100E7000237843B9FFF7D8FF044B13B10448AFF30D
:100E800000800123237010BD688F00200000000047
:100E9000ECEC070808B5054B1BB105490548AFF355
:100EA0000080BDE80840FFF7CDBF00BF0000000094
:100EB00078400020ECEC0708A3F5803A704700BFAB
:100EC000174B002B08BF134B9D46FFF7F5FF002182
:100ED0008B460F461348144A121A68F060F80E4BFE
:100EE000002B00D098470D4B002B00D098470020D6
:100EF000002104000D000D48002802D00C48AFF37B
:100F000000804CF049F8200029004CF0DBFB4BF04E
:100F1000D5FB00BF0000080000000000000000003A
:100F2000001000205022002038980020000000000F
:100F30000000000000B585B0104815F0CFFA4CF065
:100F4000B7FB08E00E4815F0C9FA00230193019A97
:100F50000C4B9A420CDB02A800F000F90028F1D0FB
:100F60009DF808209DF80A10074815F0B7FAECE73D
:100F700000BF019B01330193E9E700BF20950608FC
:100F80005895060800127A003C95060800B58BB00B
:100F90002422002101A868F002F80B4B01934FF4C2
:100FA000007306931823079301AA0021074803F052
:100FB00023FE10B10BB05DF804FB054B054A4D2133
:100FC00005484BF055FB00BF70950608350F00082B
:100FD000789506089C9506088C9506080B4AD2F869
:100FE000FC3043F08073C2F8FC30094B00225A6099
:100FF0001A6842F001021A60064B1B68064AA2FBFF
:1010000003239B0C054A1360704700BF00ED00E00E
:10101000001000E0C010002083DE1B439040002041
:101020000D4B59680D4B1B6803B90123B1FBF3F15C
:1010300009E0B3FBF2F35B1A4FF47A7200FB02F2A1
:10104000934208D200BF044B5B68044A1268002A2E
:10105000EFD10122EDE77047001000E09040002042
:1010600038B504460D46032803D8DFE800F00B042A
:101070000609002308E00F2306E040F2FF3303E0F7
:101080003F2301E040F2FF73EB4013F0010F07D064
:101090000122AA4004EB44042401044B1A5138BD38
:1010A00040F2FE3102484CF083FCF1E740E003508F
:1010B000A895060838B504460D46032803D8DFE88E
:1010C00000F00B040609002308E00F2306E040F2BD
:1010D000FF3303E03F2301E040F2FF73EB4013F0E6
:1010E000010F09D004EB440424011434054BE058EB
:1010F000E84000F0010038BD40F2CF3102484CF02A
:1011000057FCEFE730C00350A895060870B50446B9
:101110000E46104B5D68104B1B6803B90123B5FBED
:10112000F3F504E0B3FBF2F35B1BB3420FD80121EC
:101130000220FFF7BFFFA04207D0064B5B68064ABC
:101140001268002AEED10122ECE7012070BD0020D8
:10115000FCE700BF001000E0904000202DE9F043C4
:1011600085B00546002402948DF80C404CF08CFAB2
:101170002BE000BF009B01330093009A4B4B9A4237
:10118000F7DD4CF089FA1420FFF74AFF012304220F
:101190001946022002F0DEFF0023019303E000BFA6
:1011A000019B01330193019B4F2BF8DD4CF06CFA4E
:1011B00078210020FFF7AAFF30B178210120FFF746
:1011C000A5FF804600284ED10134022C68DC002C9B
:1011D000D7DD00230093D0E70136072E32DC502103
:1011E0000020FFF793FF60B378210120FFF78EFF07
:1011F000A8B32F4B5A682F4B1B6803B90123B2FBCE
:10120000F3F94FF496710020FFF780FF48B3284BA5
:101210005B68284A126802B90122B3FBF2F3A3EB20
:101220000903322BD8D907F110030DEB030111F894
:10123000083CC6F1070001228240134301F8083C34
:10124000CAE780460137042F0FDCB8F1000F0CD03D
:10125000002607F110036B4403F8086CBDE78046D5
:10126000F0E78046EEE70027EDE7B8F1000FABD0DE
:101270009DF808302B709DF809606E709DF80A008B
:10128000A8709DF80B10E9709DF80C202A7133446A
:1012900050FA83F351FA83F3DBB29A4202D093E718
:1012A0004FF00008404605B0BDE8F0833F0D030055
:1012B000001000E09040002008B501F0B1FF4CF0B4
:1012C0004FFC264A136F23F0070343F00303136711
:1012D00002F026FA224B9B6A13F0807F03D1214B48
:1012E0004FF480329A621D4BD3F8202122F007027E
:1012F00042F00202C3F82021D3F8282122F007028D
:1013000042F00202C3F82821D3F8402122F0030260
:1013100042F00202C3F84021D3F8602122F0030218
:1013200042F00202C3F86021D3F8402222F0030207
:1013300042F00202C3F84022D3F8002222F0070252
:1013400042F00202C3F80022D3F8082222F007027A
:1013500042F00202C3F80822002008BD00800050BD
:101360000040005A0060005A10B59EB02A4C0DF1A2
:10137000580CA646BEE80F00ACE80F009EE80F0030
:101380008CE80F00302200210AA867F008FE234BEA
:101390000A934FF0010E8DF82DE056230C9308238D
:1013A0000F93092311930A23139308AA203494E876
:1013B000030082E803000DF1080C0023029303935D
:1013C00004930593069307938CE803000B238DF891
:1013D00010300C238DF81130114B05932023069308
:1013E0008DF81CE08DF81DE00E4B00930AAB16AA99
:1013F00061460D4809F05AFD044638B900214FF402
:10140000E1304CF0B1FA20461EB010BD7C210748F7
:101410004CF0CEFAF2E700BFF09B06080000015B3B
:1014200094400020B440002074410020C09B060876
:1014300008B5024809F05CFE08BD00BF74410020F9
:1014400008B5024809F054FE08BD00BF74410020F1
:10145000F8B506460C461546022904D1104B93F800
:101460002330012B14D02946204658F008F80746AF
:10147000284600F0D7FA0546033CE4B2012C04D913
:101480003FB13146074815F029F828464CF03DFA9F
:10149000F8BD02463146044815F020F8F5E700BFD4
:1014A00094410020189C0608389C060810B5134C7F
:1014B00050220021204667F072FD114815F00EF809
:1014C00004F1100201210F48FFF7C2FF224600215C
:1014D0000D48FFF7BDFF04F1200202210B48FFF782
:1014E000B7FF04F1300203210948FFF7B1FF04F10F
:1014F000400204210748FFF7ABFF10BDCC4100209C
:10150000489C0608589C0608609C06086C9C0608C7
:101510007C9C06088C9C060870B582B004460022AC
:101520000023CDE900230AF0ADFB6A460AF0CCFBAC
:10153000324A9368D2680098C01A019961EB02019F
:10154000009001912E4D2A46FEF71AFE284600F023
:1015500087FA0646F8B16368002B3ED1A36813F002
:10156000010F1AD10025A36813F0020F25D1A3683B
:1015700013F0040F32D0234D2A4604212248FFF7EE
:1015800067FF284600F04EFA0546024631461F48DE
:1015900014F0A4FF22E01E4EDDE71E4D2A46012175
:1015A0001D48FFF755FF284600F03CFA0546024665
:1015B00031461A4814F092FFD5E7194D2A46032107
:1015C0001848FFF745FF284600F02CFA054602466A
:1015D0003146154814F082FFC9E7002528464CF033
:1015E00094F930464CF091F962680AB902B070BDC6
:1015F0000E490F4814F072FFF8E700BF6022002088
:10160000502200200C420020989D0608A49D060848
:10161000F0B60608DC410020589C0608449D0608E8
:10162000FC410020649D0608709D06086C9F06081A
:10163000D09D060870B582B000220023CDE90023BA
:101640004168002931D10446FFF730FF0AF01AFB48
:101650006A460AF039FB194B186A0099019ADD684D
:101660009E68B1EB060C62EB050510EB0C005E6AA0
:1016700046EB050518625D6219605A609960DA6090
:10168000986A013098629869DB69091A62EB030273
:10169000009101920A4BA3FB01318909094814F01A
:1016A0001DFF62682AB902B070BD074814F016FF2A
:1016B000F9E70649064814F011FFF4E7602200201C
:1016C000D34D6210109E0608EC9D06084C9F06083C
:1016D000D09D0608F0B583B0054600220023CDE971
:1016E0000023124814F0FAFE0AF0CCFA6A460AF017
:1016F000EBFA0F4B1A695869009C019E9969611AAF
:10170000DF6966EB070C521840EB0C001A61586158
:101710001C605E609C61DE616A680AB903B0F0BD5E
:101720000449054814F0DAFEF8E700BF1C9E0608DD
:10173000602200202C9F0608D09D060810B50446A4
:101740000949A1F1280057F051FE10B162682AB989
:1017500010BD0649064814F0C1FEF7E705490648E2
:1017600014F0BCFEF4E700BFBC410020944100200F
:101770002C9E0608089F0608D09D060808B54168FB
:10178000014814F0ABFE08BD549E060810B504468F
:101790008068C0B2084B187000F05AF920B10146B9
:1017A000A268064814F09AFE626802B910BD0449A6
:1017B000044814F093FEF9E7698F0020809E060824
:1017C000E89E0608D09D0608426802B9704708B531
:1017D0000249034814F082FE08BD00BFCC9E0608F3
:1017E000D09D060808B5074803F06EF9064B18604F
:1017F00000B108BD054B064A4FF4BE7105484AF0DA
:1018000037FF00BFA89F06081C420020989E0608CC
:10181000B89E0608E09C060808B54FF0FF31064B5D
:1018200018684CF002FB00B908BD044B044A4FF4A1
:101830008F7104484AF01CFF2042002028A00608AF
:10184000FCA00608C09F060808B5064B18684CF0B7
:1018500023FB00B908BD044B044A4FF492710448BD
:101860004AF006FF2042002068A00608D8A006081B
:10187000C09F060808B5064803F026F9054B186016
:1018800000B108BD044B054ACA2105484AF0F0FEE4
:1018900050A10608204200209CA006081CA10608B2
:1018A000C09F0608F8B5054680784BF060FF0446F7
:1018B000FFF7B2FFB4F1FF3F12D00C4E670004EB0C
:1018C000440306EB83035B6828469847274406EBEE
:1018D0008706B3680BB128469847FFF7B5FFF8BDF8
:1018E000A978034814F0FAFDF7E700BF18100020AC
:1018F000C0A0060810B402EB010C5358DCF80440F9
:101900004BB1581844602360044B5350CCF804305A
:101910005DF8044B70474460F5E700BFEFBEADDEF5
:101920002DE9F8430E46024600270124FF2507E073
:101930001346ACEB0702A2421BD8674601371A4692
:10194000072F1AD8134613F8021B527852EA0122C5
:10195000F4D107F1010CBCF1070FEAD81A4612F8CE
:10196000021B5B7853EA0123E2D10CF1010C134610
:10197000F1E714463D466746E0E737464FF000087A
:101980000BE0B8F1000F02D13A2307F8013B3A23EC
:1019900007F8013B00EB4400A044B8F1070F18D84A
:1019A0004545EED0814619F8022B437808F101082D
:1019B00043EA02220949384614F0A6FD0744B8F16B
:1019C000080F04D03A2307F8013B4846E5E74846AC
:1019D000E3E700233B70B81BBDE8F88360A106086D
:1019E00070B584B000230093019302930393802980
:1019F00002D9002004B070BD0D4616460A460146C5
:101A000068464BF044FF31466846FFF789FF3418BB
:101A10002A460349204614F077FD2044801BE9E75D
:101A200064A1060838B560B1054628204BF069FF6F
:101A3000044648B101462846FFF772FF10B9034C2F
:101A400000E0024C204638BD004CFBE768A10608C8
:101A500008B5014601484BF04BFF08BDD0A206086F
:101A600030B585B0044620204BF04BFF054650B101
:101A7000A37AE27A217B0291019200932389034A9F
:101A8000202114F057FD284605B030BD6CA1060892
:101A90002DE9F04180460F4601F109050026344644
:101AA00004E05B21082000F04DFA0134AC4233D24F
:101AB000052C1BD801A353F824F000BFA31A00087B
:101AC000D51A0008091B0008DD1A0008E11A0008F1
:101AD000E51A0008FBB20433D9B2E3E78021E1E75D
:101AE0000021DFE7731C3146DEB2DBE7BB1DA342FA
:101AF0000CD0FB1DA3420BD007F10803A34209D071
:101B0000A31F18F80310CDE7D121CBE75A21C9E76D
:101B10005A21C7E75D21C5E70020BDE8F08100BF7D
:101B200000B583B002218DF80010002205484BF06B
:101B300005FF019008216846FFF7AAFF03B05DF892
:101B400004FB00BF00D4300008B50448044A121A50
:101B5000921004494BF018FF08BD00BF50FF070862
:101B600050FF07083898002008B500F02FF8FFF75D
:101B7000EBFF124A0AE01068516850F8230041F860
:101B80002300013391688B42F5D30C320C4B9A42FF
:101B900001D20023F6E70B4A08E01168002041F863
:101BA0002300013351688B42F7D30832064B9A4227
:101BB00001D20023F6E7FFF783F900BFF4EC070832
:101BC00000ED070800ED070800ED070810B4144BFE
:101BD000144A9A60D3F8882042F47002C3F888202F
:101BE000114A4FF480419166104901F500524FF0BF
:101BF000FF3010660E4850660220C3F8D000BFF3D5
:101C00004F8FBFF36F8F0B480124C0F880414FF412
:101C10004033D36004600B615DF8044B704700BF34
:101C200000ED00E00000000800900050008000443B
:101C30007FFF7F0300E100E0014B1868704700BFA1
:101C4000C410002008B5094B1B6F03F00703022BDB
:101C500004D0032B05D0012B06D0FEE7FFF7ECFFE5
:101C600003E0034B186800E0024808BD0080005004
:101C7000CC100020002D310108B5FFF7E3FF054B24
:101C80001B6FC3F303330133B0FBF3F0024B186057
:101C900008BD00BF00800050C01000200048704701
:101CA00000B4C404014B1868704700BFCC1000207A
:101CB00008B5064B1860064B1B6F03F00703032B98
:101CC00000D008BDFFF7D8FFFBE700BFCC10002015
:101CD0000080005000487047002D31014FF0B443A0
:101CE0009868C0F304400C2808D8DFE800F0090722
:101CF0000707070722181A071C1E2000002070473C
:101D00004FF0B4439B6803F04073B3F1807F12D06F
:101D1000B3F1007F11D003B17047094870470948FB
:101D20007047094870470948704709487047094893
:101D3000704709487047094870470948ECE700BFF9
:101D400000093D000024F400C0EA210180BA8C01A2
:101D50000048E801005A6202405DC60080841E000F
:101D600040420F00014B1868704700BFC8100020A8
:101D700038B504460D4621B118B123682B602560A3
:101D800038BD372101484BF013FEF6E708A30608DB
:101D900038B504460D4601B128B9452105484BF038
:101DA00007FE00E01C462368002BFBD12B6025605A
:101DB00038BD00BF08A3060810B5044630B120683E
:101DC00018B1036823600023036010BD5621024848
:101DD0004BF0EEFDF3E700BF08A3060838B5044654
:101DE0000D4601B128B9782109484BF0E1FD00E02A
:101DF0001C46236823B1AB42FAD12B68236038BD5F
:101E0000002CFCD1812102484BF0D2FDF7E700BF46
:101E100008A306080346064A10680344054A93428D
:101E200002D8034A136070474FF0FF30704700BF7D
:101E3000D01000200000042008B501213A2000F055
:101E4000E9FE012304220321002002F083F900208F
:101E50004BF0E5FE334B0122C3F84424A3F5503385
:101E60004FF400225A66304BD3F8FC2012F08072F7
:101E700006D01946D3F8FC3023F08073C1F8FC304B
:101E80002A49D1F8803023F0030343F00203C1F85C
:101E9000803032B1244AD2F8FC3043F08073C2F86B
:101EA000FC304FF4607000F0DBFE1F4BD3F8F020E5
:101EB00042F00102C3F8F020D3F8FC2042F0807217
:101EC000C3F8FC20A3F55D43194A1A6000F5D5203C
:101ED00000F2FC40C008174BA3FB0030800A013819
:101EE000154B18610222C3F8F0204FF48072C3F83A
:101EF00004234FF06043114AC3F8B02F104AC3F8CF
:101F0000802ED3F8002E42F48072C3F8002EFF22F8
:101F100083F82020D3F8002E22F48072C3F8002E1C
:101F2000002008BD00D0035000ED00E0008000500C
:101F3000FF03004017916502000004E055CEACC5D8
:101F4000090001004FF06043D3F8803E13F0010F09
:101F500001D1112070470E4AD2F8FC3043F0807353
:101F6000C2F8FC304FF06043D3F8002E4FF0010C64
:101F70000CFA00FC42EA0C02C3F8002E53F82030A1
:101F8000002BE8D04FF0604303F82010002070478A
:101F900000ED00E0F0B585B00C4694469DF8341095
:101FA000664A1278002A00F0BD800546BCF1070F92
:101FB00000F2BA800A9A002A00F0B8800B9A002A30
:101FC00000F0B6800E9AB2F5006F00F3B3800128DE
:101FD0005BD05B4A02EB0C12127B002A00F0AC8053
:101FE00000220092019202920392564A02EB4C1E8A
:101FF000002C4FD14FEA4C1600209051CEF804002F
:10200000CEF80800CEF80C009EF8020040F0100058
:102010008EF802009EF8030040F030008EF80300B6
:1020200021B9C1B241F003018EF8031000930E9B59
:10203000013B444A4FEA4C1002EB4C11165A63F331
:102040000E1616520A9B8B600B9B4B60CB789DF84B
:102050003C2062F38303CB70012D36D0109B002B04
:1020600056D0374A4FEA0C1102EB0C13109850501F
:10207000119A5A6000249C605D73724669466046FE
:1020800002F05EF9204605B0F0BD0C9A002AA0D1FE
:102090002D48F8E72B4F4FEA4C1607EB4C12002067
:1020A000B85150609060D060907840F0100090700F
:1020B000D07840F00300D0700029B7D107EB4C1264
:1020C000C1B241F03001D170B0E70E460A7B42F058
:1020D00001020A73D2B242F002020A73CA680421F2
:1020E00061F39F02F26006F1100796E80F0087E89F
:1020F0000F00F2696FF0030161F39F02F2610C9B24
:102100007361012CAAD10B9AB2610C9A7260A5E797
:10211000002DA6D10B4B03EB4C139A786FF30412EE
:102120009A709EE70948AEE70748ACE70648AAE779
:102130000548A8E70448A6E70548A4E76A8F0020F9
:102140002443002024420020018000F0028000F09F
:10215000078000F0134B1B78FBB110B50446F0B1BB
:102160004BF011FD0023072B13D80F4A02EB03128B
:10217000127B0AB10133F6E723600B4A190102EB27
:10218000031301241C73002454504BF002FD20461D
:1021900002E04BF0FEFC054810BD054870470548BD
:1021A000FAE700BF6A8F002024430020048000F07B
:1021B000028000F0018000F038B54BF0E4FC0446EA
:1021C0000023072B06DC0C4A02EB0312127B12B928
:1021D0000133F6E7002222B120464BF0DAFC074833
:1021E00038BD02F02BF80025054B1D7020464BF042
:1021F000D0FC2846F4E700BF24430020058000F00F
:102200006A8F00200F4B1B78BBB110B5044607281E
:1022100015D84BF0B8FC0C4B03EB04131B7B1BB91C
:102220004BF0B7FC09480BE0074B03EB0413002409
:102230001C734BF0AEFC204602E005487047054891
:1022400010BD00BF6A8F002024430020068000F0EC
:10225000028000F0018000F000B583B0134B1B68D2
:10226000019300238DF804304BF08DFC104B1B784C
:1022700033B90F4B01221A704BF08BFC002309E09D
:102280004BF087FC0B480EE00B4A02EB03120021D7
:1022900011730133072BF7DD08238DF8073001A8F0
:1022A00002F000F8002003B05DF804FB58A3060814
:1022B0006A8F0020038000F02443002008B50A4BF9
:1022C0001B785BB107280BD8084B03EB00131B7B73
:1022D00043B1002101F0D0FF002008BD0448FCE715
:1022E0000448FAE70448F8E76A8F002024430020F6
:1022F000028000F0018000F0078000F008B50A4B72
:102300001B785BB107280BD8084B03EB00131B7B32
:1023100043B1012101F0B0FF002008BD0448FCE7F3
:102320000448FAE70448F8E76A8F002024430020B5
:10233000028000F0018000F0078000F008B50A4B31
:102340001B7853B107280AD8084B03EB00131B7BFB
:102350003BB102F07FF8002008BD0548FCE70548C6
:10236000FAE70548F8E700BF6A8F00202443002001
:10237000028000F0018000F0078000F0104B1B7815
:10238000ABB1072815D8B1B10E4B03EB00131B7B83
:102390009BB10D4B1B6D0122824013EA020003D05A
:1023A00001230B700020704700230B707047074813
:1023B000704707487047064870470648704700BF97
:1023C0006A8F00202443002000000450028000F0A7
:1023D000018000F0078000F00C4B1B7873B110B542
:1023E0000C4607280CD869B1094B03EB00131B7B83
:1023F00053B102F04BF82070002010BD0548704723
:102400000548FAE70448F8E70448F6E76A8F002031
:1024100024430020028000F0018000F0078000F0DB
:10242000F8B5194B1F6D5B6D1F4002D401250024C8
:1024300002E0FEE701346D00072C24D83D42F9D0BC
:10244000124B1D652301124AD358002BF2D002EB28
:102450000416B1680131B16072682046984780F077
:102460000100C0B2737B012BE4D10028E2D0094BFC
:1024700003EB44131A7B6FF341021A731A7F6FF355
:1024800041021A77D6E7F8BD00000450002004503E
:10249000244300202442002008B5034B1968034B55
:1024A000186815F003FA08BDD4100020F4100020BD
:1024B000B0F1FF3F01D010B97047024870470248A1
:1024C000704700BF21E000F024E000F0F8B50546B9
:1024D0000E469400224666F0FFFFFFF7E9FF07462D
:1024E00028B922463146284666F02FFD08B93846FD
:1024F000F8BD014FFBE700BF10E000F038B504461F
:1025000066F0EEFFFFF7D4FF054608B1284638BD58
:1025100002F052F9014620464BF099FA0028F5D115
:10252000004DF3E70EE000F008B54BF025FB014B42
:10253000186008BD944A002008B5024B18684BF09B
:102540001FFB08BD944A0020024B4FF480321A67EB
:10255000704700BF0090005070B504460D46164607
:102560001F2906D856B104F580540123AB402360DF
:1025700070BD912103484BF01BFAF3E704F50054BA
:10258000F3E700BF80A3060838B505460C46114B9B
:10259000D3F8803003F00303022B13D0032B15D0A4
:1025A000012B07D041F2DF110B484BF001FA002359
:1025B000184602E0FFF746FB0D2305B1286004B181
:1025C000236038BDFFF78AFB0723F6E7FFF734FBEC
:1025D0000623F2E700800050D0A3060838B5054670
:1025E0000C46194BD3F8200100F0070006281DD82F
:1025F000DFE800F0240408100C141800FFF71CFB9F
:1026000005231CE0FFF74EFB032318E0FFF766FBF2
:10261000072314E0FFF75EFB022310E0FFF70CFB3B
:1026200006230CE0FFF73EFB042308E041F25C21A7
:1026300006484BF0BDF90023184600E0012305B120
:10264000286004B1236038BD00800050D0A3060884
:1026500038B505460C46184BD3F8283103F007036C
:10266000013B052B20D8DFE803F003131B0F0B17EA
:10267000FFF7E2FA052305B1286004B1236038BDF5
:10268000FFF7DAFA0623F6E7FFF728FB0723F2E75E
:10269000FFF708FB0323EEE7FFF704FB0423EAE759
:1026A000FFF718FB0223E6E741F2640103484BF011
:1026B0007FF900231846DEE700800050D0A306080B
:1026C00070B582B006460D4600230193134BD3F834
:1026D000804104F00304022C1BD0032C14D0012CE5
:1026E00006D041F2B1310E484BF062F9002404E00B
:1026F000002101A8FFF772FF0F240EB1019B336088
:1027000005B12C6002B070BDFFF7E8FA0190072414
:10271000F3E7FFF7DFFA0190EFE700BF008000501A
:10272000D0A3060838B505460C460E4BD3F89032B8
:1027300003F00303012B09D0022B0BD1FFF7CEFAD4
:10274000072305B1286004B1236038BDFFF7C2FA42
:102750000223F6E741F2501103484BF029F9002318
:102760001846EEE700800050D0A3060830B583B0CD
:1027700005460C4600230193174BD3F8203203F093
:102780000703042B19D8DFE803F01F03090E130019
:10279000002101A8FFF75CFF112316E0FFF79EFA66
:1027A0000190072311E04BF0FDF801900A230CE0A3
:1027B000FFF7D8FA0190092307E041F22301074807
:1027C0004BF0F6F8002300E001230DB1019A2A60D6
:1027D00004B1236003B030BD00800050D0A30608D0
:1027E00038B505460C46124BD3F8400100F0030003
:1027F00003280FD8DFE800F01602060A4BF0D2F8E3
:102800000A2310E0FFF7AEFA09230CE04BF0CDF8F5
:102810000B2308E041F28E2106484BF0C9F8002353
:10282000184600E0012305B1286004B1236038BDDB
:1028300000800050D0A3060830B583B005460C4692
:1028400000230193174BD3F8603203F00703013BD9
:10285000032B1FD8DFE803F0020E1914002101A892
:10286000FFF7BCFE0F230DB1019A2A6004B123606B
:1028700003B030BD002101A8FFF7B2FF1023F2E73B
:10288000FFF72CFA01900723EDE7FFF723FA0190F9
:102890000223E8E741F2C80103484BF089F800231E
:1028A000E1E700BF00800050D0A3060830B583B038
:1028B00005460C46002301930E4BD3F8703203F00B
:1028C0000303012B08D0022B0CD041F226110A4839
:1028D0004BF06EF8002306E0002101A8FFF780FF0F
:1028E000102300E014230DB1019A2A6004B1236083
:1028F00003B030BD00800050D0A3060838B50546AF
:102900000C46154BD3F8000200F00700042815D838
:10291000DFE800F01C03070B0F004BF043F80A231D
:1029200015E0FFF71FFA092311E04BF03EF80B23E7
:102930000DE0FFF7A1F9800A0E2308E041F26F4194
:1029400006484BF035F80023184600E0012305B196
:10295000286004B1236038BD00800050D0A3060871
:1029600038B505460C46154BD3F8080200F00700B1
:10297000042815D8DFE800F01C03070B0F004BF00C
:1029800011F80A2315E0FFF7EDF9092311E04BF0E8
:102990000CF80B230DE0FFF76FF9800A0E2308E017
:1029A00041F2A74106484BF003F80023184600E027
:1029B000012305B1286004B1236038BD00800050B8
:1029C000D0A3060838B505460C46124BD3F8400292
:1029D00000F0030003280FD8DFE800F01602060A13
:1029E0004AF0E0FF0A2310E0FFF7BCF909230CE0EE
:1029F0004AF0DBFF0B2308E041F22E4106484AF083
:102A0000D7FF0023184600E0012305B1286004B178
:102A1000236038BD00800050D0A3060838B50546B5
:102A20000C46114BD3F8503203F00303022B17D09E
:102A3000032B09D0012B0FD041F294010B484AF02F
:102A4000B7FF0023184602E04AF0AFFF0B2305B1A1
:102A5000286004B1236038BD4AF0A4FF0A23F6E7DA
:102A6000FFF780F90923F2E700800050D0A30608A1
:102A700038B505460C46124BD3F8600100F0030050
:102A800003280FD8DFE800F01602060A4AF08AFF92
:102A90000A2310E0FFF766F909230CE04AF085FFEE
:102AA0000B2308E04FF4965106484AF081FF0023BB
:102AB000184600E0012305B1286004B1236038BD49
:102AC00000800050D0A3060838B505460C46124BCE
:102AD000D3F8000100F0030003280FD8DFE800F06E
:102AE0001602060AFFF7DEF8032310E0FFF73AF9B3
:102AF00009230CE04AF054FF082308E041F21521B5
:102B000006484AF055FF0023184600E0012305B1AE
:102B1000286004B1236038BD00800050D0A30608AF
:102B200010B5B0F5207F2FD01DD8B0F5007F25D08F
:102B30002FD810B1B0F5C07F13D1174B1C6F230BEA
:102B4000C4F3033413F00E0F24D048F28803E3409B
:102B500013F0010F1ED140F2852110484AF028FFE2
:102B600018E0002416E0B0F5607F05D10A4BD3F8D9
:102B70008040C4F301140DE000240BE0064BD3F8B1
:102B80009040C4F3046405E0034B1C6FC4F380243D
:102B900000E00024601C10BD00800050D0A3060897
:102BA00038B505460C46174B4FF480329A66002024
:102BB000FFF7B6FF05FB00F0134BDA6902F4803231
:102BC00041F67131D9635B6823F440136CB90F4946
:102BD000884207D800210B430B494B600AB1002201
:102BE000CA6338BD4FF48011F5E7002C07DD0849B2
:102BF000884201D80021EEE74FF48011EBE74FF453
:102C00004011E8E70090005000000350005A6202B3
:102C1000002D310138B504460D46430905D0012B7E
:102C200016D0022B0DD10B4805E040F22F310A4897
:102C30004AF0BEFE00202A4604F01F01FFF78CFC7C
:102C400038BD40F23D3104484AF0B2FE0020F2E7C0
:102C50000248F0E768800050D0A306086480005066
:102C600010B582B0002301930093B0F5807F00F28D
:102C70000781B0F5807F00F27581DFE810F04C012C
:102C800073017301730173017301730173017301A4
:102C90007301730173017301730173017301730194
:102CA0007301730173017301730173017301730184
:102CB00073017301730173017301730173014C019B
:102CC0008A014C018A01A201A201A201A201A20172
:102CD0008A01A7013D01B10123013D018A018A0159
:102CE0008A0173017301730173017301730173012D
:102CF000B1018A018A018A01C501B6018A01730105
:102D00007301730173017301730173017301730123
:102D1000730173017301BB01A2014C014C014C0111
:102D20006D013D013D016201C00156017F017F013E
:102D300073017301730173014C017301730173011A
:102D400073017301730173017301730173017301E3
:102D500073017301730173017301730173017301D3
:102D600073017301730173017301730173017301C3
:102D700073017301730173017301730173018401A2
:102D800073017301730173017301730173017301A3
:102D90007301730173017301730173017301730193
:102DA0007301730173017301730173017301730183
:102DB0007301730173017301730173017301730173
:102DC0007301730173017301730173017301730163
:102DD0007301730173017301730173017301730153
:102DE0007301730173017301730173017301730143
:102DF0007301730173017301730173017301730133
:102E00007301730173017301730173017301730122
:102E10007301730173017301730173017301730112
:102E20007301730173017301730173017301730102
:102E300073017301730173017301730173017301F2
:102E400073017301730173017301730173017301E2
:102E500073017301730173017301730173017301D2
:102E600073017301730173017301730173017301C2
:102E70007301730173017301730173017301AC0179
:102E8000B0F5E06F00F0B1800CD9B0F5286F00F01C
:102E9000B6804FD9B0F5306F63D1002101A8FFF79C
:102EA00041FC73E0B0F5607F7ED010D9B0F5B06F13
:102EB00000F08C8033D9B0F5C06F00F09180B0F590
:102EC000D06F4FD1002101A8FFF718FD5EE0B0F5EB
:102ED000007F0AD1FEF7B6FE04464FF40070FFF7FC
:102EE0001FFEB4FBF0F4019450E011D9B0F5207F3F
:102EF0004FD0B0F5407F35D1FEF7BEFE04464FF40B
:102F00002070FFF70DFEB4FBF0F4640801943DE07F
:102F1000B0F5C07F26D1FEF7AFFE019036E0B0F5E8
:102F2000806F4ED0B0F5A06F1CD1002101A8FFF733
:102F30001DFC2BE0B0F5186F5CD007D9B0F5206F01
:102F400010D1002101A8FFF777FC1FE0B0F5F06F6A
:102F50005AD0B0F5106F05D1002101A8FFF700FD90
:102F600014E005D240F294412A484AF021FD0DE0D8
:102F7000B0F5386F34D0B0F5406FF3D1002101A81F
:102F8000FFF766FB02E0FEF75DFE0190019802B0DC
:102F900010BDFEF771FE04464FF42070FFF7C0FD30
:102FA000B4FBF0F40194F1E700216846FFF7ECFA76
:102FB000009C4FF46070FFF7B3FDB4FBF0F4019494
:102FC000E4E7002101A8FFF709FBDFE7002101A8E2
:102FD000FFF776FBDAE7002101A84AF07CFDD5E790
:102FE000002101A8FFF7FCFBD0E7002101A8FFF7B3
:102FF000E9FCCBE7002101A8FFF710FDC6E700219F
:1030000001A8FFF753FCC1E7002101A8FFF730FD3D
:10301000BCE700BFD0A3060808B58020FFF720FE5C
:10302000034B984203D8034B4FF480321A6708BD14
:10303000005A620200A0005000B583B00023019343
:10304000B0F5607F00F0C88042D8802837D82428A7
:10305000C0F0DB8024385C2800F2D780DFE800F085
:103060006969696969D55ED5B271D5D5D5D5D5D52A
:10307000D5D5D5D5D5B2D5D5D553C6D5D5D5D5D5B4
:10308000D5D5D5D5D5D5D5D5CB69D5D5D584D5D5B7
:103090007CD0C19090D5D5D5D5D5D5D5D5D5D5D5DC
:1030A000D5D5D5D5D5D5D5D5D5D5D5D5D5D5D5D5D0
:1030B000D5D5D5D5D5D5D5D5D5D5D5D59500B0F5DA
:1030C000807F40F0A28001A900204AF004FD29E0A1
:1030D000B0F5086F7BD00CD9B0F5286F00F0908068
:1030E00034D9B0F5306F44D101A90020FFF71AFBA5
:1030F00018E0B0F5C06F65D00AD9B0F5E06F75D0B3
:10310000B0F5F06F1AD101A90020FFF7B1FC09E07A
:10311000B0F5A06F65D0B0F5B06F07D101A9002060
:10312000FFF7CEFA019803B05DF804FBB0F5806FAD
:103130006BD101A90020FFF751FAF3E7B0F5D06F8A
:1031400063D101A90020FFF7D9FBEBE7B0F5186FB9
:1031500051D0B0F5206F04D101A90020FFF76CFB1E
:10316000E0E7B0F5106F50D101A90020FFF7F8FBA0
:10317000D8E74AD3B0F5386F24D0B0F5406F44D1CA
:1031800001A90020FFF764FACCE7234B1B6F03F083
:103190000703013B032B0FD8DFE803F00B02050800
:1031A00005230193BEE703230193BBE708230193A3
:1031B000B8E702230193B5E740F2C64117484AF049
:1031C000F7FBAFE701A90020FFF70AFBAAE701A977
:1031D0000020FFF779FCA5E701A90020FFF7D4F94B
:1031E000A0E701A90020FFF7C1FA9BE701A9002091
:1031F000FFF7E8FB96E701A90020FFF70FFC91E736
:1032000001A90020FFF752FB8CE740F279510348F7
:103210004AF0CEFB86E700BF00800050D0A306082E
:10322000044B4FF480125A66034B4FF480329A627B
:10323000704700BF009000500050005A38B5044657
:1032400003680F2B00F2C18063680F2B00F2C3806C
:10325000A3680F2B00F2C580237B0F2B00F2C780E1
:10326000637B0F2B00F2C980A37B3F2B00F2CB8046
:10327000E37B3F2B00F2CD802369032B00F2CF804C
:103280006369032B00F2D180E369032B00F2D38042
:103290008020FFF7D1FE032800F0F3807F4B4FF42E
:1032A00080125A667E4B45F60E02C3F8802003F565
:1032B00080524FF0A061916203F500534FF48032C9
:1032C0009A62774B9B6D13F4803FFAD1744B9B6DE0
:1032D00013F0804FFAD1226863681B0543EA02634A
:1032E000227B43EA0243627B43EA0233A27B43EA46
:1032F0008213E27B13436A4D2B61AB6903F00043F9
:10330000226943EA8263626943EA0263227E43EAF6
:103310000243627E43EA0223A27E1343AB614FF471
:1033200000624FF440615F484AF0F3FB2B6A23F0E0
:103330000F03E269002A40F0848011460B43E17ECE
:1033400043EA81031A43564B1A62E369002B7AD190
:10335000534A916A544B0B4094F8201043EA4113AE
:1033600094F8211043EA011394F8241043EAC103AE
:1033700043F4803393624A4B9A6D4C4B9343FAD19A
:10338000474A02F580514FF080738B62136923F432
:103390007003A06843EA005313614FF000438B6150
:1033A00094F822301BB9424B4FF080729A6294F825
:1033B0002330002B5ED13E4B4FF480329A62384B63
:1033C0009B6D13F0804FFAD154E040F66D313948CF
:1033D0004AF0EEFA38E74FF4376136484AF0E8FA37
:1033E00036E740F6733133484AF0E2FA34E740F604
:1033F000763130484AF0DCFA32E740F679312D4830
:103400004AF0D6FA30E740F67C312A484AF0D0FA42
:103410002EE740F67F3127484AF0CAFA2CE740F6FB
:10342000823124484AF0C4FA2AE740F6853121481F
:103430004AF0BEFA28E740F688311E484AF0B8FA4A
:1034400026E708217AE7022B1CD0154A916A164B11
:103450000B4094F8201043EA411394F8221043EAF9
:10346000016394F8241043EAC10394F8231043EA5B
:103470000143936294F825301BB1094B0E4AC3F8FF
:10348000802038BD064B00221A619A614FF4085221
:103490004FF47F4109484AF03CFBD6E700900050CA
:1034A0000040005A3840005AC7FFFEFE03000100EA
:1034B0000060005AD0A30608F1A7FFFF3440005A6D
:1034C000014B93F900007047BE15002010B504466B
:1034D0004368072B46D8A368032B49D82378032BCE
:1034E0004CD894F90130002B4EDB63784F2B28BF6A
:1034F0004F231A46274B4FF40001596603F5B833A2
:103500004FF4D151596203F580510220486003F510
:10351000005301215960204B1B6913F4803FFAD1FD
:10352000237842EA03231C4A53616168A3681B01A4
:1035300043EA0123217B43EA4103617B0B43936010
:10354000A17BE37B1B0143EA4113217C43EA410356
:10355000617C0B435360A37C1BB113466FF4D152C3
:103560005A6210BD40F6B3510C484AF021FAB2E756
:1035700040F6B55109484AF01BFAAFE740F6B7519B
:1035800006484AF015FAACE740F6B95103484AF04C
:103590000FFAAAE70090005000000250D0A30608DE
:1035A000014B1880704700BFE6140020014B1880C3
:1035B000704700BFE414002038B5B0F5207F7BD001
:1035C0003BD8B0F5007F64D000F2878018B1B0F529
:1035D000C07F40F082804C1E012C0BD9102904D8EA
:1035E000414BCB4013F0010F04D140F2C7213F48BB
:1035F0004AF0DEF94AF09BFA4AF0ABFAFEF7A4FF74
:103600003B4A136F23F4704343EA04331367FEF716
:1036100033FB384BD3F8843013F0100FF9D1354B0E
:10362000D3F88410C1F38111C1F102014AF086FA86
:1036300000F064F8FFF7F0FC38BDB0F5607F4CD1C6
:103640002D4BD3F8FC5015F0807506D01A46D3F8F0
:10365000FC3023F08073C2F8FC304C1E032C12D8CF
:10366000234AD2F8803023F0300343EA0413C2F82F
:103670008030002DE0D0204AD2F8FC3043F0807337
:10368000C2F8FC30D8E740F2F22118484AF090F92D
:10369000E6E74C1E1F2C09D8154AD2F8903023F0CB
:1036A000F85343EA0463C2F89030C5E740F20631AC
:1036B0000E484AF07DF9EFE74C1E012C07D80C4A62
:1036C000136F23F4806343EA84231367B4E74FF452
:1036D000437106484AF06CF9F1E740F212310348B1
:1036E0004AF066F9A8E700BF10010100D0A3060860
:1036F000008000500040005000ED00E008B54FF49D
:10370000C070FFF7ADFA054B984205D902214FF47E
:103710002070FFF751FF08BD0121F8E780F0FA02A1
:1037200008B5FEF7A9FA0C4BD3F8843013F0100F4C
:10373000F9D1094BD3F88410C1F38111C1F1020111
:103740004AF0FCF90121002000F078F8FFF7D6FFDD
:10375000FFF762FC08BD00BF00400050034B5868F3
:10376000C0F30800003818BF0120704700ED00E0EA
:10377000034AD36E23F0300301790B43D3667047BD
:1037800000400050F8B50446294BD3F8843013F0BC
:10379000100FF9D1264BD3F88430C3F381139C4228
:1037A0003FD0FEF74FFA0646012C27D04AF0E4F945
:1037B00005461F4F07F500534FF000725A6620462A
:1037C0004AF0F9F9621E4FF4806393403B67184B4F
:1037D0005B6E13F0007F1FD1154BD3F8843013F0CC
:1037E000200F19D1124BD3F8843013F0200FEED0F4
:1037F00040F28F710F484AF0DBF8E8E70E4B984231
:1038000004D8012130464AF099F9CFE740F281719E
:1038100008484AF0CDF8F4E728464AF0B1F9022CFE
:1038200000D0F8BD002130464AF088F9F9E700BF22
:103830000040005020A40608005A620210B50C4651
:10384000034650B1094A127812B1094A934208D985
:1038500021460220FFF796FF10BDFEF7F3F903465D
:10386000F0E721460120FFF78DFFF5E7984A002099
:10387000005A620238B52F4B4FF000425A6603F5EA
:103880000B235C6C04F001044AF6CD321A64E8B9EB
:10389000294B5B6B13F00103FAD1274A556815F0E9
:1038A000010539D002F50052012151601A46224922
:1038B000096B11F0010F04D120498A4201D801326D
:1038C000F5E71E498A422FD81D4625E000231A4AF3
:1038D000126B12F0080F04D0184A934201D801333A
:1038E000F5E7164A934221D8134B03F500522021E5
:1038F000916203F5805301225A60002300E00133F6
:103900000D4A926A12F0200F02D10C4A9342F6D966
:103910000A4A93420CD8002514B1074B084A1A648E
:1039200055F0C5FB284638BD0725F5E70725F3E721
:103930000725F1E700900050004009503F420F007A
:103940003254FFFF10B51A4B4FF000425A6603F590
:103950000B235C6C04F001044AF6CD321A64437800
:103960005B0043F00103134AD363134B5B6B13F00B
:103970000B0FFAD1104A536823F4F873817843EAA5
:1039800001135360C178437943EA012393600179BD
:10399000837943EA012313610078FFF76BFF14B1C9
:1039A000054B064A1A6455F082FB012010BD00BF8A
:1039B0000090005000400050004009503254FFFF7A
:1039C00010B50F2825D8164B5C6E03F580534FF0C9
:1039D00000425A6603F50B235A6C02F001024AF6C4
:1039E000CD3119640F4B5B6B13F0800FFAD10D4989
:1039F0000B6A23F00F0303430B620AB10A4A0A64FD
:103A0000002C03DB094B4FF000425A6655F04FFB88
:103A100010BD40F61C61064849F0CAFF0F20D2E7EE
:103A200000800050004009503254FFFF00A00050B9
:103A300020A4060810B5134B5C6E03F580534FF0BD
:103A400000425A6603F50B235A6C02F001024AF653
:103A5000CD3119640C4B5B6B13F0800FFAD10A491E
:103A60000B6A23F4F85343EA00230B620AB1074AB6
:103A70000A64002C03DB064B4FF000425A6655F0F7
:103A800016FB10BD00800050004009503254FFFF6B
:103A900000A0005008B50B4B98420DD00A4B98423D
:103AA0000CD003F5804398420AD040F276310748A3
:103AB00049F07EFF002008BD5620FCE75720FAE7BA
:103AC0005820F8E70000015B00000A5070A40608C7
:103AD00010B504464AF070F8202323610023E36008
:103AE000A36041F202026261A3614FF4A02262620C
:103AF000E3612362A362E3626363236504F500521A
:103B00000149D164236310BDFF3F0D0338B504465E
:103B10000D46194B98420BD0184B984208D003F52C
:103B20008043984204D04FF4B371154849F040FFE8
:103B3000F5B104F5805301225A6005F00F02636D60
:103B4000C3F30B03002BFAD1A263636D13F0780368
:103B5000FBD115F0010F00D0012315F0040F01D0A7
:103B600043F00203A26C02F003029A42FAD138BD7C
:103B700020464AF021F8FAE70000015B00000A50F5
:103B800070A40608F8B504460D4617468AB36F4B75
:103B90009C420BD06E4B9C4208D003F580439C4264
:103BA00004D040F227216B4849F002FF3DB3A368DF
:103BB00013F0010F52D0BD4228D3666806F001060B
:103BC000B5FBF7F5013DFF2D26D8002E44D0636DDF
:103BD00013F0280FFBD1A36C13F0030F29D1A36CB2
:103BE00013F0010F36D1A36C13F0020F1AD0062781
:103BF00020E04FF40971574849F0DAFEC7E7204644
:103C0000FFF748FFFFF72CF80546D0E740F23121D7
:103C1000504849F0CDFED0E740F239214D4849F0F7
:103C2000C7FED2E740F246214A4849F0C1FE0027CC
:103C300000E00527204649F0BFFF236923F07F43BA
:103C400043EA05632361002E43D039462046FFF73F
:103C50005DFF3EE00927EDE70027EEE76368012BF3
:103C60000FD1A36803F0E003402B41D00FD9602BA4
:103C70004DD0802B5ED107EB4703AB4253D80123D5
:103C800011E040F25921334849F092FEE9E733B19F
:103C9000202B4FD1B7EBD50F23D8082303E0B7EB88
:103CA000151F17D810236D0107FB03F3B5FBF3F5C0
:103CB000203DEE00284BB3EBC50F41D3264A3240DE
:103CC000636D13F0010FFBD12263636D13F0010FDD
:103CD000FBD1F8BD40F281211E4849F069FE102356
:103CE000E1E740F286211B4849F062FE0823DAE74B
:103CF0001A4BA3FB0523B7EB930F01D80623D2E79A
:103D000040F28B21134849F053FE0623CBE7B7EB73
:103D1000950F01D80423C6E74FF424710D4849F0EC
:103D200047FE0423BFE740F295210A4849F040FED0
:103D30000123B8E740F29B21064849F039FEC8E765
:103D400040F2A621034849F033FEB7E70000015BCB
:103D500000000A5070A40608F8FF7F00ABAAAAAAC8
:103D600070B504460D461646436823B1636DC3F330
:103D70000B03002BFAD12046FFF7AAFE636923F458
:103D80004C5323F00F036A7B1343EA8913432A8AB7
:103D900013436361A36823F0804323F0E2032A7B8B
:103DA00013432A7E13436A691343A360AB681BB9AC
:103DB000A36843F00043A360EA69002A70D0A168B9
:103DC000694B0B40117A43EA8153917A43EA4143AC
:103DD000918801F4C0410B43517843EA8103517B40
:103DE00043EAC103917B43EA0113927843EA8223B9
:103DF000A360E2685D4B1340EA6911690B435169A6
:103E00000B43917943EA8123D27943EA4223E36069
:103E1000EB691B78012B01D0032B03D1E36843F03E
:103E20000403E360EB691B78023BDBB2012B51D941
:103E30004F4B9C426BD04F4B9C426AD003F5804362
:103E40009C4262D04FF0FF3303F593735B0103F1A3
:103E5000A04303F5703302225A60EB695A7A04F5E5
:103E600080539A62EB695B7A1BB1E36843F40063A9
:103E7000E360EB69DB7A63B1E36843F40043E3603A
:103E80003B4B9C4247D03B4B9C424BD03A4B9C42D5
:103E90004FD0636A23F00303EA69D27B1343636262
:103EA0003EB196F82030002B4AD004F58053012211
:103EB0001A6205212046FFF729FEAA68002A4ED182
:103EC00029782046FFF722FEA36CDB4313F4405F02
:103ED000FAD170BD264B9C4213D0264B9C4212D087
:103EE00003F580439C420AD04FF0FF33A6335B01B9
:103EF00003F1A04303F5703302225A60ADE70223B9
:103F0000F4E70023F2E70123F0E702239CE7002314
:103F10009AE7012398E7EB691B7B03F00F03174A2D
:103F20005366B0E7EB691B7B03F00F03134A13677B
:103F3000ACE7EB691B7B03F00F03104AD367A8E7DC
:103F4000E36923F0090396F82220134396F8212011
:103F5000134343F0010304F58052D361A9E7696874
:103F60002046FFF70FFEABE7E39BBDFFFFF9F087AD
:103F70000000015B00000A5000400A50009003500E
:103F800038B505460C46154B98420AD0144B98425A
:103F900007D003F58043984203D07021114849F0BF
:103FA00007FD64B1237B802B0ED0637B032B10D8DD
:103FB00000231A4621462846FFF7D2FE38BD72215B
:103FC000084849F0F5FCEDE77621064849F0F0FC99
:103FD000EBE77921034849F0EBFCE9E70000015BDE
:103FE00000000A5070A4060838B505460C462D4B53
:103FF000984203D08A212C4849F0DAFC44B3294B7B
:104000009D422AD00020092805D00A2803D02AD3AF
:104010001038012827D8637B032B29D8237B802BDA
:104020002BD16369B3F1804F2CD1238AB3F5805F24
:1040300002D0B3F5405F2AD1A368013BB3F5165F08
:104040002AD200231A4621462846FFF789FE38BDAA
:104050008C21154849F0ACFCD1E75620FEF7ECFF67
:104060000B28D0D1D7E79E210F4849F0A1FCD2E719
:10407000AA210D4849F09CFCD0E7AC210A4849F040
:1040800097FCCEE7AE21084849F092FCCDE7B0217D
:10409000054849F08DFCCFE7B221034849F088FC80
:1040A000CFE700BF0000015B70A4060838B50446E6
:1040B0000D46032803D8DFE800F00B0406090023AF
:1040C00008E00F2306E040F2FF3303E03F2301E066
:1040D00040F2FF73EB4013F0010F07D00122AA401A
:1040E00004EB44042401044B1A5138BD40F22D4125
:1040F000024849F05DFCF1E740D00350A89506085E
:1041000038B504460D46032803D8DFE800F00B0459
:104110000609002308E00F2306E040F2FF3303E026
:104120003F2301E040F2FF73EB4013F0010F07D093
:104130000122AA4004EB44042401044B1A5138BD67
:1041400040F2FE31024849F033FCF1E740E0035011
:10415000A8950608F8B504460D4616461F460328DE
:1041600003D8DFE800F00B040609002308E00F2362
:1041700006E040F2FF3303E03F2301E040F2FF732B
:10418000EB4013F0010F1BD026B1FFB129462046AA
:10419000FFF78CFF072D1ED8A90004EB44031B0179
:1041A00006FA01F20F2000FA01F11548184449F00F
:1041B00028FD26B9FFB129462046FFF777FFF8BD55
:1041C0004FF4B0710F4849F0F3FBDDE72946204674
:1041D000FFF796FFDEE7A5F108039B0004EB440C14
:1041E0004FEA0C1C06FA03F20F219940064860447E
:1041F00049F007FDDDE729462046FFF781FFDEE7AE
:1042000034C00350C0A406083CC0035070B5044637
:104210000D4616461F2906D856B104F580540123D1
:10422000AB40236070BD9121034849F0C1FBF3E727
:1042300004F50054F3E700BF80A3060810B50C4B4B
:104240004FF48002C3F88020BFF34F8FBFF36F8F0E
:10425000084B00245C65FF229A625C6021462020A6
:10426000FEF7D8FC21462120FEF7D4FC10BD00BF8C
:1042700000E100E00000045038B504460D46072870
:1042800006DC85F0010221460448FFF7BFFF38BD78
:104290007721034849F08CFBF3E700BF400004504E
:1042A00010A5060810B50446002833D023781B0655
:1042B00033F0F85333D1E3780F2B35D80121202088
:1042C000FEF7A8FC01212120FEF7A4FC194B0122D6
:1042D0005A60227812069A606178A27842EA014216
:1042E0009A61FF229A6200229A631A644FF0004298
:1042F0005A6503F500534FF0FF321A650E4A4FF42A
:104300008001C2F88011E3781B01DBB282F816331A
:10431000116010BD9121094849F04AFBC6E792217E
:10432000064849F045FBC6E7A321044849F040FB95
:10433000C4E700BF0000045000E100E010A506083B
:104340002DE9F04105460C469046C3B201269E4039
:10435000072859DC002C5CD0236823F47C1323F05D
:104360000F03002B5AD1A37A1B0433F440335AD1E4
:10437000E37A1B0533F480135BD1237B5B0533F4B5
:1043800000135CD1314F07F500531E652268AB0066
:1043900003F1A04303F588235A60637B05EB4502D4
:1043A00007EB02121366A17AE37A1B0543EA014385
:1043B000217B43EA4153D36528F00303136749F097
:1043C000E2FB7B6D33437B65237A13B13B6C334354
:1043D0003B64637A1BB11D4A936B33439363237928
:1043E000A27942EA0342194B03F500518A616579CB
:1043F000E27942EA054203F58054A2614E639E646D
:1044000049F0C7FBBDE8F081EC21114849F0D0FA32
:10441000A0E7ED210E4849F0CBFA9DE7F0210C48CA
:1044200049F0C6FA9FE740F20911094849F0C0FA7D
:104430009EE740F20B11064849F0BAFA9DE740F2B8
:104440000D11034849F0B4FA9CE700BF0000045086
:1044500010A5060810B5C3B201249C4007280ADC49
:1044600049F091FB074B5A6D22EA04025A659C629F
:1044700049F08FFB10BD40F29711034849F098FABC
:10448000EEE700BF0000045010A5060810B5C3B247
:1044900001249C4007280BDC49F075FB0B4BDB6AC1
:1044A00023420BD1094B5B6B9C430CD0002406E0EC
:1044B00040F2B511064849F07BFAEDE7002449F0D7
:1044C00068FB204610BD0124F9E700BF000004503E
:1044D00010A50608064B4FF480329A6603F51C338C
:1044E00041F67132DA6303F500530122DA60704756
:1044F00000900050074B41F67132DA6303F5005229
:104500000121D1600022DA63A3F518334FF4803221
:104510009A6670470000035008B5322827D8DFE8B4
:1045200000F01B2C2626262626262626262624268E
:10453000262626262626262626262626262626261B
:104540002626261A1C1E202626262626262626262F
:10455000262626262200012008BD0220FCE7042092
:10456000FAE70520F8E70620F6E70720F4E7B6218A
:10457000034849F01DFA0020EEE70320ECE700BFF6
:10458000B0A5060810B50C460C282AD00CD8012876
:104590000ED101290CD002290AD049B140F20711ED
:1045A000174849F005FA03E0242803D8212803D24C
:1045B000204610BD3228FBD1042C0DD801A353F89E
:1045C00024F000BFB1450008B1450008B14500081E
:1045D000B1450008B1450008F621094849F0E8F95D
:1045E000E6E7022907D0032907D04FF48B7104486E
:1045F00049F0DEF9DCE70024DAE70124D8E700BF60
:10460000B0A5060870B50546C2F3062602F00704F9
:1046100081B90B2808D844EA062242F44022063524
:10462000104B43F8252070BD4FF4FC710E4849F043
:10463000BFF9F0E703280ED821463046FFF7A2FF66
:1046400004463046FFF768FF44EA00241235054B64
:1046500043F82540E7E740F2FD11034849F0A8F987
:10466000EAE700BF00800350B0A5060810B40C466E
:1046700081B90E4942EA034241F8202064B90C494D
:10468000D1F84836012282401343C1F848365DF81C
:10469000044B70470749EDE70549D1F848360C301F
:1046A000012282401343C1F84836F0E74CC603505C
:1046B00000C003507CC6035070B504460D46164634
:1046C0000B2810D80B2D14D80D4A063452F824307C
:1046D00023F0706323F4702343EA064343EA05633F
:1046E00042F8243070BD40F28221064849F060F95A
:1046F000E8E740F28321034849F05AF9E4E700BFB4
:1047000000800350B0A5060808B5C369032B06D87E
:104710009A1C00EB820251600133C36108BDFA218B
:10472000014849F045F9F9E700A6060808B5C2694D
:10473000042A1DD84FF098431B6C13F4801FF9D046
:10474000043292004FF098431A6502681A6042687A
:104750001A6082681A600023C2699A420DD99A1CB5
:1047600000EB820251684FF0984211600133F3E789
:104770004FF48A71014849F01BF908BD00A60608EC
:10478000094B4FF480325A6603F5E6239B69C3F365
:10479000461203F00F010A434280C3F30342427002
:1047A000C3F303330370704700900050014B986CC3
:1047B000D96C70470080E00F034B9B680A3303F00D
:1047C0001F030120984070470080E00F014B58689C
:1047D00080B270470080E00F08B5FFF7F7FF0A4B83
:1047E000A3FB0023C3F38F1341339BB2422B07D0AB
:1047F000432B07D0412B01D0002008BD0420FCE74B
:104800000520FAE70320F8E7D34D621030B586465D
:10481000049C94460AB94FF0040C9C4538BF9C4652
:10482000DEF80820CCF1000010400CF1FF351540F7
:1048300000D0654628440144C3F1000C01EA0C0C89
:104840005D1E294000D019460CEB0103DEF8041070
:10485000891A01319A1A91420BD3CEF808300023FD
:1048600023700B4B63604FF4E563A360094BE36077
:1048700030BD039B0BB1521A1A6016232370044BF0
:10488000636040F22273A360024BE3600020EFE715
:104890004CA60608B0A606082DE9F04182B00A9D94
:1048A0004AB908232B701E4B6B604FF4D963AB6081
:1048B0001C4BEB60FEE70E461C46174663B1013BFE
:1048C000234209D008232B70154B6B6040F2CB6359
:1048D000AB60144BEB60FEE749F055F9804601955B
:1048E000099B0093089B224639463046FFF78EFF0E
:1048F00004462B7833B9404649F04BF9204602B0C4
:10490000BDE8F081404649F044F916232B70044B72
:104910006B6040F2D763AB60024BEB600024EDE7C5
:104920004CA60608C8A60608F0B585B005460C4694
:1049300016461F466BB17CB10297002301930123F9
:1049400000930423324621462846FFF7A5FF05B011
:10495000F0BD49F07AF9EEE7004CEDE7F8100020E1
:1049600000B585B00C4B1B78012B09D0684600F0D0
:10497000B7FC9DF8003063B9002005B05DF804FB7A
:10498000FEF7ECFE10B16FF00500F6E74FF0FF30D8
:10499000F3E74FF0FF30F0E7708F0020094B1B78F2
:1049A000012B01D000207047074B1B78012B04D14D
:1049B000064B1B781BB10320704701207047022073
:1049C000704700BF6F8F0020708F00206C8F002019
:1049D00000B585B0FEF7C2FE58B9094B1B78012B14
:1049E0000AD0684600F008FC4FF0FF3005B05DF8D3
:1049F00004FB6FF00500F9E74FF0FF30F6E700BF6A
:104A0000708F002000B585B0FEF7A8FE70B90A4B84
:104A10001B781BB1012005B05DF804FB684600F06F
:104A200049FB9DF8003023B90020F4E76FF0050042
:104A3000F1E74FF0FF30EEE76C8F002030B585B026
:104A40000546FEF78BFE002836D1BDB1AC68FCB13F
:104A5000EB68172B32D914F0030F31D100232374E4
:104A60002968F1B1002262616B46204600F00EFE1B
:104A70009DF80030BBB9204605B030BD182047F086
:104A80002FFE04460028F6D0012303740D49E9E700
:104A9000182047F025FE04460028ECD001230374BB
:104AA000DEE70849DEE7237C012B01D00024E2E7A2
:104AB000204647F01DFEF9E70024DCE70024DAE792
:104AC0000024D8E7E0A6060830B585B00446FEF716
:104AD00045FE00283CD1D4B1A5680DB3E3681B2B7B
:104AE00038D915F0030F37D100232B762168F9B19F
:104AF0006A46284601F0E0F89DF80030D3B914B3B7
:104B0000636813F0010F1ED001236B761DE01C209B
:104B100047F0E6FD0546C0B1012303760F49E7E7FC
:104B20001C2047F0DDFD054678B101230376DDE763
:104B30000A49DDE72B7E012B01D0002505E0284640
:104B400047F0D6FDF9E700236B76284605B030BD67
:104B50000025FAE70025F8E70025F6E748A1060852
:104B600070B584B005460E461446FEF7F7FD0028E2
:104B700037D1002D37D0B4B1A568F5B1E368172B54
:104B800033D915F0030F32D100232B742168E9B11A
:104B90006B463246284601F0C7FB9DF80030BBB992
:104BA000284604B070BD182047F09AFD054600283D
:104BB000F6D0012303740F49EAE7182047F090FD6F
:104BC00005460028ECD001230374DFE70949DFE73D
:104BD0002B7C012B01D00025E2E7284647F088FD19
:104BE000F9E70025DCE70025DAE70025D8E700250E
:104BF000D6E700BFECA606082DE9F04F8FB00646B9
:104C00000F461446FEF7AAFD002840F0FC80002E57
:104C100000F0FB80002C34D0A568002D50D0E36854
:104C2000CB2B40F2F48015F0030F40F0F28000230C
:104C300085F8C430D4F814B0BBF1000F4AD0236912
:104C4000002B5DD0002B6ED0D4F8109019F0070F18
:104C500069D1002385F8C530D4F80080B8F1000F81
:104C60006BD0A369002B7DD0B3F1FF3F00F0A4808F
:104C7000372B65DC5FFA83FACAF1370A5FFA8AFAE2
:104C800072E0CC2047F02CFD0546002800F0908013
:104C9000012380F8C4304FF4806047F021FD814645
:104CA00048B1012385F8C5304FF01F0ADFF86C8149
:104CB0004FF4806B58E0284647F01AFD4D4677E0E8
:104CC000CC2047F00DFD0546002871D0012380F867
:104CD000C430AFE74FF4806047F002FD814628B151
:104CE000012385F8C5304FF4806BB5E795F8C430E3
:104CF000012B01D04D465BE0284647F0F9FCF9E76F
:104D0000584647F0EDFC814618B1012385F8C530BF
:104D1000A2E795F8C430012B01D04D4648E0284663
:104D200047F0E6FCF9E795F8C430012B01D00025E7
:104D30003EE0284647F0DCFCF9E7DFF8E08090E74A
:104D400095F8C530012B05D095F8C430012B05D05E
:104D500000252DE0484647F0CBFCF5E7284647F014
:104D6000C7FCF5E74FF01F0A0AAB00222A4905F1FC
:104D70009C0000F08BFC9DF8283003BB2BF007044F
:104D8000A4080AAB0893072307930023069305930F
:104D9000049303940293CDF80490CDF800A03B4611
:104DA00032464146284601F057FD9DF82830C3B9E8
:104DB00028460FB0BDE8F08F4FF0400AD4E795F8D1
:104DC000C530012B05D095F8C430012B05D0002546
:104DD000EEE7484647F08CFCF5E7284647F088FCAC
:104DE000F5E795F8C530012B05D095F8C430012BB7
:104DF00005D00025DCE7484647F07AFCF5E7284671
:104E000047F076FCF5E70025D2E70025D0E700253E
:104E1000CEE70025CCE700BF04A70608F8A60608E1
:104E2000044B1B78012B01D000207047024B1868FF
:104E3000704700BF708F0020DC6E00202DE9F0412C
:104E400084B007460C461646FEF788FC002840F062
:104E5000DC80002F00F0DB80002C00F0DA800334CF
:104E600024F003053EB3B468002C3ED0F3683B2B1E
:104E700040F2D18014F0030F40F0CF80002384F87B
:104E800024307069002839D0D6F81080B8F1000FAE
:104E90006AD0B8F1000F00F0888005FB07F3984254
:104EA000C0F08380336913F0030F7ED123620023A7
:104EB00084F825302CE03C2047F012FC0446002802
:104EC00044D0012380F8243005FB07F047F008FCAC
:104ED0000646206220B1012384F82530504E1AE0A6
:104EE000204647F005FC344630E03C2047F0F8FB14
:104EF000044658B3012380F82430C2E705FB07F0CD
:104F000047F0EEFB8046206220B3012384F8253071
:104F10003668002E53D0A762E562002323636363E3
:104F2000A3636B463A463146204601F0FDF99DF8F1
:104F30000030002B45D16B460022314604F11000B1
:104F400001F0F2F99DF80030002B4CD1204604B05E
:104F5000BDE8F08194F82430012B01D04446F5E7F8
:104F6000204647F0C5FBF9E705FB07F3984208D355
:104F700047F0B6FB8046206268B1012384F82530F3
:104F8000C6E794F82430012B01D04446DEE72046E2
:104F900047F0AEFBF9E794F82430012B01D04446EA
:104FA000D4E7204647F0A4FBF9E794F82430012B1E
:104FB00001D00024CAE7204647F09AFBF9E7184ED3
:104FC000A9E794F82530012B05D094F82430012B63
:104FD00005D00024BAE7206A47F08AFBF5E72046AF
:104FE00047F086FBF5E794F82530012B05D094F8BF
:104FF0002430012B05D00024A8E7206A47F078FB75
:10500000F5E7204647F074FBF5E700249EE700240F
:105010009CE700249AE7002498E7002496E700BF65
:1050200010A706081D4B1B78012B00D0FEE71C4B78
:105030001B7803B1704770B548F0A5FD0446194DC3
:105040002E7801F031F9287040281FD0164B53F804
:105050003020164B1A60402E11D0144B1A68144B96
:105060001B689A420ED00F4B1B78402B12D001F0D8
:1050700030FF204648F08DFDBFF36F8F70BDAFF35A
:105080000080EAE7204648F084FDF7E7074B00225E
:105090001A60E8E7AFF30080E9E700BF708F0020F7
:1050A0006C8F00206D8F0020E06E0020D86E0020F5
:1050B000DC6E002010B5044660B1FEF74FFB60B116
:1050C000202323701C4B636040F22633A3601B4BEC
:1050D000E360FEE748F0B9FDEFE7194B1B78012BC1
:1050E00009D002232370144B636040F22A33A3607B
:1050F000124BE36010BD134B1B78F92B09D91E230B
:1051000023700D4B636040F22F33A3600B4BE360C1
:10511000F0E748F038FD0B4A13780133137048F07C
:1051200038FD00232370044B636040F23A33A360E0
:10513000024BE360DEE700BF20A70608C0A7060811
:10514000708F00206C8F002010B5044660B1FEF710
:1051500005FB60B120232370234B636040F2523380
:10516000A360224BE360FEE748F06FFDEFE7204BC2
:105170001B78012B09D0022323701B4B636040F284
:105180005633A360194BE36010BD1A4B1B784BB923
:105190001F232370144B636040F25B33A360134BF7
:1051A000E360F1E748F0EFFC124A1378013BDBB211
:1051B00013706BB948F0EDFCFFF734FF0023237048
:1051C000094B636040F26D33A360084BE360DBE79B
:1051D00048F0DFFC2D232370034B636040F2633300
:1051E000A360024BE360CFE720A70608B0A706083C
:1051F000708F00206C8F002010B5044668B1264BDC
:105200001B78012B0CD013232370244B636040F2D6
:105210000343A360224BE360FEE748F016FDEEE790
:10522000204B1B884BB9092323701C4B636040F251
:105230000E43A3601A4BE360FEE71B4B1B784BB198
:105240001F232370154B636040F21143A360144B7E
:10525000E360FEE748F0A0FC48B11F2323700F4B2A
:10526000636040F21443A3600D4BE360FEE701F07E
:105270001BF80E4A10700E4A10700E4A52F8303069
:105280000D4A13600D4A1360074B01221A7001F09A
:10529000D9FD48F0DAFC10BD6F8F002020A706086A
:1052A000A8A70608D28E0020708F00206D8F0020E6
:1052B0006E8F0020E06E0020D86E0020DC6E002093
:1052C000002307E0054A002142F8331002EBC30235
:1052D000516001333F2BF5D9704700BFE06E0020CD
:1052E00038B50446002848D0674B5A689AB11B6805
:1052F000002B45D0654A1360644B1A68644B1A60F2
:10530000614B5B68634A13609B00634A13606349A7
:105310000A681A440A605C4B1A89DAB102EB42024D
:10532000234692005849096B5D48FFF7FDFA5D4B33
:105330001860237803BB5C4B1860534B1B895B4A96
:10534000138003EB43039B00594A136053490A68D7
:105350001A440A604C4B5A6B564B1A6001F0C8FC59
:1053600006F004FCC8B101232370534B63604FF473
:10537000DA73A360514BE36038BD48F066FCB3E7D5
:10538000234692004049096B4D48FFF7CDFA3F4B49
:1053900018602378002BAFD0EEE706F08FFC494B66
:1053A0001860444B1D68A84209D209232370424B60
:1053B00063604FF4DD73A360404BE360FEE7A842F7
:1053C00023D0024600230020012146F0C1FF05FB47
:1053D00000F03D4A1060B5F57A7F1AD83B4B0022A9
:1053E0001A6000233A4A13703A4A13703A4A13601B
:1053F0003A4A13603A4A13703A4A1370254B1B68B5
:10540000D3B1234A1268AAB916E02F4B00221A60C2
:10541000E1E72A4600230020012146F099FF4FF4DE
:105420007A7300FB03F3294A1360DAE7013B00219A
:1054300042F8041B002BF9D100232B4A13602B4A9E
:1054400013602B4A13602B4A13602B4A13602B4ABC
:10545000137000F01DFFFFF733FF144B1B882BB1B7
:10546000204600F0F3FB2378002B85D1204601F085
:10547000E1F92378002B7FF47FAF48F072FE204BD8
:1054800001221A7078E700BF0C110020BC6E0020CA
:10549000B46E0020B06E0020AC6E00209C6E002028
:1054A00094A70608B86E0020A86E0020D08E0020B9
:1054B000A46E0020A06E002020A70608CCA7060836
:1054C00080A70608C46E0020C86E0020CC6E0020A5
:1054D000708F00206C8F0020DC6E0020D86E0020C2
:1054E0006E8F00206D8F0020F8700020F470002077
:1054F000F0700020EC700020E87000206B8F00201E
:105500006F8F002090F827300B4A52F833204AB1B1
:10551000C26000220261084A52F83310086142F862
:1055200033007047C2600261034A42F8330002EB65
:10553000C3025060704700BFE06E002090F8272043
:105540000B4B53F832304BB10023C360084B03EBD5
:10555000C2035A680261D06058607047C36003613B
:10556000034B43F8320003EBC2035860704700BF9F
:10557000E06E002010B5044690F8270000F0A6FE6B
:1055800094F82720054B1B789A4203D02046FFF75A
:10559000B9FF10BD2046FFF7D1FFFAE76E8F00205C
:1055A00010B5044690F827100269C36832B1D36081
:1055B000B3B11A6100232361E36010BD2BB1002257
:1055C0001A610A4A42F83130F4E7084B43F83120B7
:1055D00003EBC1035A6090F8270000F08DFEE9E765
:1055E000024B03EBC1035A60E4E700BFE06E00200A
:1055F00070B582B0044639B9022380F826302046BF
:10560000FFF7CEFF02B070BD0D46002606F056FB38
:10561000A5FB00500D4B1A68AD1840F10001681E43
:10562000334641F1FF3146F093FE01460196009664
:105630002346074A04F144004BF09DF918B90323AF
:1056400084F82630DBE748F000FBF8E7A06E002086
:105650003BE3040810B504460B4B186880F824108F
:10566000002380F825301146FFF7C2FF34B1064B06
:1056700019680C62201D48F079FD10BD024B1B68B3
:1056800000221A62F9E700BFDC6E00202DE9F0412C
:10569000044616461D465BB1FEF760F858B120235C
:1056A0002B70174B6B605523AB60164BEB60FEE71E
:1056B00048F0CBFAF0E7CCB148F065FA8046002715
:1056C00027606760A760E7600F4B2360E660201DDE
:1056D00048F048FD404648F05CFA2F70084B6B607C
:1056E0007023AB60074BEB60BDE8F0810A232B70A1
:1056F000034B6B605823AB60024BEB60FEE700BFCF
:10570000D4A706084CA80608464C414710B5064CDD
:105710002468A167A4F880200022E2671A460121CC
:10572000FFF798FF10BD00BFDC6E00202DE9F04FA1
:1057300083B006460F4600921C460D9D2DB30FFA0E
:1057400084F8B8F1000F23DAB8F1000F2EDAA34B7A
:1057500093F80090B9F1010F36D1002E43D048F2F2
:1057600008039C426AD8B4F5004F46D8082C56D896
:1057700023B2002B4CD108232B70994B6B604FF454
:10578000A373AB60974BEB60FEE748F05EFAD6E799
:10579000FDF7E4FF0028D7D020232B70904B6B60DF
:1057A00040F23513AB608F4BEB60FEE748F0F4F945
:1057B0000028CCD01F232B70894B6B6040F239132B
:1057C000AB60884BEB60FEE702232B70844B6B6071
:1057D0004FF49F73AB60834BEB604FF0000A504671
:1057E00003B0BDE8F08F0A232B707D4B6B6040F255
:1057F0004313AB607B4BEB60FEE704F5FF437F3365
:105800009BB28B2222FA03F313F0010F27D1B2E7E8
:105810004FF48B73E34013F0010F20D1ABE7B4F5E5
:10582000847FA8D8B4F5807FA5D9A4F2011292B2E2
:105830008B23D34013F0010F11D19CE748F20813DA
:105840009C4298D8B4F5014F95D904F5FD437F33B8
:105850009BB28B2222FA03F313F0010F8BD0326834
:10586000614B9A4209D00C232B705D4B6B604FF457
:10587000AC73AB605B4BEB60FEE714F4807F01D14F
:105880004FF000090C9B13B100230C9A136004F035
:105890000F03019348F077F98346019B042B17D03F
:1058A000082B60D048F075F948F0CFF9FFF7BAFB44
:1058B00048F069F904464D4B1B6893F82530032BDB
:1058C00000F2EE80DFE813F0A200C200E000CE009C
:1058D000F36803EA070A37EA03020FD0B8F1000FB2
:1058E00025DB434B1B7883BB009B22463946304661
:1058F000FFF70CFF584648F04CF9D7E7B9F1010F14
:1059000011D03A4B1B680BB1C3F87CA0584648F045
:1059100040F900232B70324B6B604FF4BB73AB60CC
:10592000304BEB605BE723EA0A03F360E9E748F0FA
:1059300030F91D232B702A4B6B6040F27D13AB6056
:10594000284BEB604FF0000A49E748F022F92D237D
:105950002B70234B6B604FF4C273AB60214BEB6039
:105960004FF0000A3BE7F36813EA070A10D1B8F1D9
:10597000000F26DB1E4B1B78002B3BD1009B2246E1
:1059800039463046FFF7C2FE584648F002F98DE727
:10599000B9F1010F11D0154B1B680BB1C3F87CA0F6
:1059A000584648F0F6F800232B700D4B6B604FF40F
:1059B000D173AB600B4BEB6011E723EA0A03F36092
:1059C000E9E748F0E6F81D232B70054B6B6040F2C9
:1059D000A913AB60034BEB6001E700BF708F0020A1
:1059E000D4A7060840A80608464C4147DC6E0020B4
:1059F0006C8F002048F0CDF82D232B70344B6B605A
:105A00004FF4D873AB60334BEB60E8E600232B70A8
:105A10002F4B6B6040F22D23AB602E4BEB602B784D
:105A2000002B52D12C4B1B68D3F87CA0B9F1010F8D
:105A30003BD0204648F0ADF800232B70244B6B6020
:105A400040F26F23AB60234BEB60C8E648F0A1F84F
:105A500021232B701E4B6B604FF40E73AB601D4BFC
:105A6000EB60DCE70C9B13B100230C9A136020461B
:105A700048F08FF822232B70154B6B6040F24123C6
:105A8000AB60144BEB60CAE748F083F831232B700E
:105A90000F4B6B604FF41373AB600E4BEB60BEE7C4
:105AA00048F077F848F0D1F8B9E7019B042B01D012
:105AB000082B04D1F36823EA0A03F360B9E7204610
:105AC00048F067F848F0C1F8B3E74FF0000A86E6FF
:105AD000D4A7060840A80608DC6E00202DE9F04196
