:020000040800F2
:1000000000100020215B00083D1605083D1605087C
:100010003D1605083D1605083D1605083D16050860
:100020003D1605083D1605083D1605083D16050850
:100030003D1605083D1605081FA800083D160508D1
:100040003D1605083D1605083D1605083D16050830
:100050003D1605083D1605083D1605083D16050820
:100060003D1605083D1605083D160508A13D00088A
:10007000550805083D1605083D1605083D160508F6
:100080003D1605083D1605083D1605083D160508F0
:100090003D1605083D160508D56300083D16050800
:1000A0003D1605083D160508E15F0008C15F000820
:1000B0003D1605083D160508A9EE010895F9010849
:1000C00015A5050811A5050819F101082BA50508B6
:1000D00019A5050865F901081DA50508D5F9010848
:1000E000C5FA01083D1605083D1605083D16050828
:1000F0003D1605083D1605083D1605083D16050880
:100100003D1605083D1605083D1605083D1605086F
:100110003D1605083D1605083D1605083D1605085F
:100120003D1605083D1605083D1605083D1605084F
:100130003D1605083D1605083D1605083D1605083F
:100140003D1605083D1605083D16050899AD000841
:100150003D1605083D16050883D30608FDD10108A4
:100160003D1605083D16050805A505080BA505085B
:0C0170003D1605083D1605083D16050863
:10017C00F0B5114A114C124E00F00105E3695F070E
:10018C0013D40DB9334213D103EA00078F4207D1C0
:10019C000B4A1A40002A0CBF00206FF00100F0BD82
:1001AC00013AEBD16FF00200F9E74FF0FF30F6E7C0
:1001BC006FF00100F3E700BF809698000000035039
:1001CC000200010070B50B4BD96911F480310DD1CF
:1001DC0001244FF48072084E084DF46020462C64C4
:1001EC001A61FFF7C5FF3464EC6070BD6FF001005D
:1001FC00FBE700BF00000350001003500020035029
:10020C0038B54FF480320E4B0E4C9A66E56941F6C8
:10021C00713315400122E3630B4B0021DA6002239A
:10022C00606121202361FFF7A3FF10B92120FFF7A4
:10023C009FFF0122054BDA600DB10023E36338BD4B
:10024C000090005000000350001003500020035099
:10025C0070B5134C6061E3695B071ED40E4656F80B
:10026C00043B8D18A361AE420BD104230021212045
:10027C002361FFF77DFF58B9BDE870402120FFF7DF
:10028C0077BF08210846FFF773FF10B104232361E1
:10029C0070BD56F8043BA361E5E74FF0FF30F7E77C
:1002AC00000003502DE9F84315464FF48032184BEB
:1002BC0089469A6603F51C33DF690646174041F6FA
:1002CC007132DA63012203F58053DFF84C80DA6077
:1002DC0055B9284601220F4BDA601FB10022A3F555
:1002EC000053DA63BDE8F88306F5005404EA080409
:1002FC00A41BAC4228BF2C46494622463046FFF789
:10030C00A7FF0028E6D12644A1442D1BE0E700BF3F
:0C031C00009000500020035000E0FFFFA4
:100328002DE9F04100231546C2E900014FF47A7225
:1003380080460F464FF0D2F918A3D3E900230446AC
:100348000E46404639464FF0C9F9134B80B2288112
:100358005843241A66F100064FF4616200232046D0
:1003680031464FF0BBF94FF46163C0B2A8725843ED
:10037800241A20464FF03C024FF0000366F10001BA
:100388004FF0ACF9C0B2E872C0EB0010A4EB8004E7
:100398002C73BDE8F08100BF80510100005C260588
:1003A80000000000000000002DE9F04F93B0CDE9F7
:1003B8000A32DDE91C530E9353EC102BCDE90801EA
:1003C800104619468DED060B1E9E4EF05FFF80B15C
:1003D800DDE906014FF0FF32C54B4EF07FFF40B913
:1003E800DDE906014FF0FF326FF480134EF058FF3D
:1003F80070B1DDE908019DED060B0E9B1E96CDE957
:100408001C53DDE90A3213B0BDE8F04F00F088B99B
:100418000022DDE9060100234EF042FF002800F02B
:100428003381DDE906A303F1004BCBF30A5016F440
:100438008063A0F2FF3008BF06250F934EF054FCEE
:100448009BA3D3E900234EF0B9FC9BA3D3E9002377
:100458004EF0FEFACBF31304894644F07F518046F0
:100468000022A44B504641F440114EF0EFFA94A3F9
:10047800D3E900234EF0A2FC02460B46404649460B
:100488004EF0E6FA4EF034FF04464EF02DFC8EA3F3
:10049800D3E90023804689464EF090FC0022964B13
:1004A8004EF0D6FA4EF024FF89A3D3E9002307467D
:1004B800494640464EF082FC8046384689464EF012
:1004C80013FC85A3D3E900234EF078FC02460B46C3
:1004D800404649464EF0BAFA02460B46CDE90C238F
:1004E8004EF06CFCDDE90C2380468946104619461F
:1004F8004EF0AEFA0022CDE91001804B4046494645
:100508004EF086FD00227E4B4EF0A2FA02460B46C4
:10051800404649464EF07CFD00227A4B4EF098FA50
:1005280002460B46404649464EF072FDDDE90C2373
:100538008046894600204FF080414EF087FA0246F7
:100548000B46404649464EF083FA02460B46DDE923
:1005580010014EF05DFD07F2FF3700226A4B4EF0A6
:1005680077FA00223B054EF029FC52465B4680464E
:1005780089464EF0B3FE002840F08980CDE90C8909
:1005880004F16303C72B34BF0427052731051BD5A6
:1005980053A3D3E90023504659464EF095FE002850
:1005A8007FD051A3D3E90023504659464EF078FE38
:1005B800002876D00027A542C6BF2C1B04F1FF35C2
:1005C80000253C4646F480660E9B9F422CBF4FF0A8
:1005D8000008A3EB070816F0020903D0002F18BF84
:1005E8004FF000083CB1DDE90C23504659464EF067
:1005F8000FFD82468B46DDE90601002200234EF0FE
:100608004FFE10B10BF100439B46DDE9080126F4CB
:100618000063CDE90183DDE90A324BEC10AB0095AC
:1006280000F07EF802465FB3DDE9091316F0200FEB
:1006380000F10105089E0CBF65204520B047DDE9A3
:1006480008010523002205930A23002CCDE9023274
:1006580007F1FF374FEAD473B8BF64422A460193C3
:1006680004970A9B009459F0C0F90246B9F1000FAB
:1006780006D00B9BC41A0B9B1A190E9BA34245D894
:10068800104613B0BDE8F08FDDE906ABCDE60022D9
:10069800404649461A4B4EF0BBFC013CCDE90C01E3
:1006A8006EE7002D90D00F9B002B8DD0013D8BE77E
:1006B800FB799F501344D33FB3C8608B288AC63F49
:1006C80061436F63A787D23F71A379094F930A40AB
:1006D8001655B5BBB16B0240EF39FAFE422EE63F24
:1006E8002D431CEBE2361A3F0000000080842E41A7
:1006F800FFFFEF7F0000F83F0000E03F00002C40C4
:1007080000002440000018400000F03F2020DDE9F0
:100718000913089DA8470134ADE700BF0000000099
:100728002DE9F04F97B05BEC10ABDDE92057CDE930
:100738000501CDE90723504652465B465946229E9D
:100748004EF0A4FD70B90323CDE902760193B04BB6
:100758000093DDE90501DDE9072359F066F817B0D4
:10076800BDE8F08F4FF0FF326FF4801350465946C2
:100778004EF096FD28B10423CDE902760193A54BEE
:10078800E6E74FF0FF3250465946A34B4EF0A6FD20
:1007980068B1A24A06F00403002B08BF0322A04B4D
:1007A8001CBF13460422CDE902760192D0E75046D9
:1007B80093A3D3E9002359464EF090FD38B992A38C
:1007C800D3E90023504659464EF06AFD68B1DDE989
:1007D8000723DDE905014BEC10ABCDE92176209527
:1007E80017B0BDE8F04FFFF7DFBD002200235046E9
:1007F80059464EF055FD002800F09A805B46524657
:10080800002000214EF022F9012382468B460993ED
:1008180016F4806400F08E80092D40F28E8000244A
:1008280030210EABA5F109020134202C03F8011B7D
:10083800A5EB040901D09442F6D1594650464EF032
:1008480057FD784B054603EBC90393ED007B8DED0F
:100858000A7B4EF049FA02460B46504659464EF07E
:10086800F5F8DDE90A234EF0A9FA02460B46CDE970
:100878000C234EF065FD80464EF026FA02460B46E4
:10088800DDE90C014EF0E2F802460B46CDE90C23F7
:100898000022654B4EF022FD002851D008F10108D6
:1008A80040464EF011FA02460B46DDE90A014EF0C9
:1008B80001FD10B14FF000080135B9F1000F50D11A
:1008C80028464EF011FA02460B46504659464EF05D
:1008D800BDF80022544B804689464EF0E1FC30B109
:1008E800002240464946504B4EF0F8FC10B1E8074C
:1008F80000D501350A210EAB1A19202C0AD095FB18
:10090800F1F001FB1055303502F8015B0134054662
:100918000028F2D106F00302012A57D1002F55D042
:10092800099A12B916F00C0F00D0013F302245E0A9
:1009380009906DE74FF006097FE7A94600247CE798
:100948000022DDE90C01384B4EF0AAFC0028B4D196
:10095800B8F1000F02D018F0010FAED008F101086D
:10096800ABE70A210EAB2344202C0ED0B8FBF1F0E4
:1009780001FB1082B8F1090F02F1300209F1FF39C9
:1009880004F1010403F8012B11D83021A1440EAA67
:10099800202CAFD0A14504F101030AD11C4609F16E
:1009A80058030DEB03092E2309F8203CA2E78046E3
:1009B800DAE7A1541C46EBE71A550134A74205D9DA
:1009C800202CF9D1CDE902760194C1E6202CF9D08A
:1009D800099A3AB12D2104F158026A4402F8201C00
:1009E8000134EFE7710704D504F158022B216A445A
:1009F800F4E73207E6D504F1580220216A44EDE70E
:100A08000000000065CDCD410000000065CDCDC1DE
:100A1800E71D0708EB1D0708FFFFEF7FDE1D07082E
:100A2800E31D0708F01D07080000E03F0000000074
:100A380070B5A8B02C2200211DA869F055FF4FF011
:100A480002331F9340F20B13874D14ACADF89C3062
:100A58000FCD0FC40FCD0FC42B6884492360844B7E
:100A6800844807930023CDE908330A931FF038F927
:100A7800814D286000284FD0012159F05FFD20B139
:100A880040F24A417D4820F02FFC286859F01AF9B5
:100A98007B4E3070286859F017F97A4B7A491870EC
:100AA80028681FF05BFC044600282FD13378774E66
:100AB8005BB9774824F042F83060E0B940F27B41F6
:100AC800744B754A6D484EF099FF744824F036F817
:100AD80030600028EDD0C18928681FF0AFFB33686B
:100AE8002146586824F064F8044678B9684824F028
:100AF80025F8306090B1C18928681FF09FFB3368E2
:100B08000421586824F054F8044638B123462221B9
:100B18000220634A5AF0B1F828B070BD08F048FDC9
:100B2800604A04ABCDE904010393A2F1080113F86C
:100B3800010B02F8010D9142F9D10622FF210BA801
:100B480069F0D2FE0622FF210DF1320069F0CCFED9
:100B5800182200210EA869F0C7FE08220EA903A8D2
:100B680069F02BFF41F234231C22002120A8ADF8A4
:100B78002C3069F0B9FE28681DA91FF0EBFD04466A
:100B88000028C3D14849286859F0FCFD04460028CC
:100B9800BCD14649286859F0DFFD04460028B5D184
:100BA800434928681FF0D4F904460028AED12CA385
:100BB800D3E90023CDE90023286859F0E5FD044670
:100BC8000028A3D13B4A3C49286859F037FE04461F
:100BD80000289BD1012059F0C9FC00289CD0A023F3
:100BE800364A07A8D380364A136008F0B5FD354B5E
:100BF800186020B940F2C441334B274A62E72246C5
:100C08000121082008F006FF304B186020B940F297
:100C1800C7412F4B204A55E700220121082008F040
:100C2800F9FE2C4B186020B940F2CA412A4B1A4AE7
:100C380048E72A4A2A492B4825F0BCFC294842F0B3
:100C4800E1FE0021284814AA08F03AFE274B186054
:100C580000287FF461AF40F2D641254B0E4A31E7B8
:100C6800C88D01C103400000C8970708C948020899
:100C7800728E0708C8B80020E85100204F8C07087A
:100C880038A8002037A8002007001100A041002044
:100C9800AFBE0508878E0708C896070899BE0508DD
:100CA800128F070841A80020C6970708C4970708AD
:100CB800EC51002076BA0020E0410020E8B800207E
:100CC80054520020685200209F8E0708645200206A
:100CD800BB8E070860520020D88E0708F88E0708D8
:100CE800614D020808520020F55D02086C52002090
:100CF800018F0708000000002DE9F3470546584C0E
:100D080022211020574A59F0B8FF182229462046B8
:100D180069F053FEA27B544BDFF894A11A70E37C70
:100D280000228AF800300023CDE90023DFF884810F
:100D380000224FF40073D8F8000059F025FD06464C
:100D480020B10126304602B0BDE8F087474B484F36
:100D58001B787BB9474823F0F1FE04463C60FCB998
:100D6800454A2221022059F088FF0122434B2126BF
:100D78001A70E7E7424B434C1A88434BD8F80000F7
:100D880053F82210414A8B6821603B601FF040FAFB
:100D980022683F4B946824221B8802FB0344DDE74A
:100DA8003C4B1C60374BD3F80090B9F1000F07D0CB
:100DB80000232420D9F80C108B4208D100251AE012
:100DC80040F23671344B354A35484EF017FED9F8A3
:100DD800085000FB0355EA695278120912F00E0F09
:100DE8002ED0052A2CD82F4B0021EA89B3F9000010
:100DF8003D6023F015FF18A3D3E90023CDE90023B4
:100E0800D8F8000059F0C0FCD9F80820AA4207D049
:100E1800254B3A600421D289B3F9000023F000FF82
:100E2800224BE2893C601A809AF800301B0913F0C3
:100E38000E0F07D024F0BAFE012024F04FFB81E703
:100E48000133B9E701220721D8F8000059F0AEFDB7
:100E58000028EFD075E700BFC88D01C1034200002C
:100E6800A4410020A39207082FA8002032A8002040
:100E7800A0410020A14C0208BF92070830A800201A
:100E8800B65B002094410020C4B30020D548020876
:100E9800B45B00209C410020FB9207088695070858
:100EA8004F8C070878BA00207ABA002070BA002060
:100EB8002EA80020E85100202DE9F8434468054693
:100EC80094F9013090F8E8715A1C1AD17B1E5BB274
:100ED800637000EB431393F825302370A0684DF03E
:100EE80015FF38A3D3E900238046894694F90160A9
:100EF8004EF0F4F908B3002E1FDD013E00236670A2
:100F080026E09F4206DD00EB431393F82520237863
:100F18009A42E3D0002305F1250263709F4204D86A
:100F28007B1E637000232371D8E75901505C217838
:100F3800884208BF63700133F0E7404623A3D3E932
:100F4800002349464EF0CAF900B32379F3B1013BB7
:100F5800237194F9013005EB431393F8253023707E
:100F680047B385F8EA31052395F8022285F8EC3174
:100F780085F8F02100230E2285F8EB3185F8F2215F
:100F880085F8F13105F5F570BDE8F88340460FA303
:100F9800D3E9002349464EF083F90028D9D02379B4
:100FA8000133DBB2092B2371D3D97B1EB342D0DDC9
:100FB8000136A3E727210220014A59F05EFEE1E746
:100FC800D6430808666666666666E63F9A99999902
:100FD8009999B93F000000002DE9F8432DED028BE7
:100FE80087680546384616460C464DF08FFE28A3FE
:100FF800D3E90023804689464EF070F988BB26A3C2
:10100800D3E90023404649464EF04AF960BBF7EE63
:10101800007A07EE107A87EE878A6B7F607F01225D
:10102800834224D0002143F089F901220446314645
:10103800687F43F083F9044404F2D5702860D8B17E
:1010480007EE900AF8EE677A9FED0D7A67EE887AD8
:1010580087EE270ABDEC028B10EE103AEB60BDE874
:10106800F8839FED088AD8E79FED078AD5E73146D0
:10107800184643F063F9E1E79FED040AEAE700BF89
:1010880000007A44E4388E3F00401C46000000000F
:10109800CDCCCCCCCCCCEC3F9A9999999999B93FC5
:1010A8002DE9F74F064690F8E8010D469146A0B3A2
:1010B8007468A3690133A361A37D06EB43131A7F08
:1010C80002441A77D4E90732C3EB520207EE902A9A
:1010D8004000B8EE677A07EE900AF8EEE76AF4EE99
:1010E800C76AF1EE10FA0BD507EE903A37EE667A3A
:1010F800F8EE677A77EE877AFCEEE77AC4ED077A3E
:101108004FF0000BD9450BD842F21073A2699A42EE
:1011180082BF0023C4E90633236203B0BDE8F08F21
:10112800B5F802A02F79BAF1000F2ED038464DF04D
:10113800DBFDCDE9000150464DF0D6FD02460B46D9
:10114800DDE900014DF064FF02460B4600204C49E2
:101158004DF07CFC4EF014F907EE100A96F80332B5
:10116800AAEB0700034486F8033294F8243033B31B
:1011780094F825305B4522D1BAF1000F08D1C4F8A4
:1011880020A00BF1010B0635BCE7B7EE007AE5E7C6
:10119800E3690133E3612A78002AF2D000239846F4
:1011A80096F8E8C106F108019C450FD8B8F1000F80
:1011B80014D127210220334A59F05FFDE1E72A784C
:1011C800002ADED0BAF1000FDBD0E7E791F81DE086
:1011D8000133964508BF88462031E5E7002288F8A4
:1011E8001420B8F81020D8F8043017440133BAB2E4
:1011F800C8F80430A8F810701AB198F81D2086F8BD
:101208001422F7EE007A012B77EEC77A8CBFB3EE83
:10121800097A9FED1D7AB8F8122088BF67EE877AA1
:101228000244A8F81220D8F808208CBF9FED177A3E
:1012380067EE877A06EE102ADFED156AE6EE077A82
:1012480087EEA67A17EE103A17EE100AC8F808309B
:101258004DF05CFD08A3D3E900234EF021F818B146
:10126800FF2388F815308CE798F91530013388D1B9
:101278000423F6E7AFF30080666666666666EE3FAF
:101288000000F03FF643080800004842000096427C
:101298000000C842000000002DE9F04F2DED028B40
:1012A800054600274FF0200A4FF0080B0B46082090
:1012B8004D4A87B08846272159F0DFFC95F8E83178
:1012C80027210820494A59F0D8FC6C6805F108061E
:1012D800E37D23716371637595F8E891B9450DDC79
:1012E8003FA7D7E900674FF00008AA46C346C145A3
:1012F80046D807B0BDEC028BBDE8F08FE17D4246D1
:101308001AFB01B130462944FFF766FE96F81D9096
:101318000495F0684DF0FAFCCDE90201B0684DF093
:10132800F5FC4B46CDE90001314A2721082059F048
:10133800A4FC2379D6ED037A05EB431292ED057AE6
:10134800F4EEC77AF1EE10FA02DB327F22710EE07A
:1013580017B995F82420F9E7637905EB431393ED62
:10136800057AF4EEC77AF1EE10FA04DB337F637185
:1013780001372036B0E7012FFAD195F84430F6E767
:10138800E37D434515D09AED048A18EE100A4DF016
:10139800BDFC32463B464DF097FF10B9BBF1000F3C
:1013A8000CD19AF8243022799A4202D062799A4272
:1013B80011D108F101080AF1200A98E7637D05EBCD
:1013C8004313D3ED047AB4EEE78AF1EE10FAE8DAC3
:1013D8004FF0010BEDE76375FAE700BFAFF300804C
:1013E800666666666666EE3F0E440808304408087E
:1013F8003F440808000000002DE9F047D0F80480B9
:1014080000EB411393F8245098F817300446AB4288
:101418002DD098F81530AB4229D000EB411ADAF8F4
:1014280010004FEA41194DF071FC13A3D3E90023D2
:1014380006460F464DF03EFF10B99AF91D00A0B1BF
:1014480098F80430AB4212D098F80530AB420ED071
:1014580009A3D3E90023304639464DF03FFF18B1C0
:101468004C44637F013B63770120BDE8F08700208F
:10147800FBE700BFAFF30080666666666666EE3F10
:101488002DE9F34704460E46456827210820804A7F
:1014980059F0F3FB20463146FFF7FEFE284668F078
:1014A800CCFB002800F0BC80204668F0D9FB06463B
:1014B800034627210820774A04EB461759F0DDFB3D
:1014C8002721082097F82530734A59F0D6FB002EBB
:1014D800C0F2A68094F8E83195F804E09E4295F8A9
:1014E80015C080F29D80012204EB4E1185F824205E
:1014F8000B6A386A97F8258098420FFA8CF302D85D
:10150800387F322877D9012284F8EC21002284F828
:10151800EA8184F8EB21A87D287091F8250084F8E9
:10152800F00191F8261084F8F12184F8F21185F879
:1015380001E004EB431393F82510012684F8F61113
:1015480093F8263084F8F831002384F8F73185F8C9
:1015580002C085F82520A04605F1FF3904F1120ADA
:1015680019F8013F5F1C002E00F0868004EB43133E
:1015780018694DF0CBFB02460B46CDE9002340A38A
:10158800D3E900234DF0AAFE40B93FA3D3E90023D5
:10159800DDE900014DF084FE00286DD004EB47170B
:1015A800BB79042B8EBF02230133C3F3460388F8AB
:1015B800EC3108F10608C245D2D1EA7D04F5F57090
:1015C80004EB421393F8253084F8FC31002384F8A7
:1015D800FD31EA7085F8243094F8F22194F8EC3162
:1015E800134494F8F821C3F113039B1A84F8FE31CD
:1015F80002B0BDE8F08791F8250084F8EA0191F877
:10160800261084F8EC11002184F8EB1185F800E02D
:1016180084F8F08184F8F22184F8F1116E7088E77B
:1016280000262A7904EB421393F8251084F8EA116E
:1016380093F8263084F8EB6184F8EC312A706A79E3
:1016480004EB421393F8251084F8F01193F8263030
:1016580084F8F16184F8F2316A706A7D04EB421310
:1016680093F8251084F8F61193F8263084F8F7617A
:1016780084F8F831AA706EE704EB4717BB7996E750
:10168800666666666666EE3F9A9999999999B93F32
:1016980063440808714408088144080800000000F1
:1016A8002DE9F8432DED028B876805463846164626
:1016B8000C464DF02BFB2EA3D3E900238046894628
:1016C8004DF00CFE00283DD12BA3D3E90023404662
:1016D80049464DF0E5FDC0BBF7EE007A07EE107AFB
:1016E800AB7F87EE878A07EE903AB8EEE77AB4EEDA
:1016F800C87AF1EE10FA01D5B8EE678A6B7F607F81
:101708000122834224D0002142F018FE012204461F
:101718003146687F42F012FE044404F2D570286016
:10172800D8B107EE900AF8EE677A9FED0D7A67EE6A
:10173800887A87EE270ABDEC028B10EE103AEB6030
:10174800BDE8F8839FED078AD8E79FED078AD5E7BC
:101758003146184642F0F2FDE1E79FED040AEAE758
:1017680000007A44E4388E3F00401C460000000028
:10177800CDCCCCCCCCCCEC3F9A9999999999B93FDE
:101788002DE9F04F2DED028B90F8E83105460E4615
:10179800934689B0002B00F0238127210820964A20
:1017A80059F06BFA00226C68A1690131A16195F8C2
:1017B800E80190423DD8D4E907230A2779436427F2
:1017C800B1FBF7F1C2EB53030B4407EE903A430029
:1017D80006EE903AF8EE677AF8EEE66AF4EEE76A13
:1017E800F1EE10FA0BD507EE102A77EEE67AB8EE8E
:1017F800477A77EE277AFCEEE77AC4ED077A002776
:10180800B846BB451DD8B8F1010F00F0E680B8F125
:10181800130F40F2B9800023A3612721082095F80F
:101828000332764A09B0BDEC028BBDE8F04F59F09F
:1018380024BAA37D013205EB43131F7F01371F77BD
:10184800B7E7B6F8029096F804A0B9F1000F41D0B6
:1018580050464DF049FACDE9060148464DF044FAA4
:1018680002460B46DDE906014DF0D2FB02460B4667
:10187800002063494DF0EAF84DF082FD08EE100AA9
:10188800337818EE100A069304954DF03FFA069B3C
:10189800CDE902015B4A27210820CDE9009A59F0D9
:1018A800ECF97288337995F80312D31A0B4485F84A
:1018B800033294F82430C3B194F82530BB4214D1D4
:1018C8005AB92262272108204F4A59F0D6F9013720
:1018D800063696E7B7EE008AD2E7E3692721013397
:1018E80008204A4AE36159F0C8F9B6F802A0BAF1EB
:1018F800000FECD00023E25D05EB4211C8680B77BE
:101908000130C86096F804C00B8B4FEA4219634453
:101918009BB20B831BB191F8253085F81432F7EE92
:10192800007A05EB0902538B01285344A3EB0C03FF
:1019380077EEC87A53830DD9B2EE0E7AD2ED046AE7
:1019480027EE877ADFED327AA6EEA77ADFED316AE5
:10195800C7EE267AA944C9ED047A17EE900A4DF02D
:10196800D5F923A3D3E900234DF09AFC30B1FF2326
:1019780089F81D30C2441FFA8AF8A8E799F91D3082
:101988000133F7D10423F3E7B8F1020FD4ED0B7A52
:10199800B1EE047A15D977EE877AB3EE047AF4EECD
:1019A800477AF1EE10FA77FE277A42F21073A269AD
:1019B800C4ED0B7A9A4282BF0023C4E9063323623E
:1019C8002BE7F2EE046A77EEE67AF4EE477AF1EE68
:1019D80010FA48BFF0EE477AE7E7DFED0F7AE4E761
:1019E80009B0BDEC028BBDE8F08F00BFAFF30080FB
:1019F800666666666666EE3FC64408082C450808B3
:101A08000000F03FDC4408080D4508081C4508089C
:101A18000000AA420000C8420000000000000000C8
:101A28002DE9F84F2DED028B0546884600274FF02B
:101A380020094FF0080B446800F10806E37D237184
:101A48006371637595F8E8A1BA450CDC0FF2D0090B
:101A5800D9E9008900262F46B346B24532D8BDECF5
:101A6800028BBDE8F88FE17D424619FB01B1304693
:101A78002944FFF715FE2379D6ED037A05EB4312C7
:101A880092ED057AF4EEC77AF1EE10FA02DB327FB6
:101A980022710EE017B995F82420F9E7637905EB70
:101AA800431393ED057AF4EEC77AF1EE10FA04DBEE
:101AB800337F637101372036C4E7012FFAD195F8D7
:101AC8004430F6E7E37DB34215D097ED048A18EE6B
:101AD800100A4DF01BF942464B464DF0F5FB10B984
:101AE800BBF1000F0AD197F8243022799A4202D02C
:101AF80062799A420FD101362037AEE7637D05EB54
:101B08004313D3ED047AB4EEE78AF1EE10FAEADA79
:101B18004FF0010BEFE76375FAE700BFAFF3008002
:101B2800666666666666EE3F2DE9F047456890F89A
:101B3800E821AB690446B3EB420F2ED900EB411301
:101B480093F82480EB7D43452AD06B7D434527D00D
:101B580000EB411ADAF810004FEA41194DF0D6F8B7
:101B680011A3D3E9002306460F464DF0A3FB10B995
:101B78009AF91D0090B12B79434511D06B794345F3
:101B88000ED009A3D3E90023304639464DF0A6FB11
:101B980018B14C44637F013B63770120BDE8F087AF
:101BA8000020FBE7AFF30080666666666666EE3F78
:101BB8000348044B834202D0034B03B118477047D4
:101BC80078C6002078C6002000000000064B0749B0
:101BD800C91A891048BF0131491003D0044B0BB111
:101BE80001481847704700BF78C6002078C6002013
:101BF8000000000010B5064C237843B9FFF7D8FF62
:101C0800044B13B10448AFF300800123237010BDC7
:101C1800C65B0020000000002459080808B5054BE1
:101C28001BB105490548AFF30080BDE80840FFF740
:101C3800CDBF00BF000000009823002024590808E9
:101C4800A3F5803A704700BF174B002B08BF134B12
:101C58009D46FFF7F5FF00218B460F461348144AAF
:101C6800121A68F041FE0E4B002B00D098470D4B1E
:101C7800002B00D098470020002104000D000D48DB
:101C8800002802D00C48AFF300804EF065FA20001F
:101C980029004EF076FD4DF0CFFE00BF0000080091
:101CA80000000000000000000010002000100020CC
:101CB8009CB1002000000000000000002DE9F04366
:101CC8009BB000AF00230446F81CC7E9013359F064
:101CD8008AF918B181B2184816F02EFB6A46FB78CB
:101CE800F81CA2EBC3039D466946E84659F090F9F3
:101CF80018B181B2114816F01FFB0026FB78F5B227
:101D0800AB4210D908EBC509484607F10C0159F058
:101D180098F9FB6A0136002BF0D158F83500D9F84C
:101D280004103B1D03C33B1D03CB206020466C37CA
:101D38006160BD46BDE8F083E8D3060821D40608F3
:101D480013B56846FFF7BAFF064C009B06492360A7
:101D5800019B06486360E379A27902B0BDE81040B0
:101D680016F0FEBA7764002055D40608386D0020B6
:101D780030B597B010A859F0ACF94EF0FBFC11AD96
:101D880002461749284616F0EBFAFFF7D9FF154B1C
:101D9800BDF84020D3E90A01CDE90E01D3E90801D5
:101DA800CDE90C01D3E90601CDE90A01D3E9040123
:101DB800CDE90801D3E902010B4B0C4C01930C4B04
:101DC800CDE90601CDE9032200934FF48061204656
:101DD800084B094A029516F0D7FA204617B030BDCD
:101DE80073A1070800100020386D002087680020C4
:101DF800F9D40608406D00206CD406082DE9F04F90
:101E0800A9B080464EF0B6FC654C0FAF0246654956
:101E1800384616F0A5FAFFF793FF2378052B65D10E
:101E280001F0A6FC604ADFF8B0B1D2E90045041B16
:101E380061EB05052946204601F074FC5949024624
:101E480019A816F08DFADBE90001201845EB01010D
:101E580001F068FC554E0DF1780902465149484693
:101E680016F07EFAD6E9000101F05CFC0DF18C0A4F
:101E780002464C49504616F073FADBE90032E41882
:101E880045EB020520462946CDE90A9A4CF060FF49
:101E98000022474B4CF092FF82468B46D6E9000160
:101EA800201845EB01014CF053FF0B4602465946FA
:101EB80050464DF0ADF8CDE908013E4B1B8806931E
:101EC8003D4B059319ABCDE903733C4B4FF480614F
:101ED80002933B4B3B4A01933B4B3C4800934346A0
:101EE80016F052FA394829B0BDE8F08F01F040FCED
:101EF800374ADFF8E490D2E90056451B61EB060645
:101F08002278344914A816F02BFA3146284601F0F5
:101F180009FC2449024619A816F022FAD9E9000159
:101F280001F000FCDFF884A00DF1780B02461D4992
:101F3800584616F015FADAE90001281846EB0101AF
:101F480001F0F0FB23AB02461649184616F008FAD2
:101F5800D9E9004923AB20464946CDE90AB34CF0FC
:101F6800F7FE0022124B4CF029FFCDE90C01DAE90B
:101F78000031E41849EB0101601946EB01014CF00E
:101F8800E7FE0B460246DDE90C014DF041F8CDE9CC
:101F98000801084B1B88069319AB059314AB92E70D
:101FA800876C002073A107087810002060100020BB
:101FB800000059403C5B0020D3D50608386D00204E
:101FC800F9D40608FED40608406D00208768002072
:101FD80070100020D6D506086810002037B5604973
:101FE800012058F02DFF05465E495D4803F09EFC30
:101FF8005D4C002D00F09C804FF480615B4A2068A6
:1020080016F0C2F94EF0B6FB236802465849002084
:1020180057F00DFE4EF0AEFB22680146544816F00C
:102028008BF94FF48061534AABB2206816F0ACF9D3
:102038000020216857F0FBFD206816F07DF94FF469
:1020480080614D4B4D4A206816F09EF94EF092FB88
:10205800236802464649002057F0E9FD4EF08AFB06
:1020680022680146424816F067F9434868F0B2FC16
:10207800434A014640484FF0E7F94249404803F0D7
:1020880055FC40F2D54300934FF480613D4B3E4AE6
:10209800206816F079F94EF06DFB23680246344942
:1020A800002057F0C4FD4EF065FB22680146304819
:1020B80016F042F94FF48061344B354A206816F027
:1020C80063F94EF057FB236802462949002057F070
:1020D800AEFD4EF04FFB22680146254816F02CF95C
:1020E8002A4868F077FC2B4A014628484FF0ACF99B
:1020F8002949284803F01AFC41F2356300934FF44C
:102108008061254B254A206816F03EF94EF032FBD7
:10211800236802461649002057F089FD4EF02AFB35
:1021280022680146124816F007F9284603B030BD68
:102138004FF480610B4B1A4A206816F025F94EF0CF
:1021480019FB236802460A49284657F070FD4EF0ED
:1021580011FB22680146064816F0EEF86FE700BF4B
:10216800676400203F6400206424002048150708A5
:10217800EAD50608F2D5060852D606085FD606083C
:10218800E4230020EF6300207AD60608A1D60608CB
:10219800AED60608C4230020C7630020CAD60608A6
:1021A8002FD60608F8B5FFF719FF032202210020F1
:1021B80058F085FD514A411C0346514C106023D10B
:1021C8004FF480614F4A206816F0DEF84EF0D2FADC
:1021D800236802464C49002057F029FD4EF0CAFA00
:1021E80022680146484816F0A7F8484A4FF480612B
:1021F800206816F0C9F82168002057F018FD2068FB
:1022080016F09AF80120F8BD4FF48061404A206822
:1022180016F0BAF84EF0AEFA236802463A490020A2
:1022280057F005FD4EF0A6FA002501462268394E02
:10223800354816F081F840F2D540356058F02AFD4F
:102248000322B0800221284658F039FD324E421C44
:102258000346306016D14FF480612A4A206816F090
:1022680093F84EF087FA236802462749284657F024
:10227800DEFC4EF07FFA22680146234816F05CF82F
:10228800264AB3E74FF48061254A206816F07CF8A7
:102298004EF070FA236802461B49284657F0C7FCDF
:1022A8004EF068FA1F4F0146226817481E4C16F078
:1022B80043F841F23560256058F0ECFC33683E463F
:1022C800A08046F8043B0FCC0FC694E80F0086E8C0
:1022D8000F0041F20303FB843223BB6242F22A332C
:1022E80012484FF48C71BB85B8634FF0B1F97D6328
:1022F800F88587F8245028463D6484E7B4230020F5
:102308006424002048150708EAD50608F1D606080F
:1023180027D70608D8230020B023002057D706085F
:102328008ED7060860B30020B8230020BED7060861
:1023380073B53C4D4FF48C71E8634FF089F92886EA
:1023480005F124004EF055FF06464EF03BFF0446CB
:10235800E8B9354D009640F276334FF48061334A40
:10236800286816F011F84EF005FA2B680246304935
:10237800204657F05CFC4EF0FDF92A6801462C48CF
:1023880015F0DAFF4FF45E75284602B070BD05F10E
:1023980024014EF030FF00281CDA234D4FF45F7300
:1023A8004FF48061234A286815F0EEFF4EF0E2F9F9
:1023B8001F4902462B68002057F039FC4EF0DAF925
:1023C8002A6801461A4815F0B7FF002520464EF046
:1023D80005FFD9E720230193174B32460093214686
:1023E800002328681EF0A2FE0130EED12B680E4EA5
:1023F80000934FF480614FF46273104A306815F00F
:10240800C3FF4EF0B7F9336802460949002057F078
:102418000EFC4EF0AFF932680146054815F08CFF06
:102428003125D3E760B3002064240020D1D7060803
:10243800EAD5060811D80608B82300204BD80608A4
:102448002DE9F04385B005461C469DF830609DF89F
:102458003470002A00F08F80002978D04EF08AF975
:102468000146714815F068FF284615F065FF002CF5
:1024780040F09A800124002E3CD02B464FF4806116
:102488006A4A6B4815F080FF20230193694BDFF8F7
:10249800D091009386B2002332466549D9F80000EE
:1024A8001EF044FE013040F0838040F2D543029391
:1024B800614B03960193D9F80030DFF88C810093C3
:1024C8004FF4806140F2BA335C4AD8F8000015F046
:1024D8005BFF4EF04FF95A490246D8F80030002009
:1024E80057F0A5FB4EF046F9D8F8002001465448AD
:1024F80015F022FF3FB32B464FF480614B4A5148F9
:1025080015F042FF83B2B3F58C7F54D94FF48C7326
:102518004D4D80B20193009040F2C7334FF4806173
:102528004A4A286815F030FF4EF024F9444902461B
:102538002B68002057F07BFB4EF01CF92A680146F7
:102548003F4815F0F9FE204605B0BDE8F08315F0C8
:10255800F3FE002C8ED00124DFF8EC802A464FF4DD
:102568008061D8F8000015F00FFFD8F8001000209F
:1025780057F05DFB16E0002B3FF47DAFB1B1144678
:10258800DFF8C4802A464FF48061D8F8000015F0BF
:10259800FBFE4EF0EFF8D8F800300246284900203C
:1025A80057F045FB013466E70124E9E70C46D3E719
:1025B8000134E4B29EE72348FFF7BAFE064610B995
:1025C8000134E4B2BFE7204D4FF48061204A286807
:1025D80015F0DAFE4EF0CEF82B68024618490020B6
:1025E80057F025FB4EF0C6F82A680146144815F046
:1025F800A3FE41F235630293164BB6B20193164B14
:1026080003961B68154A00934FF4806140F2CD335E
:10261800286815F0B9FE2968002057F008FB2868DB
:1026280015F08AFE8FE700BF79D8060873A107085E
:10263800C75F0020D8230020EF6300207FD806085A
:10264800EAD50608C75B002064240020DDD8060808
:1026580048150708C7630020B023002049D9060899
:10266800B42300202DE9F74300F0E4FFBF4DC04834
:1026780015F062FEBF4EC04AC049C148C14C15F0B2
:102688006FFE64212846C04BBC4A15F07DFE0195BB
:1026980000964FF48061BA4BBC4A206815F074FE6E
:1026A8004EF068F823680246B949002057F0BFFA8F
:1026B8004EF060F822680146B54815F03DFEB54B6E
:1026C8003221B54A0093B548B54B15F05DFE4FF47D
:1026D8008061AB4BB34A206815F056FE4EF04AF8BD
:1026E80023680246AA49002057F0A1FA4EF042F8A2
:1026F80022680146A64815F01FFE33464FF4806154
:10270800A84A206815F040FE4EF034F823680246C7
:102718009F49002057F08BFA4EF02CF822680146AA
:102728009B4815F009FE2B464FF480619D4A2068AE
:1027380015F02AFE4EF01EF8236802469449002040
:1027480057F075FA4EF016F822680146904815F0D1
:10275800F3FD4FF48061914B924A206815F014FE06
:102768004EF008F8236802468949002057F05FFABE
:102778004EF000F822680146854815F0DDFD01217C
:10278800042000F011FD01222220114600F034FD42
:1027980001220B20114600F02FFD012225201146B1
:1027A80000F02AFD01221D20114600F025FD7E4B78
:1027B8004FF48061714A7D4815F0E6FD4FF4806161
:1027C8007B4A206815F0E0FD4DF0D4FF23680246EF
:1027D8006F49002057F02BFA4DF0CCFF22680146D4
:1027E8006B4815F0A9FD4FF48061724B724A20685E
:1027F80015F0CAFD4DF0BEFF23680246644900206B
:1028080057F015FA4DF0B6FF22680146604815F0FA
:1028180093FD4FF48061674B684A206815F0B4FD5A
:102828004DF0A8FF236802465949002057F0FFF9E8
:102838004DF0A0FF624D01462268554815F07CFD19
:10284800284658F0B8FBEB79AA795E495E4815F03E
:1028580087FD4FF480615C4B5C4A206815F094FD5D
:102868004DF088FF236802464949002057F0DFF9F8
:102878004DF080FF22680146454815F05DFD54493A
:10288800544815F06DFD4FF48061524B524A206850
:1028980015F07AFD4DF06EFF236802463C49002092
:1028A80057F0C5F94DF066FF22680146384815F023
:1028B80043FD4A498B2002F0DFFF00F059FF484BE7
:1028C800484FC3E9000158F065FB4FF48061464A60
:1028D800206815F059FD4DF04DFF236802462C493C
:1028E800002057F0A4F94DF045FF2268014628481A
:1028F80015F022FD4DF0B2FF0121042000F054FC38
:1029080001222220114600F077FC01220B201146FB
:1029180000F072FC01222520114600F06DFC012216
:10292800012411461D2000F067FCFFF73BFC00F076
:10293800C5FC00F047FF2D492D4800F0B9FA1A48A8
:10294800FFF716FA234622462146CDE90044FFF751
:1029580077FDDFF8A0803B78052B71D100F0F0FD02
:102968004FF0010901F000F846E000BFD46C0020E8
:1029780048150708DBD90608F9D4060873A1070823
:10298800486D002064240020B3D90608D1D9060870
:10299800EAD5060805DA0608F0D90608A26C002070
:1029A800E4D906084ED606081011070887640020E7
:1029B8000EDA060825DA060835DA06084DDA0608BA
:1029C8007F64002055D40608406D002065DA0608AB
:1029D80074DA0608896C00208CDA0608552A000883
:1029E80080100020876C00209CDA060817640020FD
:1029F8003F64002008BA002000F0BAFE0023B8F8AF
:102A0800002006460D464CF069FE1A430BD14CB126
:102A18000D48FFF7F3F90123CDE900991A46194645
:102A2800FFF70EFD0024304629463C2200234CF0D7
:102A380055FE013A1A4308BF01244DF01DFF8AE7ED
:102A48004FF00009D8E700BF101107082DE9FF472C
:102A58008268C84DD2B2052A2A7000F2F381C64EA8
:102A680033889A4200F0EE81C44C00924FF48061A2
:102A7800C34A206815F088FC4DF07CFE23680246A6
:102A8800C049002057F0D3F84DF074FE2268014683
:102A9800BC4815F051FC29784B1E042B0DD8BA48B8
:102AA80015F04AFCB94B1F6838464EF006FE642004
:102AB8000CF0F2FA38464EF012FE2F787B1E042BEB
:102AC80035D800F055FE02460B46B14901EBC70761
:102AD800C7E900232B785F1E51F8332001EBC70CA0
:102AE80001EBC30051F837104068DCF80470521A43
:102AF80060EB0701A74800EBC30740F83320796073
:102B0800CDE900214FF48061A34A206815F03CFC10
:102B18004DF030FE9B4902462368002057F087F8A5
:102B28004DF028FE22680146964815F005FC2B78E2
:102B3800052B40F0A080954BDFF8949218684EF072
:102B4800BCFD964815F0F8FB954815F0F5FB95483F
:102B580015F0F2FB2A788E4B934803EBC20153F829
:102B6800323002884968013292B2012AC9E900313B
:102B78008E4F028040F06981CDE900318C4A4FF4D4
:102B88008061206815F000FC4DF0F4FD23680246D2
:102B98007C49002057F04BF84DF0ECFD22680146C7
:102BA800784815F0C9FB00231A46DFF83082C7E9D8
:102BB8000032404667F00EFF7E4B87B295F80090D2
:102BC80018804DF0D7FDC7F580614B467A4A0090D2
:102BD80008EB070015F0D8FB276895F800804DF042
:102BE800C9FD43464FF48061734A0090384615F09A
:102BF800CBFB4DF0BFFD236802466249002057F029
:102C080016F84DF0B7FD226801465E4815F094FBB2
:102C180002A8FFF753F8694F029B69493B60039B81
:102C280068487B60FB79BA7915F09AFB664B1B689C
:102C38004BB16648FFF79CF801231A461946CDE9BF
:102C48000033FFF7FDFB0121042000F0ADFA01225B
:102C58002220114600F0D0FA01220B20114600F084
:102C6800CBFA01222520114600F0C6FA01221D20C8
:102C7800114600F0C1FA3388052B40F0E180444F3B
:102C88004FF00009BA46B84600F072FD2A7809F1FB
:102C980001094A45EAE80201F6DA0020DFF8F4C043
:102CA8003B46B968D3F80CE00130D3E90093B1EBA7
:102CB80009016EEB03034CF8081F824207F108076D
:102CC800CCF80430ECDA08EBC20158F83230404F47
:102CD8004A68DFF80C81D7E90001C8E900321B1AFD
:102CE80062EB0102CDE900324FF48061394A206875
:102CF80015F04AFB4DF03EFD2368024621490020AD
:102D080056F095FF4DF036FD226801461D4815F036
:102D180013FBD8E90032DFF8CCC0DFF8C080DCE96B
:102D280000011B1842EB0102D7E900105B1A62EBA5
:102D380000024046CCE9003267F04CFE1D4B87B2DA
:102D480095F8009018804DF015FDC7F580614B4649
:102D5800214A009008EB070015F016FB276895F844
:102D680000804DF007FD43464FF480611A4A0090F9
:102D7800384639E0876C0020385B00206424002046
:102D8800B6DA0608EAD50608CBDA0608DCEA060849
:102D98003010002000100020DDDA060806DB0608E7
:102DA80031DB060847DB06083C5B0020601000208A
:102DB80073DB06083A5B0020B0DB06087764002066
:102DC80055D40608386D0020B423002010110708D8
:102DD80078100020BBDB0608D8DB060887640020D3
:102DE800701000206810002015F0CEFA4DF0C2FCDB
:102DF800236802462A49002056F019FF4DF0BAFC14
:102E0800226801240146264815F096FA254B2146EA
:102E180004201C7000F0C8F922462146222000F048
:102E2800EBF9224621460B2000F0E6F9224621461E
:102E3800252000F0E1F9224621461D2000F0DCF9AA
:102E48002B78338004B0BDE8F087DFF86080D8E9DC
:102E580000021B1A61EB0201CDE90031124A4FF45E
:102E68008061206815F090FA4DF084FC23680246D2
:102E78000B49002056F0DBFE4DF07CFC2268014631
:102E8800074815F059FAD7E90001D9E900321B18AB
:102E980042EB0102D8E900105B1A62EB000284E6FB
:102EA800EAD50608886C002094DB0608701000201C
:102EB80070B50D4604461A4E304615F03DFA1948CD
:102EC80015F03AFA41F235622946174815F034FAF6
:102ED800164815F031FA2146154815F02DFA15480F
:102EE80015F02AFA2146144815F026FA02F0E4F8FB
:102EF800124815F021FA124815F01EFA114815F07B
:102F08001BFA114815F018FA104815F015FA104870
:102F180015F012FA3046BDE8704015F00DBA00BF42
:102F280048150708E3DB060817DC060838DC06083E
:102F380049DC060889DC06089DDC0608F5DC06087D
:102F48004BDD06089BDD0608D7DD060831DE0608DE
:102F58008CDE06081FB50446124815F0EDF900F09E
:102F6800A5FD02A800F0C8FDB0B19DF80B304021C6
:102F78000D4A00930D489DF80A3015F005FA9DF8A2
:102F88000B209DF80A10084815F0D6F92146074885
:102F98004DF0DCFB04B010BD4021054A034815F094
:102FA800F3F9F3E7CADE0608E8DE0608506D0020EC
:102FB800FEDE06081FB50446124815F0BDF900F0FC
:102FC80075FD02A800F098FDB0B19DF809304021C8
:102FD8000D4A00930D489DF8083015F0D5F99DF875
:102FE80009209DF80810084815F0A6F92146074859
:102FF8004DF0ACFB04B010BD4021054A034815F064
:10300800C3F9F3E70DDF06082BDF0608506D002033
:10301800FEDE060810B586B00446184815F08CF98F
:1030280000F044FD04A800F067FD08B39DF81130D6
:10303800402102939DF81030114A01939DF81330F6
:10304800104800939DF8123015F09EF99DF8113044
:103058009DF8132000939DF812109DF810300A482F
:1030680015F06AF9214607484DF070FB06B010BD0F
:103078004021064A034815F087F9F3E73FDF0608C1
:103088005DDF0608506D002084DF0608FEDE0608B6
:1030980070B588B001241422002103A867F024FC2D
:1030A8001F4B204E204D0093204B684601960295F9
:1030B80004938DF80C4001F0B5FF30B140F21B319C
:1030C8001B4B1C4A1C484CF099FC1C4B6846CDE92C
:1030D80000361B4B029504938DF80C4001F0A2FFBB
:1030E80020B14FF44971124B124AEBE7154B684671
:1030F8000093154B8DF80C40CDE90135134B049323
:1031080001F090FF20B140F22D31094B094AD9E76F
:103118001E2203210E4815F00FF9032008B070BDD8
:10312800ACDF06086E420808B2DF06085D2F00080B
:10313800B9DF060853E00608F9DF060807E00608C5
:10314800BD2F00080DE0060817E006081D3000082E
:103158001CE0060800B58BB0FFF79AFF202200217B
:1031680002A867F0C1FB0B4B41F288320193182388
:103178000021CDE90623084801AA06F0A1FB28B9D9
:103188005721064B064A07484CF038FC0BB05DF84F
:1031980004FB00BF6BE006086D26000874E0060813
:1031A80095E0060887E006082DE9F04107468020EB
:1031B800884651F022F80024054605EB440305F83B
:1031C80014400134232C5F70F7D1294620461DF0A6
:1031D80021FC0646B8F1000F05D003463A462146C1
:1031E800044815F0A9F8284651F019F83046BDE80A
:1031F800F08100BF9EE00608F7B58DF804008DF851
:10320800051005460E46012001A917461DF002FCCF
:1032180004462FB1034632462946034815F08CF878
:10322800204603B0F0BD00BFC9E0060810B583789A
:103238000446852B0CD1164B164A174918681EF000
:103248000FF8164B1860164802F0E2FB154B186091
:10325800A378832B1BD1A068134B104C18602368EC
:10326800984214D140F2CF420023104957F05DFD37
:1032780080B2002814BF012200220D4B18800D4B8C
:103288001A7004D1206857F03AFD0B4B186010BD36
:10329800B0B30020B4B3002000240020ACB3002059
:1032A8000C240020FC230020A8B30020916D0020EE
:1032B8003E5B0020906D0020A4B300202DE9F3416F
:1032C800884C4FF48061884A206815F05DF84DF00D
:1032D80051FA236802468549002056F0A8FC4DF0B3
:1032E80049FA22680146814815F026F80222012190
:1032F800002057F0E4FC7E4E03464FF480617D4A7F
:103308003060206815F040F84DF034FA2368024622
:103318007649002056F08BFC4DF02CFA22680146C5
:10332800724815F009F832687349744B7448B2F161
:10333800FF3F08BF0B46734914F0FEFF35686A1C4F
:103348000CD167F0A1FE4FF00AF82A4601466E48F4
:1033580014F0F2FF67F098FE4FF006F8DFF8BC8132
:103368000023424642F80C3B684B03F11007154610
:1033780018685968083303C5BB422A46F7D1644F19
:10338800644D388857F086FC634BA8F804001A6827
:10339800624930681DF09CFE5749584B0246B0F10F
:1033A800FF3F08BF0B4628605D49554814F0C4FF2D
:1033B800D5F80080B8F1FF3F0CD167F065FE4EF0FC
:1033C800CEFF42460146504814F0B6FF67F05CFE57
:1033D8004EF0CAFF5349852002F04EFA4649474B42
:1033E8000246B0F1FF3F08BF0B4628604E494448EB
:1033F80014F0A2FFD5F80080B8F1FF3F0CD167F0B8
:1034080043FE4EF0ACFF424601463F4814F094FF9D
:1034180067F03AFE4EF0A8FF4249832002F02CFAEA
:103428003549364B0246B0F1FF3F08BF0B462860CE
:103438003E49334814F080FFD5F80080B8F1FF3FCB
:103448000CD167F021FE4EF08AFF424601462E4815
:1034580014F072FF67F018FE4EF086FF0021306806
:1034680057F08FFC2449254B2860B0F1FF3F08BF77
:103478000B4602462E49224814F05EFF2D686B1C4D
:103488000CD167F001FE4EF06AFF2A4601461E483D
:1034980014F052FF67F0F8FD4EF066FF254802F081
:1034A800B7FA254D3A882860009203464FF48061A8
:1034B800224A206814F068FF4DF05CF92368024640
:1034C8000A49002056F0B3FB4DF054F92268014632
:1034D800064814F031FF286802B0BDE8F0414EF00C
:1034E80041B800BF64240020EEE00608EAD50608CB
:1034F800B0B3002011E1060828310808A0A9070880
:103508003CE1060828E106084AE106087A67070848
:103518000ABA0020A4B30020B4B30020202400205D
:1035280059E10608353200086BE10608C5E10608CE
:1035380019E206082C240020FC2300202DE20608AE
:103548002DE9FF472B4C2668C6B92B4D4FF48061F7
:103558002A4A286814F018FF4DF00CF92B68024627
:103568002749304656F063FB4DF004F92A680146B6
:10357800234814F0E1FE236801332360214F3B7890
:10358800A3B300252368DFF888900133DFF884A00F
:103598002360B9F800301C480AF8035002F038FAE2
:1035A800DFF87480144EC8F80000CDF808A0B9F808
:1035B80000304FF48061CDE90003144A2368306875
:1035C80014F0E2FE4DF0D6F8336802460C4928465E
:1035D80056F02DFB4DF0CEF832680146084814F03D
:1035E800ABFED8F800004DF0BDFF3D7004B0BDE85B
:1035F800F08700BFF82300206424002060E206085A
:10360800EAD50608906D00200C24002076E2060812
:103618003E5B0020916D0020FC230020044AD2E983
:103628000031013341F10001C2E90031704700BFA8
:103638008810002013B5174806F0C8F8164B186014
:1036480028B96821154B164A16484CF0D7F90020BE
:103658000021154B154A1A60154BC3E900010BF000
:10366800E1FC044630B10146124814F065FE2046DC
:1036780002B010BD68F0BCFF23460146CDE9004406
:103688000D4A0E4869F02AFE04460028EFD001468C
:103698000B48EAE708E40608402400209AE20608F6
:1036A800E2E30608B7E206086424002073720020EB
:1036B80088100020CAE206082536000844240020A5
:1036C800F5E206082DE9F84316469946144A002300
:1036D80005460C464CF002F8214630803C2228462C
:1036E80000234BF0FBFF002380460F461646284672
:1036F8004FF4616221464BF0F1FF182200234BF092
:10370800EDFF404689F8002039463C2200234BF063
:10371800E5FF089B00201A70099B1E70BDE8F8831E
:103728008051010010B586B00DF11503019305AB6A
:1037380000930DF116020DF11303FFF7C3FF9DF877
:103748001530094C02939DF81430122101939DF80D
:10375800133020460093054ABDF8163014F014FEC5
:10376800204606B010BD00BF617200202CE3060899
:10377800D0B50D4C4FF0FF31206869F08FF928B1B2
:103788004E210A4B0A4A0B484CF038F90A4B20687C
:10379800D3E9006769F0B6F918B15421074B084A14
:1037A800F1E730463946D0BD402400203FE3060803
:1037B800C5E30608B7E20608881000207BE3060880
:1037C800A8E30608F7B5544C4FF48061534A2068C3
:1037D80014F0DAFD4CF0CEFF236802465049002071
:1037E80056F025FA4CF0C6FF226801464C4814F002
:1037F800A3FD03224B49002057F061FA4A4D0346C6
:103808004FF48061494A2860206814F0BDFD4CF0EF
:10381800B1FF236802464249002056F008FA4CF0EE
:10382800A9FF226801463E4814F086FD2A684049EF
:10383800404B4148B2F1FF3F08BF0B463F4914F0E7
:103848007BFD2E68721C0CD167F01EFC4EF087FDC4
:10385800324601463A4814F06FFD67F015FC4EF009
:1038680083FD384F00233A4642F80C3B364B03F1B0
:10387800100C164618685968083303C66345324663
:10388800F7D1324E308857F005FA314B2D491A6876
:10389800B88028681DF01CFC2E4D2549254B286052
:1038A800B0F1FF3F08BF0B4602462B49224814F0EF
:1038B80043FD2D686B1C0CD167F0E6FB4EF04FFD05
:1038C8002A4601461E4814F037FD67F0DDFB4EF02E
:1038D8004BFD224802F09CF8214D32882860009266
:1038E80003464FF480611F4A206814F04DFD4CF0E8
:1038F80041FF236802460A49002056F098F94CF027
:1039080039FF22680146064814F016FD286803B0FE
:10391800BDE8F0404DF026BE6424002018E40608F7
:10392800EAD5060802000100BCB3002041E40608FD
:1039380028310808A0A907083CE1060858E4060849
:103948004AE10608902400207A6707080CBA00208C
:10395800C0B30020B8B300206CE406089C24002003
:103968006C2400207EE406082DE9F04385B0314C34
:103978002668C6B9304D4FF48061304A286814F083
:1039880003FD4CF0F7FE2B6802462D49304656F0F1
:103998004EF94CF0EFFE2A680146294814F0CCFC99
:1039A800236801332360274B274D284E284801936D
:1039B8000095002340F2CF42314600681DF0FAFB23
:1039C800DFF894800028C8F800002FDD002723685E
:1039D8003754013305F10C00236002F019F8DFF8C1
:1039E8007C90154DC9F800000296D8F800304FF4C5
:1039F8008061CDE90003174A2368286814F0C4FCE5
:103A08004CF0B8FE2B6802460D49384656F00FF9BF
:103A18004CF0B0FE2A680146094814F08DFCD9F82C
:103A2800000005B0BDE8F0434DF09CBD05B0BDE811
:103A3800F08300BF6824002064240020A6E4060860
:103A4800EAD50608C0B30020702400207376002051
:103A5800BCB30020BEE40608B8B300206C240020E4
:103A6800044A054B10685B68012838BF0120B3FB86
:103A7800F0F07047B0240020001000E070B5044654
:103A8800FFF7EEFF0546084ED6F8A430C3F340030F
:103A98009C4201D1012070BDFFF7E2FF401B884224
:103AA800F2D90020F7E700BF00C003500D4AD2F852
:103AB800FC3043F08073C2F8FC3000220A4B5A6095
:103AC8001A6842F001021A60084B094A1B68B3FBE6
:103AD800F2F3084A1360012302221946104605F042
:103AE800B3BB00BF00ED00E0001000E0D8B5002037
:103AF80040420F00B02400202DE9F04F85B001238B
:103B08000222002405461946104602948DF80C40FE
:103B1800A24605F099FB002304220121022005F0AA
:103B280093FB0222454B44F61F66C3F8A020FFF71B
:103B380097FF0146FFF794FF431AB34224D90123A4
:103B480004221946022005F07FFBCDF804A0019B52
:103B58004F2B1BDD012302221946104605F074FB8A
:103B680078210020FFF78AFFA8B90134032C5FD021
:103B7800334ACDF800A003E000BF009B0133009357
:103B8800009B9342F8DDC6E700BFD3E700BF019B67
:103B980001330193DBE70120FFF770FF0028E4D031
:103BA8000026B34602AF4FF0070807F801BB5021C3
:103BB8000020FFF763FF0028D7D078210120FFF706
:103BC8005DFF0028D1D0FFF74BFF4FF49671814677
:103BD8000020FFF753FF01460028C6D0FFF740FF3B
:103BE800A0EB0900322807D9012303FA08F217F8D5
:103BF800013C134307F8013CB8F10108D7D201365C
:103C0800052ED0D19DF808009DF809709DF80A206E
:103C18009DF80B3028703844AA7002449DF80C6057
:103C2800EB701344DBB29E426F702E7101D09CE79B
:103C38000021084605B0BDE8F08F00BF00E0035042
:103C48003F0D030010B52A4C04F038FE04F0D0FFF5
:103C5800236F012023F0070343F00303236704F0D5
:103C6800F1FF244B01219B6A3E20DB015EBF4FF42C
:103C78008032214B9A62D4F8203123F0070343F0B5
:103C88000203C4F82031D4F8283123F0070343F0A5
:103C98000203C4F82831D4F8403123F0030343F079
:103CA8000203C4F84031D4F8603123F0030343F031
:103CB8000203C4F8603104F047FBD4F84032002016
:103CC80023F0030343F00203C4F84032D4F800326F
:103CD80023F0070343F00203C4F80032D4F8083293
:103CE80023F0070343F00203C4F8083210BD00BFF5
:103CF800008000500040005A0060005A064B1B68C4
:103D08001A7A022A04D812B11B68044A1360704751
:103D1800032AF9D0704700BFD4B30020B424002090
:103D280030B58FB0174D06AC0FCD0FC495E80F0016
:103D380084E80F000E2200210DF10A0066F0D4FD80
:103D48004FF48012104B6946CDE900230B238DF800
:103D580008300C238DF809300C4B06AA0393202356
:103D6800049340F201130A48ADF81430094B0AF0E5
:103D7800CBFA044600214FF4E1304DF04CFC2046CC
:103D88000FB030BDBCEA06083C00015B437B002055
:103D980078250020B824002001484FF0CCBF00BF90
:103DA8007825002001484DF085BC00BFDCEA0608F4
:103DB800F8B50C46064611462046154657F040F819
:103DC8000746284601F024FE033C012C054604D989
:103DD80047B13146064814F0AFFA2846BDE8F84026
:103DE8004DF0C0BB02463146024814F0A5FAF4E78C
:103DF80039F1060859F106080121024B814018687B
:103E080068F098BDD025002008B5074B4FF0FF316A
:103E1800186868F043FE30B14FF45C71034B044AF4
:103E280004484BF0EBFD08BDD425002066F10608D8
:103E3800B5F506089BF1060808B5064B186868F042
:103E480061FE30B140F27631034B044A04484BF02E
:103E5800D5FD08BDD425002000F206089CF506080B
:103E68009BF1060873B5002300220546CDE900231F
:103E780068F0A4FB6A4668F0D3FB00982D4A0199C4
:103E8800D2E90232C01A61EB02012B4ACDE90001E6
:103E9800FCF746FA284801F0E3FD284B002814BF38
:103EA80006461E466B68002B41D1AC6814F001042D
:103EB8000DD00121224A2348FFF77AFF204801F05C
:103EC800A7FD3146044602461F4814F035FAAB6890
:103ED8009A070DD503211D4A1D48FFF769FF1B48A6
:103EE80001F096FD3146044602461A4814F024FAB9
:103EF800AB685B070DD50421174A1848FFF758FF30
:103F0800154801F085FD314604460246144814F070
:103F180013FA20464DF026FB30464DF023FB6A6825
:103F28001AB11049104814F007FA02B070BD002405
:103F3800EFE700BFA0100020901000201011070824
:103F4800747B002026F206082DF20608947B0020D8
:103F58004DF2060859F20608A47B002081F20608F3
:103F68008CF206085CF70608B6F20608F7B50022D8
:103F78000023CDE9002344680646344D64B1214648
:103F8800334814F0D9F90120FFF736FF01212868DA
:103F980068F009FD03B0F0BD502221462D4866F0B7
:103FA800A3FC2D4814F0C8F901212C4A2C48FFF72E
:103FB800FFFE2146274A2B48FFF7FAFE02212A4A2C
:103FC8002A48FFF7F5FE0321294A2A48FFF7F0FEA1
:103FD800294A04212948FFF7EBFE68F0EFFA6A4600
:103FE80068F01EFBDDE90017254BD3E908208A1885
:103FF80047EB000C9868C3E90017121AD868C3E9A0
:1040080002176CEB0000C3E908209A6A1D480132C8
:104018009A62D3E90623891A67EB0303CDE90013F3
:104028004FF47A73B1FBF3F114F086F92046FFF7E9
:10403800E3FE0221286868F0B6FC7268002AA9D05D
:104048001149124814F078F9A4E700BFD0250020E0
:10405800D0F20608647B0020F2F20608747B002088
:1040680026F20608FFF20608847B00200AF30608F9
:10407800947B002018F30608A47B002027F3060889
:10408800A010002038F306083FF70608B6F2060825
:10409800F7B50023002205461548CDE9002314F0A2
:1040A8004BF968F08BFA6A4668F0BAFADDE9001055
:1040B800104BD3E904248A18D3E9067640EB0404AC
:1040C800D21B64EB0604C3E90424C3E90010C3E966
:1040D80006106A681AB10849084814F02DF9012039
:1040E800FFF78AFE0022064B1A7003B0F0BD00BF2E
:1040F80041F30608A01000201FF70608B6F20608CC
:10410800637B002010B50F490446A1F1280056F042
:104118004EFE18B90C490D4814F00EF90220FFF7AD
:104128006BFE0120FFF768FE094B0121186868F053
:104138003AFC62682AB1BDE810400649064814F006
:10414800FBB810BDC02500209825002051F30608B3
:10415800D0250020FCF60608B6F20608416801489A
:1041680014F0EAB878F3060810B50B4B04468068DB
:104178001870C0B201F062FC014618B1A268074885
:1041880014F0DAF862682AB1BDE81040044905481D
:1041980014F0D2B810BD00BF637B0020A5F3060859
:1041A800DEF60608B6F2060842681AB10249034864
:1041B80014F0C2B8704700BFC5F60608B6F2060884
:1041C80042681AB10249034814F0B6B8704700BFF4
:1041D800A3F60608B6F2060842681AB1024903486F
:1041E80014F0AAB8704700BF85F60608B6F20608AC
:1041F80042681AB10249034814F09EB8704700BFDC
:104208006DF60608B6F2060842681AB10249034874
:1042180014F092B8704700BF42F60608B6F20608D6
:1042280042681AB10249034814F086B8704700BFC3
:104238001FF60608B6F2060842681AB10249034892
:1042480014F07AB8704700BF07F60608B6F20608F9
:1042580008B50C4805F0BAFA0B4B186030B940F2B3
:10426800B7110A4B0A4A0B484BF0C8FB0A4805F03D
:1042780073FA0A4B186020B94FF4DD71084B044AF1
:10428800F1E708BDB0F70608D4250020BDF30608FD
:10429800F0F506089BF10608A0F70608D0250020CF
:1042A800D3F3060808B50B46014603480322006805
:1042B80068F097FBC00F08BDD025002030B5AFB01F
:1042C800002300228DF807300023CDE90223FFF7F1
:1042D8009BFD38225A495B4866F06FFB0DF10700D9
:1042E80056F044FE024618B15749584814F024F8CD
:1042F8009DF8071031B1564814F01EF8FFF79CFDE1
:104308002FB030BD4F4CA22205A866F0EDFA94F804
:10431800210001F099FB054694F8240056F0AFFE01
:10432800014618B14B4814F007F8E7E72946A222DE
:1043380005A866F042FB022305A88DF8803056F0E8
:10434800B1FE014630B1444813F0F6FF0520FFF7EF
:1043580053FDD3E7B4F9220056F0D8FD014620B149
:104368003E4813F0E9FF0620F1E73D4856F0CCFE41
:10437800014608B13B48D6E73B4B13F8012B0AB975
:1043880089B203E00131B1F5006FF6D1013189B28C
:104398000220354A56F075FD014628B9334B13F80B
:1043A800012B32B989B208E0314813F0C5FF0B2060
:1043B800CDE70131B1F5006FF1D1013189B20620A5
:1043C8002A4A56F075FD014628B92A4B13F8012BE5
:1043D80032B989B208E0284813F0AEFF0C20B6E7DE
:1043E8000131B1F5006FF1D1013189B20120214AC3
:1043F80056F075FD014620B1204813F09DFF0D20B1
:10440800A5E71F49A1F1280056F0D1FC044680B960
:1044180068F0D4F802AA68F003F9DDE90201194B43
:10442800C3E90001C3E90201C3E9060105491648C9
:1044380079E70420FFF7E0FC2146144873E700BF42
:10444800C0F7060898250020CEF50608B6F206083B
:10445800EBF3060816F4060840F4060874F4060898
:1044680019F106089BF40608F4EA060871ED060837
:10447800CAF4060824F0060800F5060835F506080B
:10448800C0250020A01000206AF5060881F506085E
:1044980010B5FFF7B9FC034B1C78FFF7CDFC20469D
:1044A80010BD00BF637B0020402906D1C378202BB4
:1044B80008D005D813F0EF0F04D04FF0FF30704745
:1044C800302BFAD18078A528F7D8872806D85F2816
:1044D80002D013D804280AD800207047094B783036
:1044E800C0B2C34003F00103013B58B270474138E2
:1044F80004284FF0FF3098BF0020704780F08000FC
:104508000628F6E7B100003F2DE9F04F89B00026F4
:104518000F46154604469846149B9DF84CA0CDE9D5
:1045280006320390059000EB0209079B23B9079513
:10453800002E45D100264CE0BAF1080F069B2CD17D
:10454800FF2B26D89D42059A23D31A44944220D89B
:104558004A451ED85A1C2146164405A82A464CF03E
:104568007BFD07900028E2D0059B1B781909DED156
:104578002146069305A801234CF06EFD07AB079072
:10458800009322462B4605A906A84CF073FD002887
:10459800CBD0002009B0BDE8F08FBAF10B0FCFD017
:1045A800BAF10F0FCCD0BAF1140FC9D0BAF1110F6C
:1045B80001D1022BC5E7BAF1040FC3D1082BC0E71C
:1045C800013EB7D0FB68B0B29847C8F80000002891
:1045D800DFD0129BAAF1040A1E800123D8F80070CC
:1045E8005FFA8AFBD8F80020B91AB14201DA0799B4
:1045F80009B90398CEE76BB90123234903FA0BF3F2
:104608000B4204D113F0900F03D02F2300E0262390
:104618003B700137DDF85090BA1A4A44B242B8DC10
:10462800A9450399B5D801EB09039C42B1D8621991
:104638009342AED84A46384666F0BFF94B462A46FA
:10464800214603A84CF008FD034607904F44039801
:10465800002B9FD003785FEA13199BD10DF1480A0C
:104668004AF8083F2146012303A84CF0F5FC07ABA4
:104678000790009322462B46504603A94CF0FAFCBB
:104688004B460028AED084E7012801002DE9F04F01
:104698008BB081460F461D46164622B90024204697
:1046A8000BB0BDE8F08F0329F8D90028F6D04CF0FC
:1046B80029FD04460028F1D03278314622F03F0324
:1046C8002B70737802F03002C270837073883A4698
:1046D8005BBA0381331D069306A800234CF0BCFC8B
:1046E8003278079002F00F022270CAB1082A6DD8FA
:1046F8002369002B6AD19742069967D38B189E428B
:1047080064D8F019834261D848464CF03BFD2061DB
:1047180000285BD03A463146237806A84CF09CFC2A
:104728004FF0000B069BDFF8BCA39B1BFB1A0793FB
:10473800DDE90632002A00F0D0811A78FF2A0FD16D
:104748009A1BBA420ADA1A78FF2A3FD101339E1B14
:10475800BF1BBFB2A781002F38D0A361002336E06A
:1047680002F00F03120931460893099201233A46D1
:1047780006A84CF071FC07AD07903B463246009501
:1047880006A909A84CF076FC00BB099B03EB0B08B3
:104798001FFA88F8434519D8C34517D83B4632460F
:1047A800009506A908A8CDF824804CF063FC68B9E8
:1047B800B8F11C0F0DD8B8F1020F07D92AFA08F37F
:1047C800DB070CD4DDE90725954215D90123637071
:1047D80065E7B8F1230F02D0B8F13C0FF6D12146B6
:1047E80048464CF099FC0028F0D0DDE90725AA429C
:1047F800ECD3B8F1230F4BD8B8F1020FE6D9A8F1E2
:104808000303202BE2D801A151F823F077490008CF
:1048180045490008D5470008214A0008CB49000847
:10482800A5490008D5470008D5470008074A0008E9
:10483800C3480008D5470008E9480008434A00086B
:10484800D5470008994A0008D5470008D547000809
:10485800ED490008D5470008D5470008554A000823
:10486800D5470008D5470008D5470008774A00080B
:10487800BB4A0008D5470008D5470008D5470008B7
:10488800D5470008D5470008D54700080149000862
:10489800B8F13C0F9AD1042D98D8D4F81CB09BF8E5
:1048A8000130002B92D1012329468BF8013006A84C
:1048B8004CF0C4FBCBF8180009E0022D86D86368D9
:1048C800013383D1294606A84CF0B8FB6060069BEB
:1048D8009B1B9F42FFF47AAFFB1AC346079327E757
:1048E800042D3FF673AF294606A8D4F81CB04CF047
:1048F800A5FBCBF81400EAE740F209436A1E9A4286
:104908003FF664AFD4F81CB0DBF83030002B7FF4EE
:104918005DAF2A4648460699ABF804504CF032FC85
:10492800E369CBF830001B6B002B3FF44FAF2B46ED
:104938003A46314606A84CF08FFBC8E7E369596B45
:1049480000297FF443AF042101910DF11601009174
:104958000698494602953433FFF7D6FD069000289D
:104968003FF434AFE369BDF816201A70AFE76B1E49
:10497800FE2B3FF62BAFD4F81CB0DBF83830002BF9
:104988007FF424AF2A4648460699ABF806504CF007
:10499800F9FBE369CBF838009B6BC5E7E369D96B92
:1049A80000297FF413AF082101915918029500914D
:1049B8003C3349460698FFF7A7FD0690002886D1A4
:1049C80004E7022D3FF602AFD4F81CB0DBF8203024
:1049D80001337FF4FBAE294606A84CF02FFBCBF839
:1049E800200074E7E369196C00297FF4EFAE142105
:1049F800019103F10A01029500914033D9E76369F7
:104A0800002B7FF4E3AE0B23019304F10A03009318
:104A1800029504F11403CCE7022D3FF6D7AED4F883
:104A28001CB0DBF8243001337FF4D0AE294606A849
:104A38004CF004FBCBF8240049E70F21E36901910E
:104A480003F10C01029500914433B2E7032D3FF6C0
:104A5800BDAED4F81CB0DBF82C3001337FF4B6AE11
:104A6800294606A84CF0EAFACBF82C002FE7032DCC
:104A78003FF6ACAED4F81CB0DBF8283001337FF435
:104A8800A5AE294606A84CF0D9FACBF828001EE7AF
:104A9800022D3FF69BAED4F81CB0DBF81030013382
:104AA8007FF494AE294606A84CF0C8FACBF810005B
:104AB8000DE7042D3FF68AAED4F81CB09BF80230FF
:104AC800002B7FF483AE012329468BF8023006A819
:104AD8004CF0B4FACBF81C00F9E6002B7FF430AEAA
:104AE80074E600BFD8C192182DE9F0410E4617466A
:104AF8009846054628B121B11AB12C20A84704468A
:104B080018B900242046BDE8F0812C22002165F068
:104B1800EBFE0123224623710023C4E90467E56004
:104B2800C4F8188042F81C3F226240F20232228008
:104B38000A22A270014AA3621380E3E7405B0020C7
:104B480008B566F06FFA02280DD1074B4FF0FF3118
:104B5800186867F0A3FF30B140F28F21034B044A75
:104B680004484AF04BFF08BDD8250020F8F706088E
:104B7800E6F806082FF8060808B566F053FA022882
:104B88000BD1064B186867F0BDFF30B140F2972192
:104B9800034B044A04484AF031FF08BDD8250020D9
:104BA8008CF80608CCF806082FF80608F8B504466D
:104BB80017480D46174604F009FE164B186028B929
:104BC8009821154B154A16484AF018FFFFF7B8FF09
:104BD8004CF035FB134B144E002C08BF1C46134BEE
:104BE8001349002D08BF1D4612482B462246B160C6
:104BF8007060F46035613775FFF776FF3060FFF756
:104C0800BBFF00F0D1F9BDE8F84000F081B800BF63
:104C180024F90608D8250020B4F8060800F9060883
:104C28002FF80608C5110508DC250020C91105085C
:104C3800E5110508CD11050838B504460D46FFF7FE
:104C48007FFF064B21462A4653F8140CFFF71EFD3A
:104C58000446FFF791FF204638BD00BFF02500202D
:104C680038B504460D46FFF76BFF054B21462A462B
:104C780018684BF03EFF0446FFF77EFF204638BD1C
:104C8800DC25002010B5044618B1806908B14CF045
:104C9800A5FA034B2146BDE8104018684CF053BAFA
:104CA800DC25002008B566F0BDF902280DD1074BB8
:104CB8004FF0FF31186867F0F1FE30B14FF4CC7156
:104CC800034B044A04484AF099FE08BD1428002002
:104CD80034F90608D2FA060867F9060808B566F036
:104CE800A1F902280BD1064B186867F00BFF30B109
:104CF80040F29F11034B044A04484AF07FFE08BD66
:104D080014280020CBF90608B9FA060867F906083E
:104D180037B5194804F05AFD184B186028B9D12145
:104D2800174B184A18484AF069FE4FF402733422A8
:104D380000930A21154B16484CF0F1FA044618B1B5
:104D4800D921144B0F4AEDE7134D2871134804F08D
:104D580003FDA86018B9E021114B0A4AE2E7214691
:104D6800104A114804F0ACFD18B9E4210F4B054A6C
:104D7800D8E703B030BD00BF3CFB0608142800206C
:104D8800EFF90608EBFA060867F906080C26002072
:104D9800F425002003FA0608E8B3002008FB0608FB
:104DA80018FA060818FB0608554E00082AFA0608DD
:104DB800F7B5436A044663B19847054648B1A36A04
:104DC80053B903220221002055F079FF431C0646FF
:104DD80008D1012003B0F0BD204698470028F0D143
:104DE8000020F7E728464CF004FA431E9BB2B3F5BF
:104DF800806F0746EDD2FFF755FF29460E484CF065
:104E0800FAF9002802DAFFF769FFE2E72023043401
:104E180001933A4600233046074900941CF086F96E
:104E28000130F0D02846FFF72DFFFFF757FF304637
:104E380055F065FFD4E700BFB47B00200168D0E9D6
:104E48000B32014813F078BA3EFA060870B5184CD0
:104E58004FF0FF310120FFF725FAFFF723FF2379F1
:104E680033B1D4E902014FF0FF33002267F0B9FDF6
:104E7800104B1E6946B9FFF731FF2379002BE7D1A4
:104E8800206867F042FDE3E7237935683BB9D5E947
:104E98000B239A4203D0013376682B63EAE728464E
:104EA800FFF786FF10B12846FFF7C8FF0023F3E796
:104EB800E8B30020F425002070B50646074B1C69AE
:104EC80014B92546284670BD2568802230462968D1
:104ED80065F01FFD0028F5D06468F1E75828002028
:104EE80008B566F09FF802280DD1074B4FF0FF3147
:104EF800186867F0D3FD30B14FF4C971034B044A09
:104F080004484AF07BFD08BDF02F00204CFB060842
:104F1800E3FD06088CFB060808B5074B4FF0FF3188
:104F2800186867F0BBFD30B140F2A111034B044A89
:104F380004484AF063FD08BDF02F00204CFB06082A
:104F4800A3FD06088CFB060808B566F06BF8022876
:104F58000BD1064B186867F0D5FD30B14FF4CD7111
:104F6800034B044A04484AF049FD08BDF02F0020CD
:104F7800EEFB0608C0FD06088CFB060808B5064BC4
:104F8800186867F0BFFD30B140F2A711034B044A1F
:104F980004484AF033FD08BDF02F0020EEFB060858
:104FA80086FD06088CFB060807B5134804F00EFCBE
:104FB800124B186028B9B421114B124A12484AF012
:104FC8001DFD4FF470731E21009320220F4B1048D3
:104FD8004CF0A5F9014618B1BC210E4B094AEDE782
:104FE8000D4A0E4804F06CFC18B9C1210C4B054A57
:104FF800E4E703B05DF804FB7CFE0608F02F002010
:105008001FFC060814FE06088CFB0608302C00203E
:105018005828002003FA060858FE060841510008DF
:1050280040FC060838B50F4B05461C69FFF758FFCA
:105038005CB90C484CF088F970B12022294665F01B
:10504800BCFCFFF781FF204609E02368802229681D
:10505800186865F05EFC18B9FFF776FF012038BDC7
:105068006468E5E758280020F8B5114B00241D694D
:10507800FFF736FF4FF4707200210E4865F034FCDC
:105088000C4E35B9FFF760FF0A48002C08BF2846C8
:10509800F8BD1D2C0AD806EB44172022384629688B
:1050A80065F08BFC0CB147F8047C01346D68E8E7C7
:1050B800582800207028002038B5084B084D1C6976
:1050C800FFF72AFF1CB9BDE83840FFF757BF236830
:1050D8002846196813F030F96468F3E75828002067
:1050E8004ED60608014813F027B900BF52FC06083F
:1050F80008B50846FFF7F6FFBDE80840014813F079
:105108001BB900BF52FC0608014813F015B900BFCF
:1051180081FC0608014813F00FB900BFBBFC060864
:10512800014813F009B900BFEAFC0608014813F06A
:1051380003B900BF1EFD06082DE9F04F87B0002611
:1051480034463546DFF8ECB1DFF8EC910596ADF85A
:1051580012604FF0FF310120FFF7A4F8032202216B
:10516800002055F0ACFD431C074606D140F2E5117E
:105178006B4B6C4A6C484AF041FC0023CBF800307A
:105188006A4BDFF8B8C103F1100E62461868596817
:10519800083303C273459446F7D141F2336055F0A2
:1051A80079FD2022ABF804005946384605921BF0D9
:1051B8008FFF01301ED0DFF888A105ABCDE9009341
:1051C8004FF480620023514638461BF0F3FF002855
:1051D80040F39080514680B2FFF72EFD0546002827
:1051E800EBD08378013B032B09D901464846FFF7EA
:1051F8007FFFE2E74FF4F8714D4B4A4ABAE7FFF7F1
:1052080033FF29460DF1120200F0C2F8064688B1B4
:105218002A46BDF812104CF069F8044600283BD124
:105228002846FFF72FFD2046FFF72CFD30464BF0B0
:10523800D5FFC2E728464BF0E0FF18B92846FFF72C
:1052480063FFBAE70390FFF737FE8046039B1846D3
:105258004BF0C4FFB8F1000F2AD0D8F8103093B93A
:10526800D8F8143023B3294648469847044668B905
:105278002846FFF707FD2046FFF704FD20464BF0C0
:10528800ADFF002499E728469847EFE7D8F818308B
:1052980013B129464846984720464BF0AAFFB0F577
:1052A800806F804621460BD92846FFF733FFB7E7C2
:1052B80084212846FFF7D4FC04460028ECD1D7E720
:1052C80050464BF098FF002804DA21462846FFF79D
:1052D80027FFA5E7059B4246CDE9009351460023E9
:1052E80038461BF023FF01309AD121462846FFF7A4
:1052F8001DFF95E701307FF460AF4BF0B6FA002848
:105308007FF45BAF384655F0FAFC2846FFF7BAFC45
:105318002046FFF7B7FC30464BF060FF19E700BFA7
:1053280051FD060806FE06088CFB06087A67070882
:105338006DFD060838280020182800204428002081
:10534800B47F0020012808D0022814BF02230123BB
:105358002820034A00FB032070470023F8E700BF1A
:10536800CCFE060838B50D4609682C23074A0131DA
:10537800044613F009F8031E06DB2A689A4203D391
:10538800D21AE0182A6038BD0020FCE78C290808EA
:105398002DE9F04F91B007460C46059200211822DE
:1053A8000AA865F0A1FA002F4CD0002C4AD06389D6
:1053B800013B9BB27F2B45D8A378012B42D12046D5
:1053C8004BF01BFF029000283CD08022A74965F0D3
:1053D800A0FAE3698146002B39D05D6C1DB19D8927
:1053E800003D18BF01253E46D6F8008040464BF0E8
:1053F8002FFF834668B1DDF83CA0BAF1000F29D130
:105408000C204BF0DFFE20B1C0E9008B0F90C0F8F4
:1054180008A0F669002EE7D1B9F1000F40F0EB8043
:10542800002D00F0DF80E3699889013080B24BF0ED
:10543800C9FE054660BB0F98002840F08E80029890
:105448004BF0CCFE0026304611B0BDE8F08F1D466B
:10545800C9E79A46DAF804309B4510D0DAF80830E4
:10546800002BF6D10C2003934BF0ACFE0028D0D0D3
:10547800039BC0E9008B8360CAF80800C9E75A4655
:105488004146DAF8000065F005FA0028E6D1C0E7E1
:10549800E369B1469A89596C65F08FFAE36980210E
:1054A8009B892846EE544CF0D3F8714C8046A346AD
:1054B800E169002958D0284665F05CFA0A9000286E
:1054C80052D0282303FB09B31C6A0D930444A54258
:1054D80048D8A844444528BF0024802120460A947F
:1054E8004CF0B6F80B90002846D101244FF0000884
:1054F8000220FFF727FF03900320FFF723FFDDF8C3
:105508003CA08146002840F0B7800027059BB8B230
:1055180018809CB90746013080B24BF053FE0997BA
:10552800064658B1B8F1000F40F0218180460E9C24
:10553800DFF840B1002C40F01E81F455BAF1000F9D
:1055480040F03A810E98002840F03D8128464BF003
:1055580045FE02984BF042FE75E784684BF03EFE2C
:10556800204669E70024B8E709F10109B9F1030FFA
:1055780004F128049CD1B8E7002CB6D0B94699F8B4
:105588000C302BB10D9B1B78022B09D0032B26D096
:10559800D9F81C90B9F1000FF1D14C46C84611E07A
:1055A800D9F804000028F3D080220A9965F0B1F9EF
:1055B80080460028ECD148460AA94BF061FE012834
:1055C8000446E5D10E9B002B92D1012C90D0384691
:1055D8000AA94BF07AFE4FF00108044688E7D9F88B
:1055E8000800DFE738460AA94BF06FFE3546044647
:1055F8004FF00108E6E7802102984CF029F80446AC
:105608000F9DB5B1D5F804904C452DD14A4629686F
:10561800029865F03FF938BBB846D8F800004BF05F
:1056280017FE98F80C3053B9D8F81C80B8F1000F61
:10563800F3D10E9C0025B4FA84F4640956E7814539
:10564800F2D16A68D8F80010286865F023F9824614
:105658000028E9D140460AA94BF012FE0128044669
:10566800E2D15546D046ADE7AD68CAE78CFE0608DC
:10567800CCFE0608A9FE0608039B002B3FF445AFA5
:105688000120FFF75FFE00283FF43FAFB8F1000F9D
:1056980015D14746DDF838B0BBF1000F12D1002F05
:1056A8003FF433AF013F31E7036A426913440433DF
:1056B8003B444F6889681F440029F5D1EAE7514601
:1056C8000027F9E78021DBF800004BF0C1FF039BBE
:1056D80080211A6A0490DBF8040007924BF0B8FFA7
:1056E800D9F82010079A049B0A44093206901744F7
:1056F800DBF8080080211F444BF0AAFF069BDBF86B
:105708001CB03B441F18C7E7D9F80400013080B229
:105718004BF058FD044650B9002009A9FFF722FEB6
:105728008046D9F80890B9F1000FEDD1FFE6D9E924
:10573800001265F042F9D9F80420039BDDF824B083
:10574800A3540BF10101224A2346404612F01CFEE5
:10575800049020464BF042FD049A002ADCDB934576
:10576800DAD308EB0200ABEB02020992D5E7D14687
:1057780080460394D7E7A368DDF824900193636813
:105788005A4600934046236809F1010112F0FCFDD6
:1057980000280EDB81450CD38044A9EB000009905A
:1057A800E36923B1404609A9FFF7DCFD8046E469B7
:1057B800C0E64FF00008F3E7DAF8084050464BF02F
:1057C8000DFDA246BAE6C4694BF008FD2046BAE6CC
:1057D8009EFE060808B5074B4FF0FF31186867F0C2
:1057E8005DF930B140F29911034B044A04484AF07C
:1057F80005F908BDF42F0020AFFF06088E00070842
:1058080044FF060808B5064B186867F07BF930B105
:1058180040F29F11034B044A04484AF0EFF808BDD0
:10582800F42F0020EFFF06086D00070844FF060864
:1058380038B50B4803F0CAFF0A4B186028B9F8219D
:10584800094B0A4A0A484AF0D9F80024094D281990
:105858000121183400F01CF9B4F5F07FF7D138BDF8
:10586800DC000708F42F002020000708AD00070817
:1058780044FF060804B40020F8B506460D46D9B121
:1058880065F0D0FB0228044601D1FFF7A3FF0023EF
:1058980018200A4A00FB03F18F18515CB14204D169
:1058A800BD60022C05D00020F8BD0133142BF1D1C6
:1058B800F7E7FFF7A7FFF6E70120F5E7F8B30020C1
:1058C8002DE9F041837805467F33DBB2152B09D9E2
:1058D800FFF780FFA978124812F02EFDBDE8F041CD
:1058E800FFF790BF0F4AD456FFF774FF631CF1D03F
:1058F80018270D4E284607FB0468D8F80430984747
:10590800D8F808300BB1284698477C4333191B69EF
:10591800002BE3D00C3430194BF038FEDEE700BF23
:105928004100070857000708F8B300202DE9F84F91
:1059380000230F46064601464FF001094FF0FF08C5
:1059480031F8022B62BB5A1C082A22D1D01A4845CA
:1059580001D981469846531C072BF1D93C460025AE
:105968004FF03A0A18494FEA490BA8451AD1B8F13D
:10597800000F03D1204600F801AB04464D44072D23
:1059880004F801AB5E44F0D900232370E01BBDE8A6
:10599800F88F31F8024B501C002CD7D10246D3E7C0
:1059A8001A46D8E73288204652BA92B212F0D8FC8A
:1059B8000135082D0444E7D0A845034906F102063D
:1059C80004F801ABEED1D9E7E32D08087FB5002331
:1059D80080290E461546CDE90033CDE9023312D8A9
:1059E8000A46014668464BF0FCFC29466846FFF724
:1059F8009DFF2C1832462046044912F0B1FC204481
:105A0800401B04B070BD1846FBE700BFEC00070858
:105A180038B5054660B128204EF0EFFB044638B192
:105A280001462846FFF782FF18B920464BF09AFD39
:105A3800014C204638BD00BFF00007080146014868
:105A48004BF083BD400207080138C0B203289ABF53
:105A5800024B53F820000020704700BF08010708D8
:105A680030B585B0044620204EF0C7FB054650B13E
:105A7800237B20210293E37A044A0193A37A0093BB
:105A8800238912F081FC284605B030BDF3000708D1
:105A980010B5044650B10023C0E90131044803F0B1
:105AA8005BFE2060B0FA80F0400910BD0120FCE7E1
:105AB8003002070808B503484EF0B9F8BDE80840B9
:105AC8004AF068BEC00C070801484EF0B0B800BFE5
