S0160000776973756E5F6468745F636F4150312E73333716
S3150800000000100020695A00086514050865140508DB
S3150800001065140508651405086514050865140508BA
S3150800002065140508651405086514050865140508AA
S31508000030651405086514050883A6000865140508EF
S31508000040651405086514050865140508651405088A
S31508000050651405086514050865140508651405087A
S31508000060651405086514050865140508F53C0008B7
S315080000707D06050865140508651405086514050850
S31508000080651405086514050865140508651405084A
S31508000090651405086514050839620008651405081D
S315080000A06514050865140508795E0008595E000898
S315080000B06514050865140508D5EC0108C1F701089B
S315080000C0ABA20508A7A2050845EF0108C1A20508C5
S315080000D0AFA2050891F70108B3A2050801F80108BF
S315080000E0F1F801086514050865140508651405087E
S315080000F065140508651405086514050865140508DA
S3150800010065140508651405086514050865140508C9
S3150800011065140508651405086514050865140508B9
S3150800012065140508651405086514050865140508A9
S315080001306514050865140508651405086514050899
S31508000140651405086514050865140508FDAB00085F
S315080001506514050865140508F1D0060829D00108B4
S3150800016065140508651405089BA20508A1A20508DB
S31108000170651405086514050865140508E3
S3150800017CF0B5114A114C124E00F00105E3695F0700
S3150800018C13D40DB9334213D103EA00078F4207D1B2
S3150800019C0B4A1A40002A0CBF00206FF00100F0BD74
S315080001AC013AEBD16FF00200F9E74FF0FF30F6E7B2
S315080001BC6FF00100F3E700BF80969800000003502B
S315080001CC0200010070B50B4BD96911F480310DD1C1
S315080001DC01244FF48072084E084DF46020462C64B6
S315080001EC1A61FFF7C5FF3464EC6070BD6FF001004F
S315080001FCFBE700BF0000035000100350002003501B
S3150800020C38B54FF480320E4B0E4C9A66E56941F6BA
S3150800021C713315400122E3630B4B0021DA6002238C
S3150800022C606121202361FFF7A3FF10B92120FFF796
S3150800023C9FFF0122054BDA600DB10023E36338BD3D
S3150800024C009000500000035000100350002003508B
S3150800025C70B5134C6061E3695B071ED40E4656F8FD
S3150800026C043B8D18A361AE420BD104230021212037
S3150800027C2361FFF77DFF58B9BDE870402120FFF7D1
S3150800028C77BF08210846FFF773FF10B104232361D3
S3150800029C70BD56F8043BA361E5E74FF0FF30F7E76E
S315080002AC000003502DE9F84315464FF48032184BDD
S315080002BC89469A6603F51C33DF690646174041F6EC
S315080002CC7132DA63012203F58053DFF84C80DA6069
S315080002DC55B9284601220F4BDA601FB10022A3F547
S315080002EC0053DA63BDE8F88306F5005404EA0804FB
S315080002FCA41BAC4228BF2C46494622463046FFF77B
S3150800030CA7FF0028E6D12644A1442D1BE0E700BF31
S3110800031C009000500020035000E0FFFF96
S315080003282DE9F04100231546C2E900014FF47A7217
S3150800033880460F464FF0E8F818A3D3E90023044689
S315080003480E46404639464FF0DFF8134B80B22881EF
S315080003585843241A66F100064FF4616200232046C2
S3150800036831464FF0D1F84FF46163C0B2A8725843CA
S31508000378241A20464FF03C024FF0000366F10001AC
S315080003884FF0C2F8C0B2E872C0EB0010A4EB8004C4
S315080003982C73BDE8F08100BF80510100005C26057A
S315080003A800000000000000002DE9F04F93B0CDE9E9
S315080003B80A32DDE91C530E9353EC102BCDE90801DC
S315080003C8104619468DED060B1E9E4EF075FE80B139
S315080003D8DDE906014FF0FF32C54B4EF095FE40B9F0
S315080003E8DDE906014FF0FF326FF480134EF06EFE1A
S315080003F870B1DDE908019DED060B0E9B1E96CDE949
S315080004081C53DDE90A3213B0BDE8F04F00F088B98D
S315080004180022DDE9060100234EF058FE002800F008
S315080004283381DDE906A303F1004BCBF30A5016F432
S315080004388063A0F2FF3008BF06250F934EF06AFBCB
S315080004489BA3D3E900234EF0CFFB9BA3D3E9002354
S315080004584EF014FACBF31304894644F07F518046CC
S315080004680022A44B504641F440114EF005FA94A3D5
S31508000478D3E900234EF0B8FB02460B4640464946E8
S315080004884EF0FCF94EF04AFE04464EF043FB8EA3A6
S31508000498D3E90023804689464EF0A6FB0022964BF0
S315080004A84EF0ECF94EF03AFE89A3D3E90023074645
S315080004B8494640464EF098FB8046384689464EF0EF
S315080004C829FB85A3D3E900234EF08EFB02460B468B
S315080004D8404649464EF0D0F902460B46CDE90C236C
S315080004E84EF082FBDDE90C238046894610461946FC
S315080004F84EF0C4F90022CDE91001804B4046494622
S315080005084EF09CFC00227E4B4EF0B8F902460B468C
S31508000518404649464EF092FC00227A4B4EF0AEF918
S3150800052802460B46404649464EF088FCDDE90C2350
S315080005388046894600204FF080414EF09DF90246D4
S315080005480B46404649464EF099F902460B46DDE900
S3150800055810014EF073FC07F2FF3700226A4B4EF083
S315080005688DF900223B054EF03FFB52465B46804616
S3150800057889464EF0C9FD002840F08980CDE90C89E6
S3150800058804F16303C72B34BF0427052731051BD598
S3150800059853A3D3E90023504659464EF0ABFD00282D
S315080005A87FD051A3D3E90023504659464EF08EFD15
S315080005B8002876D00027A542C6BF2C1B04F1FF35B4
S315080005C800253C4646F480660E9B9F422CBF4FF09A
S315080005D80008A3EB070816F0020903D0002F18BF76
S315080005E84FF000083CB1DDE90C23504659464EF059
S315080005F825FC82468B46DDE90601002200234EF0DB
S3150800060865FD10B10BF100439B46DDE9080126F4A8
S315080006180063CDE90183DDE90A324BEC10AB00959E
S3150800062800F07EF802465FB3DDE9091316F0200FDD
S3150800063800F10105089E0CBF65204520B047DDE995
S3150800064808010523002205930A23002CCDE9023266
S3150800065807F1FF374FEAD473B8BF64422A460193B5
S3150800066804970A9B009459F08BF80246B9F1000FD3
S3150800067806D00B9BC41A0B9B1A190E9BA34245D886
S31508000688104613B0BDE8F08FDDE906ABCDE60022CB
S31508000698404649461A4B4EF0D1FB013CCDE90C01C0
S315080006A86EE7002D90D00F9B002B8DD0013D8BE770
S315080006B8FB799F501344D33FB3C8608B288AC63F3B
S315080006C861436F63A787D23F71A379094F930A409D
S315080006D81655B5BBB16B0240EF39FAFE422EE63F16
S315080006E82D431CEBE2361A3F0000000080842E4199
S315080006F8FFFFEF7F0000F83F0000E03F00002C40B6
S3150800070800002440000018400000F03F2020DDE9E2
S315080007180913089DA8470134ADE700BF000000008B
S315080007282DE9F04F97B05BEC10ABDDE92057CDE922
S315080007380501CDE90723504652465B465946229E8F
S315080007484EF0BAFC70B90323CDE902760193B04B93
S315080007580093DDE90501DDE9072358F031FF17B0F5
S31508000768BDE8F08F4FF0FF326FF4801350465946B4
S315080007784EF0ACFC28B10423CDE902760193A54BCB
S31508000788E6E74FF0FF3250465946A34B4EF0BCFCFD
S3150800079868B1A24A06F00403002B08BF0322A04B3F
S315080007A81CBF13460422CDE902760192D0E75046CB
S315080007B893A3D3E9002359464EF0A6FC38B992A369
S315080007C8D3E90023504659464EF080FC68B1DDE966
S315080007D80723DDE905014BEC10ABCDE92176209519
S315080007E817B0BDE8F04FFFF7DFBD002200235046DB
S315080007F859464EF06BFC002800F09A805B46524634
S31508000808002000214EF038F8012382468B460993CA
S3150800081816F4806400F08E80092D40F28E8000243C
S3150800082830210EABA5F109020134202C03F8011B6F
S31508000838A5EB040901D09442F6D1594650464EF024
S315080008486DFC784B054603EBC90393ED007B8DEDEC
S315080008580A7B4EF05FF902460B46504659464EF05B
S315080008680BF8DDE90A234EF0BFF902460B46CDE937
S315080008780C234EF07BFC80464EF03CF902460B46AC
S31508000888DDE90C014DF0F8FF02460B46CDE90C23CD
S315080008980022654B4EF038FC002851D008F10108B3
S315080008A840464EF027F902460B46DDE90A014EF0A6
S315080008B817FC10B14FF000080135B9F1000F50D1F7
S315080008C828464EF027F902460B46504659464DF03B
S315080008D8D3FF0022544B804689464EF0F7FB30B1C9
S315080008E8002240464946504B4EF00EFC10B1E80728
S315080008F800D501350A210EAB1A19202C0AD095FB0A
S31508000908F1F001FB1055303502F8015B0134054654
S315080009180028F2D106F00302012A57D1002F55D034
S31508000928099A12B916F00C0F00D0013F302245E09B
S3150800093809906DE74FF006097FE7A94600247CE78A
S315080009480022DDE90C01384B4EF0C0FB0028B4D173
S31508000958B8F1000F02D018F0010FAED008F101085F
S31508000968ABE70A210EAB2344202C0ED0B8FBF1F0D6
S3150800097801FB1082B8F1090F02F1300209F1FF39BB
S3150800098804F1010403F8012B11D83021A1440EAA59
S31508000998202CAFD0A14504F101030AD11C4609F160
S315080009A858030DEB03092E2309F8203CA2E78046D5
S315080009B8DAE7A1541C46EBE71A550134A74205D9CC
S315080009C8202CF9D1CDE902760194C1E6202CF9D07C
S315080009D8099A3AB12D2104F158026A4402F8201CF2
S315080009E80134EFE7710704D504F158022B216A444C
S315080009F8F4E73207E6D504F1580220216A44EDE700
S31508000A080000000065CDCD410000000065CDCDC1D0
S31508000A18371A07083B1A0708FFFFEF7F2E1A070839
S31508000A28331A0708401A07080000E03F00000000CC
S31508000A3870B5A8B02C2200211DA869F020FE4FF039
S31508000A4802331F9340F20B13874D14ACADF89C3054
S31508000A580FCD0FC40FCD0FC42B6884492360844B70
S31508000A68844807930023CDE908330A931FF04EF804
S31508000A78814D286000284FD0012159F02AFC20B161
S31508000A8840F24A417D4820F045FB286858F0E5FFC2
S31508000A987B4E3070286858F0E2FF7A4B7A4918700E
S31508000AA828681FF071FB044600282FD13378774E43
S31508000AB85BB9774823F058FF3060E0B940F27B41CC
S31508000AC8744B754A6D484EF0AFFE744823F04CFFD8
S31508000AD830600028EDD0C18928681FF0C5FA336848
S31508000AE82146586823F07AFF044678B9684823F0FF
S31508000AF83BFF306090B1C18928681FF0B5FA3368A2
S31508000B080421586823F06AFF044638B1234622218F
S31508000B180220634A59F07CFF28B070BD08F07AFCB9
S31508000B28604A04ABCDE904010393A2F1080113F85E
S31508000B38010B02F8010D9142F9D10622FF210BA8F3
S31508000B4869F09DFD0622FF210DF1320069F097FD37
S31508000B58182200210EA869F092FD08220EA903A8FA
S31508000B6869F0F6FD41F234231C22002120A8ADF8CD
S31508000B782C3069F084FD28681DA91FF001FD04467C
S31508000B880028C3D14849286859F0C7FC04460028F4
S31508000B98BCD14649286859F0AAFC04460028B5D1AC
S31508000BA8434928681FF0EAF804460028AED12CA362
S31508000BB8D3E90023CDE90023286859F0B0FC044698
S31508000BC80028A3D13B4A3C49286859F002FD044647
S31508000BD800289BD1012059F094FB00289CD0A0231B
S31508000BE8364A07A8D380364A136008F0E7FC354B1F
S31508000BF8186020B940F2C441334B274A62E72246B7
S31508000C080121082008F038FE304B186020B940F258
S31508000C18C7412F4B204A55E700220121082008F032
S31508000C282BFE2C4B186020B940F2CA412A4B1A4AA7
S31508000C3848E72A4A2A492B4825F0D2FB294842F090
S31508000C48F7FD0021284814AA08F06CFD274B186000
S31508000C5800287FF461AF40F2D641254B0E4A31E7AA
S31508000C68C88D01C10340000018940708F546020814
S31508000C78C28A0708C8B80020E85100209F880708D4
S31508000C8838A8002037A8002007001100A041002036
S31508000C9845BC0508D78A0708189307082FBC05080E
S31508000CA8628B070841A800201694070814940708B9
S31508000CB8EC51002076BA0020E0410020E8B8002070
S31508000CC85452002068520020EF8A07086452002010
S31508000CD80B8B070860520020288B0708488B0708E3
S31508000CE88D4B020808520020215C02086C5200202D
S31508000CF8518B0708000000002DE9F3470546584CB4
S31508000D0822211020574A59F083FE182229462046E0
S31508000D1869F01EFDA27B544BDFF894A11A70E37C98
S31508000D2800228AF800300023CDE90023DFF8848101
S31508000D3800224FF40073D8F8000059F0F0FB064675
S31508000D4820B10126304602B0BDE8F087474B484F28
S31508000D581B787BB9474823F007FE04463C60FCB974
S31508000D68454A2221022059F053FE0122434B2126E7
S31508000D781A70E7E7424B434C1A88434BD8F80000E9
S31508000D8853F82210414A8B6821603B601FF056F9D8
S31508000D9822683F4B946824221B8802FB0344DDE73C
S31508000DA83C4B1C60374BD3F80090B9F1000F07D0BD
S31508000DB800232420D9F80C108B4208D100251AE004
S31508000DC840F23671344B354A35484EF02DFDD9F880
S31508000DD8085000FB0355EA695278120912F00E0FFB
S31508000DE82ED0052A2CD82F4B0021EA89B3F9000002
S31508000DF83D6023F02BFE18A3D3E90023CDE9002391
S31508000E08D8F8000059F08BFBD9F80820AA4207D071
S31508000E18254B3A600421D289B3F9000023F016FE5F
S31508000E28224BE2893C601A809AF800301B0913F0B5
S31508000E380E0F07D024F0D0FD012024F065FA81E7CB
S31508000E480133B9E701220721D8F8000059F079FCDF
S31508000E580028EFD075E700BFC88D01C1034200001E
S31508000E68A4410020F38E07082FA8002032A80020E6
S31508000E78A0410020CD4A02080F8F070830A8002095
S31508000E88B65B002094410020C4B30020014702083D
S31508000E98B45B00209C4100204B8F0708D6910708B1
S31508000EA89F88070878BA00207ABA002070BA002006
S31508000EB82EA80020E85100202DE9F8434468054685
S31508000EC894F9013090F8E8715A1C1AD17B1E5BB266
S31508000ED8637000EB431393F825302370A0684DF030
S31508000EE82BFE38A3D3E900238046894694F9016086
S31508000EF84EF00AF908B3002E1FDD013E002366707E
S31508000F0826E09F4206DD00EB431393F82520237855
S31508000F189A42E3D0002305F1250263709F4204D85C
S31508000F287B1E637000232371D8E75901505C21782A
S31508000F38884208BF63700133F0E7404623A3D3E924
S31508000F48002349464EF0E0F800B32379F3B1013B94
S31508000F58237194F9013005EB431393F82530237070
S31508000F6847B385F8EA31052395F8022285F8EC3166
S31508000F7885F8F02100230E2285F8EB3185F8F22151
S31508000F8885F8F13105F5F570BDE8F88340460FA3F5
S31508000F98D3E9002349464EF099F80028D9D0237991
S31508000FA80133DBB2092B2371D3D97B1EB342D0DDBB
S31508000FB80136A3E727210220014A59F029FDE1E76E
S31508000FC826400808666666666666E63F9A999999A7
S31508000FD89999B93F000000002DE9F8432DED028BD9
S31508000FE887680546384616460C464DF0A5FD28A3DB
S31508000FF8D3E90023804689464EF086F888BB26A39F
S31508001008D3E90023404649464EF060F860BBF7EE40
S31508001018007A07EE107A87EE878A6B7F607F01224F
S31508001028834224D0002143F09FF801220446314622
S31508001038687F43F099F8044404F2D5702860D8B15B
S3150800104807EE900AF8EE677A9FED0D7A67EE887ACA
S3150800105887EE270ABDEC028B10EE103AEB60BDE866
S31508001068F8839FED088AD8E79FED078AD5E73146C2
S31508001078184643F079F8E1E79FED040AEAE700BF66
S3150800108800007A44E4388E3F00401C460000000001
S31508001098CDCCCCCCCCCCEC3F9A9999999999B93FB7
S315080010A82DE9F74F064690F8E8010D469146A0B394
S315080010B87468A3690133A361A37D06EB43131A7FFA
S315080010C802441A77D4E90732C3EB520207EE902A8C
S315080010D84000B8EE677A07EE900AF8EEE76AF4EE8B
S315080010E8C76AF1EE10FA0BD507EE903A37EE667A2C
S315080010F8F8EE677A77EE877AFCEEE77AC4ED077A30
S315080011084FF0000BD9450BD842F21073A2699A42E0
S3150800111882BF0023C4E90633236203B0BDE8F08F13
S31508001128B5F802A02F79BAF1000F2ED038464DF03F
S31508001138F1FCCDE9000150464DF0ECFC02460B46A1
S31508001148DDE900014DF07AFE02460B4600204C49BF
S315080011584DF092FB4EF02AF807EE100A96F803327D
S31508001168AAEB0700034486F8033294F8243033B30D
S3150800117894F825305B4522D1BAF1000F08D1C4F896
S3150800118820A00BF1010B0635BCE7B7EE007AE5E7B8
S31508001198E3690133E3612A78002AF2D000239846E6
S315080011A896F8E8C106F108019C450FD8B8F1000F72
S315080011B814D127210220334A59F02AFCE1E72A7874
S315080011C8002ADED0BAF1000FDBD0E7E791F81DE078
S315080011D80133964508BF88462031E5E7002288F896
S315080011E81420B8F81020D8F8043017440133BAB2D6
S315080011F8C8F80430A8F810701AB198F81D2086F8AF
S315080012081422F7EE007A012B77EEC77A8CBFB3EE75
S31508001218097A9FED1D7AB8F8122088BF67EE877A93
S315080012280244A8F81220D8F808208CBF9FED177A30
S3150800123867EE877A06EE102ADFED156AE6EE077A74
S3150800124887EEA67A17EE103A17EE100AC8F808308D
S315080012584DF072FC08A3D3E900234DF037FF18B107
S31508001268FF2388F815308CE798F91530013388D1AB
S315080012780423F6E7AFF30080666666666666EE3FA1
S315080012880000F03F46400808000048420000964221
S315080012980000C842000000002DE9F04F2DED028B32
S315080012A8054600274FF0200A4FF0080B0B46082082
S315080012B84D4A87B08846272159F0AAFB95F8E831A0
S315080012C827210820494A59F0A3FB6C6805F1080646
S315080012D8E37D23716371637595F8E891B9450DDC6B
S315080012E83FA7D7E900674FF00008AA46C346C14595
S315080012F846D807B0BDEC028BBDE8F08FE17D4246C3
S315080013081AFB01B130462944FFF766FE96F81D9088
S315080013180495F0684DF010FCCDE90201B0684DF06F
S315080013280BFC4B46CDE90001314A2721082059F024
S315080013386FFB2379D6ED037A05EB431292ED057A0E
S31508001348F4EEC77AF1EE10FA02DB327F22710EE06C
S3150800135817B995F82420F9E7637905EB431393ED54
S31508001368057AF4EEC77AF1EE10FA04DB337F637177
S3150800137801372036B0E7012FFAD195F84430F6E759
S31508001388E37D434515D09AED048A18EE100A4DF008
S31508001398D3FB32463B464DF0ADFE10B9BBF1000F04
S315080013A80CD19AF8243022799A4202D062799A4264
S315080013B811D108F101080AF1200A98E7637D05EBBF
S315080013C84313D3ED047AB4EEE78AF1EE10FAE8DAB5
S315080013D84FF0010BEDE76375FAE700BFAFF300803E
S315080013E8666666666666EE3F5E40080880400808D8
S315080013F88F400808000000002DE9F047D0F804805F
S3150800140800EB411393F8245098F817300446AB427A
S315080014182DD098F81530AB4229D000EB411ADAF8E6
S3150800142810004FEA41194DF087FB13A3D3E90023AF
S3150800143806460F464DF054FE10B99AF91D00A0B19C
S3150800144898F80430AB4212D098F80530AB420ED063
S3150800145809A3D3E90023304639464DF055FE18B19D
S315080014684C44637F013B63770120BDE8F087002081
S31508001478FBE700BFAFF30080666666666666EE3F02
S315080014882DE9F34704460E46456827210820804A71
S3150800149859F0BEFA20463146FFF7FEFE284668F0A0
S315080014A897FA002800F0BC80204668F0A4FA064699
S315080014B8034627210820774A04EB461759F0A8FA65
S315080014C82721082097F82530734A59F0A1FA002EE3
S315080014D8C0F2A68094F8E83195F804E09E4295F89B
S315080014E815C080F29D80012204EB4E1185F8242050
S315080014F80B6A386A97F8258098420FFA8CF302D84F
S31508001508387F322877D9012284F8EC21002284F81A
S31508001518EA8184F8EB21A87D287091F8250084F8DB
S31508001528F00191F8261084F8F12184F8F21185F86B
S3150800153801E004EB431393F82510012684F8F61105
S3150800154893F8263084F8F831002384F8F73185F8BB
S3150800155802C085F82520A04605F1FF3904F1120ACC
S3150800156819F8013F5F1C002E00F0868004EB431330
S3150800157818694DF0E1FA02460B46CDE9002340A367
S31508001588D3E900234DF0C0FD40B93FA3D3E90023B2
S31508001598DDE900014DF09AFD00286DD004EB4717E8
S315080015A8BB79042B8EBF02230133C3F3460388F89D
S315080015B8EC3108F10608C245D2D1EA7D04F5F57082
S315080015C804EB421393F8253084F8FC31002384F899
S315080015D8FD31EA7085F8243094F8F22194F8EC3154
S315080015E8134494F8F821C3F113039B1A84F8FE31BF
S315080015F802B0BDE8F08791F8250084F8EA0191F869
S31508001608261084F8EC11002184F8EB1185F800E01F
S3150800161884F8F08184F8F22184F8F1116E7088E76D
S3150800162800262A7904EB421393F8251084F8EA1160
S3150800163893F8263084F8EB6184F8EC312A706A79D5
S3150800164804EB421393F8251084F8F01193F8263022
S3150800165884F8F16184F8F2316A706A7D04EB421302
S3150800166893F8251084F8F61193F8263084F8F7616C
S3150800167884F8F831AA706EE704EB4717BB7996E742
S31508001688666666666666EE3F9A9999999999B93F24
S31508001698B3400808C1400808D140080800000000FF
S315080016A82DE9F8432DED028B876805463846164618
S315080016B80C464DF041FA2EA3D3E900238046894605
S315080016C84DF022FD00283DD12BA3D3E9002340463F
S315080016D849464DF0FBFCC0BBF7EE007A07EE107AD8
S315080016E8AB7F87EE878A07EE903AB8EEE77AB4EECC
S315080016F8C87AF1EE10FA01D5B8EE678A6B7F607F73
S315080017080122834224D0002142F02EFD01220446FC
S315080017183146687F42F028FD044404F2D5702860F3
S31508001728D8B107EE900AF8EE677A9FED0D7A67EE5C
S31508001738887A87EE270ABDEC028B10EE103AEB6022
S31508001748BDE8F8839FED078AD8E79FED078AD5E7AE
S315080017583146184642F008FDE1E79FED040AEAE734
S3150800176800007A44E4388E3F00401C46000000001A
S31508001778CDCCCCCCCCCCEC3F9A9999999999B93FD0
S315080017882DE9F04F2DED028B90F8E83105460E4607
S31508001798934689B0002B00F0238127210820964A12
S315080017A859F036F900226C68A1690131A16195F8EA
S315080017B8E80190423DD8D4E907230A2779436427E4
S315080017C8B1FBF7F1C2EB53030B4407EE903A43001B
S315080017D806EE903AF8EE677AF8EEE66AF4EEE76A05
S315080017E8F1EE10FA0BD507EE102A77EEE67AB8EE80
S315080017F8477A77EE277AFCEEE77AC4ED077A002768
S31508001808B846BB451DD8B8F1010F00F0E680B8F117
S31508001818130F40F2B9800023A3612721082095F801
S315080018280332764A09B0BDEC028BBDE8F04F59F091
S31508001838EFB8A37D013205EB43131F7F01371F77E6
S31508001848B7E7B6F8029096F804A0B9F1000F41D0A8
S3150800185850464DF05FF9CDE9060148464DF05AF96C
S3150800186802460B46DDE906014DF0E8FA02460B4644
S31508001878002063494DF000F84DF098FC08EE100A70
S31508001888337818EE100A069304954DF055F9069B19
S31508001898CDE902015B4A27210820CDE9009A59F0CB
S315080018A8B7F87288337995F80312D31A0B4485F872
S315080018B8033294F82430C3B194F82530BB4214D1C6
S315080018C85AB92262272108204F4A59F0A1F8013748
S315080018D8063696E7B7EE008AD2E7E3692721013389
S315080018E808204A4AE36159F093F8B6F802A0BAF113
S315080018F8000FECD00023E25D05EB4211C8680B77B0
S315080019080130C86096F804C00B8B4FEA4219634445
S315080019189BB20B831BB191F8253085F81432F7EE84
S31508001928007A05EB0902538B01285344A3EB0C03F1
S3150800193877EEC87A53830DD9B2EE0E7AD2ED046AD9
S3150800194827EE877ADFED327AA6EEA77ADFED316AD7
S31508001958C7EE267AA944C9ED047A17EE900A4DF01F
S31508001968EBF823A3D3E900234DF0B0FB30B1FF23EE
S3150800197889F81D30C2441FFA8AF8A8E799F91D3074
S315080019880133F7D10423F3E7B8F1020FD4ED0B7A44
S31508001998B1EE047A15D977EE877AB3EE047AF4EEBF
S315080019A8477AF1EE10FA77FE277A42F21073A2699F
S315080019B8C4ED0B7A9A4282BF0023C4E90633236230
S315080019C82BE7F2EE046A77EEE67AF4EE477AF1EE5A
S315080019D810FA48BFF0EE477AE7E7DFED0F7AE4E753
S315080019E809B0BDEC028BBDE8F08F00BFAFF30080ED
S315080019F8666666666666EE3F164108087C4108080C
S31508001A080000F03F2C4108085D4108086C410808A9
S31508001A180000AA420000C8420000000000000000BA
S31508001A282DE9F84F2DED028B0546884600274FF01D
S31508001A3820094FF0080B446800F10806E37D237176
S31508001A486371637595F8E8A1BA450CDC0FF2D009FD
S31508001A58D9E9008900262F46B346B24532D8BDECE7
S31508001A68028BBDE8F88FE17D424619FB01B1304685
S31508001A782944FFF715FE2379D6ED037A05EB4312B9
S31508001A8892ED057AF4EEC77AF1EE10FA02DB327FA8
S31508001A9822710EE017B995F82420F9E7637905EB62
S31508001AA8431393ED057AF4EEC77AF1EE10FA04DBE0
S31508001AB8337F637101372036C4E7012FFAD195F8C9
S31508001AC84430F6E7E37DB34215D097ED048A18EE5D
S31508001AD8100A4DF031F842464B464DF00BFB10B94B
S31508001AE8BBF1000F0AD197F8243022799A4202D01E
S31508001AF862799A420FD101362037AEE7637D05EB46
S31508001B084313D3ED047AB4EEE78AF1EE10FAEADA6B
S31508001B184FF0010BEFE76375FAE700BFAFF30080F4
S31508001B28666666666666EE3F2DE9F047456890F88C
S31508001B38E821AB690446B3EB420F2ED900EB4113F3
S31508001B4893F82480EB7D43452AD06B7D434527D0FF
S31508001B5800EB411ADAF810004FEA41194CF0ECFF8D
S31508001B6811A3D3E9002306460F464DF0B9FA10B972
S31508001B789AF91D0090B12B79434511D06B794345E5
S31508001B880ED009A3D3E90023304639464DF0BCFAEE
S31508001B9818B14C44637F013B63770120BDE8F087A1
S31508001BA80020FBE7AFF30080666666666666EE3F6A
S31508001BB80348044B834202D0034B03B118477047C6
S31508001BC874C6002074C6002000000000064B0749AA
S31508001BD8C91A891048BF0131491003D0044B0BB103
S31508001BE801481847704700BF74C6002074C600200D
S31508001BF80000000010B5064C237843B9FFF7D8FF54
S31508001C08044B13B10448AFF300800123237010BDB9
S31508001C18C65B0020000000007455080808B5054B87
S31508001C281BB105490548AFF30080BDE80840FFF732
S31508001C38CDBF00BF0000000098230020745508088F
S31508001C48A3F5803A704700BF174B002B08BF134B04
S31508001C589D46FFF7F5FF00218B460F461348144AA1
S31508001C68121A68F00CFD0E4B002B00D098470D4B46
S31508001C78002B00D098470020002104000D000D48CD
S31508001C88002802D00C48AFF300804EF07BF92000FC
S31508001C9829004EF08CFC4DF0E5FD00BF0000080059
S31508001CA800000000000000000010002000100020BE
S31508001CB89CB1002000000000000000002DE9F04358
S31508001CC89BB000AF00230446F81CC7E9013359F056
S31508001CD855F818B181B2184816F044FA6A46FB78DE
S31508001CE8F81CA2EBC3039D466946E84659F05BF81B
S31508001CF818B181B2114816F035FA0026FB78F5B204
S31508001D08AB4210D908EBC509484607F10C0159F04A
S31508001D1863F8FB6A0136002BF0D158F83500D9F874
S31508001D2804103B1D03C33B1D03CB206020466C37BC
S31508001D386160BD46BDE8F08368D10608A1D10608EA
S31508001D4813B56846FFF7BAFF064C009B0649236099
S31508001D58019B06486360E379A27902B0BDE81040A2
S31508001D6816F014BA77640020D5D10608386D002015
S31508001D7830B597B010A859F077F84EF011FC11ADA8
S31508001D8802461749284616F001FAFFF7D9FF154BF8
S31508001D98BDF84020D3E90A01CDE90E01D3E90801C7
S31508001DA8CDE90C01D3E90601CDE90A01D3E9040115
S31508001DB8CDE90801D3E902010B4B0C4C01930C4BF6
S31508001DC8CDE90601CDE9032200934FF48061204648
S31508001DD8084B094A029516F0EDF9204617B030BDAA
S31508001DE8C39D070800100020386D0020876800206A
S31508001DF879D20608406D0020ECD106082DE9F04F87
S31508001E08A9B080464EF0CCFB654C0FAF0246654933
S31508001E18384616F0BBF9FFF793FF2378052B65D1EB
S31508001E2801F050FC604ADFF8B0B1D2E90045041B5E
S31508001E3861EB05052946204601F01EFC594902466C
S31508001E4819A816F0A3F9DBE90001201845EB0101EA
S31508001E5801F012FC554E0DF17809024651494846DB
S31508001E6816F094F9D6E9000101F006FC0DF18C0A82
S31508001E7802464C49504616F089F9DBE90032E4185F
S31508001E8845EB020520462946CDE90A9A4CF076FE26
S31508001E980022474B4CF0A8FE82468B46D6E900013D
S31508001EA8201845EB01014CF069FE0B4602465946D7
S31508001EB850464CF0C3FFCDE908013E4B1B880693F4
S31508001EC83D4B059319ABCDE903733C4B4FF4806141
S31508001ED802933B4B3B4A01933B4B3C480093434692
S31508001EE816F068F9394829B0BDE8F08F01F0EAFB21
S31508001EF8374ADFF8E490D2E90056451B61EB060637
S31508001F082278344914A816F041F93146284601F0D2
S31508001F18B3FB2449024619A816F038F9D9E900018D
S31508001F2801F0AAFBDFF884A00DF1780B02461D49DB
S31508001F38584616F02BF9DAE90001281846EB01018C
S31508001F4801F09AFB23AB02461649184616F01EF905
S31508001F58D9E9004923AB20464946CDE90AB34CF0EE
S31508001F680DFE0022124B4CF03FFECDE90C01DAE9D2
S31508001F780031E41849EB0101601946EB01014CF000
S31508001F88FDFD0B460246DDE90C014CF057FFCDE98D
S31508001F980801084B1B88069319AB059314AB92E7FF
S31508001FA8876C0020C39D0708781000206010002061
S31508001FB8000059403C5B002053D30608386D0020C2
S31508001FC879D206087ED20608406D00208768002068
S31508001FD87010002056D306086810002037B56049E7
S31508001FE8012058F0F8FD05465E495D4803F042FCB5
S31508001FF85D4C002D00F09C804FF480615B4A206898
S3150800200816F0D8F84EF0CCFA23680246584900204C
S3150800201857F0D8FC4EF0C4FA22680146544816F020
S31508002028A1F84FF48061534AABB2206816F0C2F89B
S315080020380020216857F0C6FC206816F093F84FF47C
S3150800204880614D4B4D4A206816F0B4F84EF0A8FA50
S31508002058236802464649002057F0B4FC4EF0A0FA19
S3150800206822680146424816F07DF8434868F07DFB29
S31508002078434A014640484FF0FBF84249404803F0B6
S31508002088F9FB40F2D54300934FF480613D4B3E4A35
S31508002098206816F08FF84EF083FA2368024634490A
S315080020A8002057F08FFC4EF07BFA2268014630482C
S315080020B816F058F84FF48061344B354A206816F004
S315080020C879F84EF06DFA236802462949002057F038
S315080020D879FC4EF065FA22680146254816F042F85A
S315080020E82A4868F042FB2B4A014628484FF0C0F8B0
S315080020F82949284803F0BEFB41F2356300934FF49B
S315080021088061254B254A206816F054F84EF048FA9F
S31508002118236802461649002057F054FC4EF040FA48
S3150800212822680146124816F01DF8284603B030BD45
S315080021384FF480610B4B1A4A206816F03BF84EF0AC
S315080021482FFA236802460A49284657F03BFC4EF000
S3150800215827FA22680146064816F004F86FE700BF12
S31508002168676400203F64002064240020981107084B
S315080021786AD3060872D30608D2D30608DFD3060838
S31508002188E4230020EF630020FAD3060821D40608C2
S315080021982ED40608C4230020C76300204AD406089C
S315080021A8AFD30608F8B5FFF719FF03220221002066
S315080021B858F050FC514A411C0346514C106023D133
S315080021C84FF480614F4A206815F0F4FF4EF0E8F99D
S315080021D8236802464C49002057F0F4FB4EF0E0F914
S315080021E822680146484815F0BDFF484A4FF4806101
S315080021F8206815F0DFFF2168002057F0E3FB206808
S3150800220815F0B0FF0120F8BD4FF48061404A2068F8
S3150800221815F0D0FF4EF0C4F9236802463A49002063
S3150800222857F0D0FB4EF0BCF9002501462268394E16
S31508002238354815F097FF40F2D540356058F0F5FB5C
S315080022480322B0800221284658F004FC324E421C6C
S315080022580346306016D14FF480612A4A206815F083
S31508002268A9FF4EF09DF9236802462749284657F0E4
S31508002278A9FB4EF095F922680146234815F072FF26
S31508002288264AB3E74FF48061254A206815F092FF7D
S315080022984EF086F9236802461B49284657F092FBF2
S315080022A84EF07EF91F4F0146226817481E4C15F056
S315080022B859FF41F23560256058F0B7FB33683E464A
S315080022C8A08046F8043B0FCC0FC694E80F0086E8B2
S315080022D80F0041F20303FB843223BB6242F22A331E
S315080022E812484FF48C71BB85B8634FF0C5F87D6307
S315080022F8F88587F8245028463D6484E7B4230020E7
S3150800230864240020981107086AD3060871D40608B9
S31508002318A7D40608D8230020B0230020D7D4060857
S315080023280ED5060860B30020B82300203ED5060857
S3150800233873B53C4D4FF48C71E8634FF09DF82886C9
S3150800234805F124004EF069FE06464EF04FFE044697
S31508002358E8B9354D009640F267334FF48061334A41
S31508002368286815F027FF4EF01BF92B6802463049F6
S31508002378204657F027FB4EF013F92A6801462C48E1
S3150800238815F0F0FE40F26935284602B070BD05F131
S3150800239824014EF044FE00281CDA234D40F26D3322
S315080023A84FF48061234A286815F004FF4EF0F8F8C0
S315080023B81F4902462B68002057F004FB4EF0F0F838
S315080023C82A6801461A4815F0CDFE002520464EF023
S315080023D819FED9E720230193174B32460093214665
S315080023E8002328681EF0B8FD0130EED12B680E4E82
S315080023F800934FF4806140F27933104A306815F03B
S31508002408D9FE4EF0CDF8336802460949002057F040
S31508002418D9FA4EF0C5F832680146054815F0A2FE05
S315080024283125D3E760B300206424002051D5060877
S315080024386AD3060891D50608B8230020CBD506081E
S315080024482DE9F04385B005461C469DF830609DF891
S315080024583470002A00F08F80002978D04EF0A0F852
S315080024680146714815F07EFE284615F07BFE002CBD
S3150800247840F09A800124002E3CD02B464FF4806108
S315080024886A4A6B4815F096FE20230193694BDFF8D4
S31508002498D091009386B2002332466549D9F80000E0
S315080024A81EF05AFD013040F0838040F2D54302936E
S315080024B8614B03960193D9F80030DFF88C810093B5
S315080024C84FF4806140F2AB335C4AD8F8000015F047
S315080024D871FE4EF065F85A490246D8F800300020D1
S315080024E857F070FA4EF05CF8D8F8002001465448C0
S315080024F815F038FE3FB32B464FF480614B4A5148D6
S3150800250815F058FE83B2B3F58C7F54D94FF48C7303
S315080025184D4D80B2019300904FF46E734FF480616D
S315080025284A4A286815F046FE4EF03AF844490246E3
S315080025382B68002057F046FA4EF032F82A6801460A
S315080025483F4815F00FFE204605B0BDE8F08315F0A4
S3150800255809FE002C8ED00124DFF8EC802A464FF4B9
S315080025688061D8F8000015F025FED8F8001000207C
S3150800257857F028FA16E0002B3FF47DAFB1B11446A0
S31508002588DFF8C4802A464FF48061D8F8000015F0B1
S3150800259811FE4EF005F8D8F8003002462849002002
S315080025A857F010FA013466E70124E9E70C46D3E741
S315080025B80134E4B29EE72348FFF7BAFE064610B987
S315080025C80134E4B2BFE7204D4FF48061204A2868F9
S315080025D815F0F0FD4DF0E4FF2B6802461849002077
S315080025E857F0F0F94DF0DCFF2A680146144815F053
S315080025F8B9FD41F235630293164BB6B20193164BF1
S3150800260803961B68154A00934FF4806140F2BE335F
S31508002618286815F0CFFD2968002057F0D3F92868EF
S3150800262815F0A0FD8FE700BFF9D50608C39D070872
S31508002638C75F0020D8230020EF630020FFD50608CF
S315080026486AD30608C75B0020642400205DD60608FE
S3150800265898110708C7630020B0230020C9D60608C2
S31508002668B42300202DE9F74300F08EFFBF4DC0487C
S3150800267815F078FDBF4EC04AC049C148C14C15F08F
S3150800268885FD64212846C04BBC4A15F093FD019583
S3150800269800964FF48061BA4BBC4A206815F08AFD4B
S315080026A84DF07EFF23680246B949002057F08AF99B
S315080026B84DF076FF22680146B54815F053FDB54B2F
S315080026C83221B54A0093B548B54B15F073FD4FF45A
S315080026D88061AB4BB34A206815F06CFD4DF060FF7E
S315080026E823680246AA49002057F06CF94DF058FFAE
S315080026F822680146A64815F035FD33464FF4806131
S31508002708A84A206815F056FD4DF04AFF2368024688
S315080027189F49002057F056F94DF042FF22680146B6
S315080027289B4815F01FFD2B464FF480619D4A20688B
S3150800273815F040FD4DF034FF236802469449002001
S3150800274857F040F94DF02CFF22680146904815F0DD
S3150800275809FD4FF48061914B924A206815F02AFDCD
S315080027684DF01EFF236802468949002057F02AF9CA
S315080027784DF016FF22680146854815F0F3FC01213D
S31508002788042000F0BBFC01222220114600F0DEFCE2
S3150800279801220B20114600F0D9FC012225201146FA
S315080027A800F0D4FC01221D20114600F0CFFC7E4B18
S315080027B84FF48061714A7D4815F0FCFC4FF480613E
S315080027C87B4A206815F0F6FC4DF0EAFE23680246B7
S315080027D86F49002057F0F6F84DF0E2FE22680146E8
S315080027E86B4815F0BFFC4FF48061724B724A20683B
S315080027F815F0E0FC4DF0D4FE236802466449002033
S3150800280857F0E0F84DF0CCFE22680146604815F00E
S31508002818A9FC4FF48061674B684A206815F0CAFC22
S315080028284DF0BEFE236802465949002057F0CAF8FB
S315080028384DF0B6FE624D01462268554815F092FCE1
S31508002848284658F083FAEB79AA795E495E4815F066
S315080028589DFC4FF480615C4B5C4A206815F0AAFC25
S315080028684DF09EFE236802464949002057F0AAF80B
S315080028784DF096FE22680146454815F073FC544902
S31508002888544815F083FC4FF48061524B524A20682D
S3150800289815F090FC4DF084FE236802463C4900205A
S315080028A857F090F84DF07CFE22680146384815F036
S315080028B859FC4A498B2002F083FF00F003FF484B76
S315080028C8484FC3E9000158F030FA4FF48061464A88
S315080028D8206815F06FFC4DF063FE236802462C4904
S315080028E8002057F06FF84DF05BFE2268014628482D
S315080028F815F038FC4DF0C6FE0121042000F0FEFB59
S3150800290801222220114600F021FC01220B20114643
S3150800291800F01CFC01222520114600F017FC0122B4
S31508002928012411461D2000F011FCFFF73BFC00F0BE
S315080029386FFC00F0F1FE2D492D4800F08DFA1A4873
S31508002948FFF716FA234622462146CDE90044FFF743
S3150800295877FDDFF8A0803B78052B71D100F09AFD4A
S315080029684FF0010900F0AAFF46E000BFD46C00202A
S31508002978981107085BD7060879D20608C39D070881
S31508002988486D00206424002033D7060851D7060866
S315080029986AD3060885D7060870D70608A26C0020E9
S315080029A864D70608CED30608600D07088764002092
S315080029B88ED70608A5D70608B5D70608CDD70608B8
S315080029C87F640020D5D10608406D0020E5D70608A3
S315080029D8F4D70608896C00200CD80608552A00087A
S315080029E880100020876C00201CD806081764002071
S315080029F83F64002008BA002000F064FE0023B8F8F7
S31508002A08002006460D464CF07FFD1A430BD14CB103
S31508002A180D48FFF7F3F90123CDE900991A46194637
S31508002A28FFF70EFD0024304629463C2200234CF0C9
S31508002A386BFD013A1A4308BF01244DF031FE8AE7B7
S31508002A484FF00009D8E700BF600D07082DE9FF47D2
S31508002A588268CC4DD2B2052A2A7000F2C981CA4EBC
S31508002A6833889A4200F0C481C84C00924FF48061BA
S31508002A78C74A206815F09EFB4DF092FD236802466A
S31508002A88C449002056F09EFF4DF08AFD226801468B
S31508002A98C04815F067FB2F787B1E042B35D800F045
S31508002AA811FE02460B46BC4901EBC707C7E90023D6
S31508002AB82B785F1E51F8332001EBC70C01EBC300D6
S31508002AC851F837104068DCF80470521A60EB0701B1
S31508002AD8B24800EBC30740F833207960CDE90021F6
S31508002AE84FF48061AE4A206815F064FB4DF058FD36
S31508002AF8A84902462368002056F064FF4DF050FDA9
S31508002B0822680146A34815F02DFB2B78052B40F0C3
S31508002B188F80A14AA349D2E90A3C0A88DFF8AC9211
S31508002B28013292B2012AC9E9003C20689E4F0A8000
S31508002B3840F06181CDE9003C4FF480619B4A15F06D
S31508002B4839FB4DF02DFD236802469249002056F0C0
S31508002B5839FF4DF025FD226801468E4815F002FB1F
S31508002B6800231A46DFF87482C7E90032404667F040
S31508002B78FCFD8F4B87B295F8009018804DF010FD34
S31508002B88C7F580614B468B4A009008EB070015F09D
S31508002B9811FB276895F800804DF002FD43464FF46F
S31508002BA88061844A0090384615F004FB4DF0F8FC1D
S31508002BB8236802467749002056F004FF4DF0F0FCDA
S31508002BC822680146734815F0CDFA02A8FFF776F889
S31508002BD8794F029B79493B60039B79487B60FB796F
S31508002BE8BA7915F0D3FA774B1B684BB17648FFF7D5
S31508002BF8BFF801231A461946CDE90033FFF720FC2A
S31508002C080121042000F07AFA01222220114600F058
S31508002C189DFA01220B20114600F098FA0122252078
S31508002C28114600F093FA01221D20114600F08EFA8B
S31508002C383388052B40F0DA80574F4FF00009BA461B
S31508002C48B84600F03FFD2A7809F101094A45EAE83D
S31508002C580201F6DA0020DFF844C13B46B968D3F822
S31508002C680CE00130D3E90093B1EB09016EEB0303DD
S31508002C784CF8081F824207F10807CCF80430ECDA4A
S31508002C8808EBC20158F83230504F4A68DFF85081CD
S31508002C98D7E90001C8E900321B1A62EB0102CDE93F
S31508002CA800324FF480614A4A206815F083FA4DF0DD
S31508002CB877FC236802463749002056F083FE4DF014
S31508002CC86FFC22680146334815F04CFAD8E90032F9
S31508002CD8DFF810C1DFF80481DCE900011B1842EBB4
S31508002CE80102D7E900105B1A62EB00024046CCE9FC
S31508002CF8003267F03AFD2E4B87B295F80090188097
S31508002D084DF04EFCC7F580614B46324A009008EBF9
S31508002D18070015F04FFA276895F800804DF040FC33
S31508002D2843464FF480612B4A0090384615F042FA1C
S31508002D384DF036FC236802461649002056F042FE36
S31508002D484DF02EFC226801240146124815F00AFAAD
S31508002D58214B214604201C7000F0D0F92246214652
S31508002D68222000F0F3F9224621460B2000F0EEF95E
S31508002D7822462146252000F0E9F9224621461D204B
S31508002D8832E000BF876C0020385B002064240020EE
S31508002D9836D806086AD30608301000200010002026
S31508002DA84BD806083C5B00206010002074D806083B
S31508002DB83A5B0020B1D8060877640020D5D1060802
S31508002DC8386D0020B4230020600D0708781000200D
S31508002DD8BCD80608D9D80608886C0020876400205D
S31508002DE8701000206810002000F0B0F92B783380A6
S31508002DF804B0BDE8F087DFF85C80D8E900125B1AF2
S31508002E086CEB0202CDE900324FF480610F4A15F0E7
S31508002E18D1F94DF0C5FB236802460D49002056F046
S31508002E28D1FD4DF0BDFB22680146094815F09AF90F
S31508002E38D7E90001D9E900321B1842EB0102D8E9A3
S31508002E4800105B1A62EB00028CE600BF95D80608EC
S31508002E586AD306087010002070B50D4604461A4E47
S31508002E68304615F07FF9194815F07CF941F23562B4
S31508002E782946174815F076F9164815F073F92146C4
S31508002E88154815F06FF9154815F06CF921461448D8
S31508002E9815F068F902F0B4F8124815F063F9124803
S31508002EA815F060F9114815F05DF9114815F05AF949
S31508002EB8104815F057F9104815F054F93046BDE88A
S31508002EC8704015F04FB900BF98110708E4D80608EE
S31508002ED818D9060839D906084AD906088AD906081B
S31508002EE89ED90608F6D906084CDA06089CDA0608B2
S31508002EF8D8DA060832DB06088DDB06081FB504464D
S31508002F0800F07EFD02A800F0A1FD78B19DF80B300F
S31508002F1840210093084A9DF80A30084815F04AF9EE
S31508002F28214606484DF028FB04B010BD4021044A46
S31508002F38024815F03FF9F3E7CBDB0608506D002089
S31508002F48D3DB06081FB5044600F05AFD02A800F0B0
S31508002F587DFD78B19DF8093040210093084A9DF80F
S31508002F680830084815F026F9214606484DF004FBAE
S31508002F7804B010BD4021044A024815F01BF9F3E7CE
S31508002F88E2DB0608506D0020D3DB060810B586B0CC
S31508002F98044600F035FD04A800F058FDA8B19DF8D0
S31508002FA81130402102939DF810300B4A01939DF881
S31508002FB813300A4800939DF8123015F0FBF821469D
S31508002FC806484DF0D9FA06B010BD4021044A034810
S31508002FD815F0F0F8F3E700BFEBDB0608506D0020A4
S31508002FE8D3DB060870B588B001241422002103A88B
S31508002FF867F045FB1F4B204E204D0093204B684633
S315080030080196029504938DF80C4001F0AFFF30B194
S3150800301840F212311B4B1C4A1C484CF005FC1C4B51
S315080030286846CDE900361B4B029504938DF80C408B
S3150800303801F09CFF20B140F21B31124B124AEBE714
S31508003048154B68460093154B8DF80C40CDE90135AC
S31508003058134B049301F08AFF20B14FF44971094BC9
S31508003068094AD9E71E2203210E4815F07BF80320E2
S3150800307808B070BD12DC0608BE3E080818DC06084B
S31508003088052F00081FDC0608B9DC06085FDC0608F9
S315080030986DDC06084D2F000873DC06087DDC06087B
S315080030A8952F000882DC060800B58BB0FFF79AFF53
S315080030B82022002102A867F0E2FA0B4B41F2883277
S315080030C8019318230021CDE90623084801AA06F02A
S315080030D829FB28B95721064B064A07484CF0A4FB92
S315080030E80BB05DF804FB00BFD1DC06086D260008A6
S315080030F8DADC0608FBDC0608EDDC06082DE9F041F3
S3150800310807468020884650F043FF0024054605EB0D
S31508003118440305F814400134232C5F70F7D1294677
S3150800312820461DF08DFB0646B8F1000F05D003466C
S315080031383A462146044815F015F8284650F03AFF4D
S315080031483046BDE8F08100BF04DD0608F7B58DF8FE
S3150800315804008DF8051005460E46012001A91746F4
S315080031681DF06EFB04462FB103463246294603482E
S3150800317814F0F8FF204603B0F0BD00BF2FDD06089F
S3150800318810B583780446852B0CD1164B164A174971
S3150800319818681DF07BFF164B1860164802F0DCFB12
S315080031A8154B1860A378832B1BD1A068134B104CBA
S315080031B818602368984214D140F2CF420023104978
S315080031C857F07EFC80B2002814BF012200220D4B5E
S315080031D818800D4B1A7004D1206857F05BFC0B4B0E
S315080031E8186010BDB0B30020B4B300200024002036
S315080031F8ACB300200C240020FC230020A8B3002030
S31508003208916D00203E5B0020906D0020A4B300203D
S315080032182DE9F341884C4FF48061884A206814F0F8
S31508003228C9FF4DF0BDF9236802468549002056F0C6
S31508003238C9FB4DF0B5F922680146814814F092FF9A
S3150800324802220121002057F005FC7E4E03464FF462
S3150800325880617D4A3060206814F0ACFF4DF0A0F913
S31508003268236802467649002056F0ACFB4DF098F9DB
S3150800327822680146724814F075FF32687349744B20
S315080032887448B2F1FF3F08BF0B46734914F06AFF4A
S3150800329835686A1C0CD167F0C3FD4EF02BFF2A4629
S315080032A801466E4814F05EFF67F0BAFD4EF027FF38
S315080032B8DFF8BC810023424642F80C3B684B03F111
S315080032C81007154618685968083303C5BB422A46C5
S315080032D8F7D1644F644D388857F0A7FB634BA8F8B5
S315080032E804001A68624930681DF008FE5749584BA9
S315080032F80246B0F1FF3F08BF0B4628605D495548AE
S3150800330814F030FFD5F80080B8F1FF3F0CD167F00C
S3150800331887FD4EF0EFFE42460146504814F022FF5C
S3150800332867F07EFD4EF0EBFE5349852002F048FA19
S315080033384649474B0246B0F1FF3F08BF0B4628608F
S315080033484E49444814F00EFFD5F80080B8F1FF3FFF
S315080033580CD167F065FD4EF0CDFE424601463F4862
S3150800336814F000FF67F05CFD4EF0C9FE4249832061
S3150800337802F026FA3549364B0246B0F1FF3F08BF38
S315080033880B4628603E49334814F0ECFED5F8008011
S31508003398B8F1FF3F0CD167F043FD4EF0ABFE42464D
S315080033A801462E4814F0DEFE67F03AFD4EF0A7FEF9
S315080033B80021306857F0B0FB2449254B2860B0F146
S315080033C8FF3F08BF0B4602462E49224814F0CAFE9C
S315080033D82D686B1C0CD167F023FD4EF08BFE2A4630
S315080033E801461E4814F0BEFE67F01AFD4EF087FE29
S315080033F8254802F0B1FA254D3A8828600092034616
S315080034084FF48061224A206814F0D4FE4DF0C8F8BB
S31508003418236802460A49002056F0D4FA4DF0C0F847
S3150800342822680146064814F09DFE286802B0BDE8E1
S31508003438F0414DF0ABBF00BF6424002054DD0608F8
S315080034486AD30608B0B3002077DD0608782D080881
S31508003458F0A50708A2DD06088EDD0608B0DD060811
S31508003468CA6307080ABA0020A4B30020B4B3002028
S3150800347820240020BFDD060889310008D1DD0608AA
S315080034882BDE06087FDE06082C240020FC230020F5
S3150800349893DE06082DE9FF472B4C2668C6B92B4D3F
S315080034A84FF480612A4A286814F084FE4DF078F8AB
S315080034B82B6802462749304656F084FA4DF070F8CC
S315080034C82A680146234814F04DFE23680133236011
S315080034D8214F3B78A3B300252368DFF8889001338A
S315080034E8DFF884A02360B9F800301C480AF80350AE
S315080034F802F032FADFF87480144EC8F80000CDF8E6
S3150800350808A0B9F800304FF48061CDE90003144AE1
S315080035182368306814F04EFE4DF042F833680246C8
S315080035280C49284656F04EFA4DF03AF832680146E4
S31508003538084814F017FED8F800004DF027FF3D702C
S3150800354804B0BDE8F08700BFF823002064240020F3
S31508003558C6DE06086AD30608906D00200C240020EB
S31508003568DCDE06083E5B0020916D0020FC23002067
S31508003578044AD2E90031013341F10001C2E90031B8
S31508003588704700BF8810002013B5174806F050F892
S31508003598164B186028B96721154B164A16484CF079
S315080035A843F900200021154B154A1A60154BC3E943
S315080035B800010BF069FC044630B10146124814F0C4
S315080035C8D1FD204602B010BD68F0DEFE234601464E
S315080035D8CDE900440D4A0E4869F037FD044600282F
S315080035E8EFD001460B48EAE770E0060840240020B9
S315080035F800DF060848E006081DDF060864240020E0
S31508003608737200208810002030DF06087935000814
S31508003618442400205BDF06082DE9F8431646994638
S31508003628144A002305460C464BF06EFF21463080A7
S315080036383C22284600234BF067FF002380460F46A6
S31508003648164628464FF4616221464BF05DFF18225C
S3150800365800234BF059FF404689F8002039463C229A
S3150800366800234BF051FF089B00201A70099B1E7017
S31508003678BDE8F8838051010010B586B00DF1150331
S31508003688019305AB00930DF116020DF11303FFF72D
S31508003698C3FF9DF81530094C02939DF81430122182
S315080036A801939DF8133020460093054ABDF8163055
S315080036B814F080FD204606B010BD00BF61720020D8
S315080036C892DF0608D0B50D4C4FF0FF31206869F037
S315080036D89FF828B14F210A4B0A4A0B484CF0A4F820
S315080036E80A4B2068D3E9006769F0C6F818B155216E
S315080036F8074B084AF1E730463946D0BD4024002032
S31508003708A5DF06082BE006081DDF06088810002036
S31508003718E1DF06080EE00608F7B5544C4FF4806159
S31508003728534A206814F046FD4CF03AFF23680246CF
S315080037385049002056F046F94CF032FF22680146F7
S315080037484C4814F00FFD03224B49002057F082F924
S315080037584A4D03464FF48061494A2860206814F0A8
S3150800376829FD4CF01DFF236802464249002056F001
S3150800377829F94CF015FF226801463E4814F0F2FC78
S315080037882A684049404B4148B2F1FF3F08BF0B46FB
S315080037983F4914F0E7FC2E68721C0CD167F040FB11
S315080037A84EF0A8FC324601463A4814F0DBFC67F0AE
S315080037B837FB4EF0A4FC384F00233A4642F80C3B38
S315080037C8364B03F1100C164618685968083303C6B1
S315080037D863453246F7D1324E308857F026F9314BD1
S315080037E82D491A68B88028681DF088FB2E4D25498A
S315080037F8254B2860B0F1FF3F08BF0B4602462B4908
S31508003808224814F0AFFC2D686B1C0CD167F008FB36
S315080038184EF070FC2A4601461E4814F0A3FC67F0D1
S31508003828FFFA4EF06CFC224802F096F8214D3288D1
S315080038382860009203464FF480611F4A206814F0F6
S31508003848B9FC4CF0ADFE236802460A49002056F03A
S31508003858B9F84CF0A5FE22680146064814F082FC21
S31508003868286803B0BDE8F0404DF090BD64240020F8
S3150800387880E006086AD3060802000100BCB30020E7
S31508003888A9E00608782D0808F0A50708A2DD0608A5
S31508003898C0E00608B0DD060890240020CA630708B9
S315080038A80CBA0020C0B30020B8B30020D4E006083C
S315080038B89C2400206C240020E6E006082DE9F04345
S315080038C885B0314C2668C6B9304D4FF48061304A08
S315080038D8286814F06FFC4CF063FE2B6802462D49E5
S315080038E8304656F06FF84CF05BFE2A6801462948C0
S315080038F814F038FC236801332360274B274D284EDC
S31508003908284801930095002340F2CF4231460068C3
S315080039181DF066FBDFF894800028C8F800002FDD44
S31508003928002723683754013305F10C00236002F099
S3150800393813F8DFF87C90154DC9F800000296D8F8F8
S3150800394800304FF48061CDE90003174A23682868D8
S3150800395814F030FC4CF024FE2B6802460D49384614
S3150800396856F030F84CF01CFE2A680146094814F04F
S31508003978F9FBD9F8000005B0BDE8F0434DF006BDDF
S3150800398805B0BDE8F08300BF682400206424002041
S315080039980EE106086AD30608C0B300207024002082
S315080039A873760020BCB3002026E10608B8B30020C9
S315080039B86C240020044A054B10685B68012838BF48
S315080039C80120B3FBF0F07047B0240020001000E097
S315080039D870B50446FFF7EEFF0546084ED6F8A4303C
S315080039E8C3F340039C4201D1012070BDFFF7E2FFF3
S315080039F8401B8842F2D90020F7E700BF00C00350F1
S31508003A080D4AD2F8FC3043F08073C2F8FC30002225
S31508003A180A4B5A601A6842F001021A60084B094AAA
S31508003A281B68B3FBF2F3084A1360012302221946FE
S31508003A38104605F03BBB00BF00ED00E0001000E0B3
S31508003A48D8B5002040420F00B02400202DE9F04FD9
S31508003A5885B0012302220024054619461046029419
S31508003A688DF80C40A24605F021FB0023042201210B
S31508003A78022005F01BFB0222454B44F61F66C3F8D5
S31508003A88A020FFF797FF0146FFF794FF431AB342B2
S31508003A9824D9012304221946022005F007FBCDF88C
S31508003AA804A0019B4F2B1BDD012302221946104651
S31508003AB805F0FCFA78210020FFF78AFFA8B9013437
S31508003AC8032C5FD0334ACDF800A003E000BF009B63
S31508003AD801330093009B9342F8DDC6E700BFD3E79E
S31508003AE800BF019B01330193DBE70120FFF770FF55
S31508003AF80028E4D00026B34602AF4FF0070807F8B7
S31508003B0801BB50210020FFF763FF0028D7D0782192
S31508003B180120FFF75DFF0028D1D0FFF74BFF4FF4D0
S31508003B28967181460020FFF753FF01460028C6D044
S31508003B38FFF740FFA0EB0900322807D9012303FA4B
S31508003B4808F217F8013C134307F8013CB8F10108D5
S31508003B58D7D20136052ED0D19DF808009DF80970F0
S31508003B689DF80A209DF80B3028703844AA7002443C
S31508003B789DF80C60EB701344DBB29E426F702E7191
S31508003B8801D09CE70021084605B0BDE8F08F00BFC4
S31508003B9800E003503F0D030010B52A4C04F0C0FDA1
S31508003BA804F058FF236F012023F0070343F00303AB
S31508003BB8236704F079FF244B01219B6A3E20DB0129
S31508003BC85EBF4FF48032214B9A62D4F8203123F035
S31508003BD8070343F00203C4F82031D4F8283123F048
S31508003BE8070343F00203C4F82831D4F8403123F018
S31508003BF8030343F00203C4F84031D4F8603123F0D4
S31508003C08030343F00203C4F8603104F0CFFAD4F88A
S31508003C184032002023F0030343F00203C4F840327D
S31508003C28D4F8003223F0070343F00203C4F800323D
S31508003C38D4F8083223F0070343F00203C4F808321D
S31508003C4810BD00BF008000500040005A0060005AAE
S31508003C58064B1B681A7A022A04D812B11B68044A4A
S31508003C6813607047032AF9D0704700BFD4B3002001
S31508003C78B424002030B58FB0174D06AC0FCD0FC44D
S31508003C8895E80F0084E80F000E2200210DF10A00BE
S31508003C9866F0F5FC4FF48012104B6946CDE900230F
S31508003CA80B238DF808300C238DF809300C4B06AA1F
S31508003CB803932023049340F201130A48ADF81430FD
S31508003CC8094B0AF053FA044600214FF4E1304DF047
S31508003CD8B6FB20460FB030BD24E706083C00015B5A
S31508003CE8437B002078250020B824002001484FF09F
S31508003CF8EDBE00BF78250020F8B50C4606461146E5
S31508003D082046154656F067FF0746284601F024FE62
S31508003D18033C012C054604D947B13146064814F038
S31508003D2821FA2846BDE8F8404DF030BB0246314630
S31508003D38024814F017FAF4E789ED0608A9ED06080B
S31508003D480121024B8140186868F0AEBCD0250020D6
S31508003D5808B5074B4FF0FF31186868F059FD30B1C0
S31508003D684FF45C71034B044A04484BF05DFD08BDEB
S31508003D78D4250020B6ED060805F20608EBED060878
S31508003D8808B5064B186868F077FD30B140F2763109
S31508003D98034B044A04484BF047FD08BDD4250020C8
S31508003DA850EE0608ECF10608EBED060873B5002395
S31508003DB800220546CDE9002368F0CCFA6A4668F081
S31508003DC8E9FA00982D4A0199D2E90232C01A61EB3C
S31508003DD802012B4ACDE90001FCF7A2FA284801F0AE
S31508003DE8E3FD284B002814BF06461E466B68002BC1
S31508003DF841D1AC6814F001040DD00121224A2348A8
S31508003E08FFF77AFF204801F0A7FD31460446024627
S31508003E181F4814F0A7F9AB689A070DD503211D4A60
S31508003E281D48FFF769FF1B4801F096FD3146044611
S31508003E3802461A4814F096F9AB685B070DD50421B3
S31508003E48174A1848FFF758FF154801F085FD314607
S31508003E5804460246144814F085F920464DF096FAA9
S31508003E6830464DF093FA6A681AB11049104814F0AA
S31508003E7879F902B070BD0024EFE700BFA010002052
S31508003E8890100020600D0708747B002076EE06085F
S31508003E987DEE0608947B00209DEE0608A9EE060826
S31508003EA8A47B0020D1EE0608DCEE0608ACF306086B
S31508003EB806EF0608F7B500220023CDE90023446873
S31508003EC80646344D64B12146334814F04BF90120AF
S31508003ED8FFF736FF0121286868F01FFC03B0F0BD1C
S31508003EE8502221462D4866F0CAFB2D4814F03AF9A7
S31508003EF801212C4A2C48FFF7FFFE2146274A2B4862
S31508003F08FFF7FAFE02212A4A2A48FFF7F5FE032197
S31508003F18294A2A48FFF7F0FE294A04212948FFF7C3
S31508003F28EBFE68F017FA6A4668F034FADDE9001716
S31508003F38254BD3E908208A1847EB000C9868C3E98B
S31508003F480017121AD868C3E902176CEB0000C3E910
S31508003F5808209A6A1D4801329A62D3E90623891A03
S31508003F6867EB0303CDE900134FF47A73B1FBF3F15A
S31508003F7814F0F8F82046FFF7E3FE0221286868F0EF
S31508003F88CCFB7268002AA9D01149124814F0EAF83D
S31508003F98A4E700BFD025002020EF0608647B002090
S31508003FA842EF0608747B002076EE06084FEF0608EF
S31508003FB8847B00205AEF0608947B002068EF0608E1
S31508003FC8A47B002077EF0608A010002088EF0608D3
S31508003FD88FF3060806EF0608F7B5002300220546FC
S31508003FE81548CDE9002314F0BDF868F0B3F96A4618
S31508003FF868F0D0F9DDE90010104BD3E904248A18D3
S31508004008D3E9067640EB0404D21B64EB0604C3E93D
S315080040180424C3E90010C3E906106A681AB10849F6
S31508004028084814F09FF80120FFF78AFE0022064B7D
S315080040381A7003B0F0BD00BF91EF0608A010002063
S315080040486FF3060806EF0608637B002010B50F49CC
S315080040580446A1F1280056F075FD18B90C490D4813
S3150800406814F080F80220FFF76BFE0120FFF768FEC0
S31508004078094B0121186868F050FB62682AB1BDE847
S3150800408810400649064814F06DB810BDC025002032
S3150800409898250020A1EF0608D02500204CF306082D
S315080040A806EF06084168014814F05CB8C8EF060828
S315080040B810B50B4B044680681870C0B201F062FC54
S315080040C8014618B1A268074814F04CF862682AB184
S315080040D8BDE810400449054814F044B810BD00BFAF
S315080040E8637B0020F5EF06082EF3060806EF060898
S315080040F842681AB10249034814F034B8704700BF39
S3150800410815F3060806EF060842681AB10249034875
S3150800411814F028B8704700BFF3F2060806EF060839
S3150800412842681AB10249034814F01CB8704700BF20
S31508004138D5F2060806EF060842681AB10249034886
S3150800414814F010B8704700BFBDF2060806EF060857
S3150800415842681AB10249034814F004B8704700BF08
S3150800416892F2060806EF060842681AB10249034899
S3150800417813F0F8BF704700BF6FF2060806EF060887
S3150800418842681AB10249034813F0ECBF704700BFEA
S3150800419857F2060806EF060808B50C4805F048FA67
S315080041A80B4B186030B940F2B7110A4B0A4A0B484C
S315080041B84BF03AFB0A4805F001FA0A4B186020B991
S315080041C84FF4DD71084B044AF1E708BD00F4060808
S315080041D8D42500200DF0060840F20608EBED06087F
S315080041E8F0F30608D025002023F0060808B50B4684
S315080041F8014603480322006868F0ADFAC00F08BDF7
S31508004208D025002030B5AFB0002300228DF807303E
S315080042180023CDE90223FFF79BFD38225A495B485C
S3150800422866F096FA0DF1070056F06BFD024618B1CE
S315080042385749584813F096FF9DF8071031B1564864
S3150800424813F090FFFFF79CFD2FB030BD4F4CA2220C
S3150800425805A866F014FA94F8210001F099FB0546BA
S3150800426894F8240056F0D6FD014618B14B4813F0C9
S3150800427879FFE7E72946A22205A866F069FA022324
S3150800428805A88DF8803056F0D8FD014630B1444867
S3150800429813F068FF0520FFF753FDD3E7B4F92200AA
S315080042A856F0FFFC014620B13E4813F05BFF062096
S315080042B8F1E73D4856F0F3FD014608B13B48D6E715
S315080042C83B4B13F8012B0AB989B203E00131B1F562
S315080042D8006FF6D1013189B20220354A56F09CFCA6
S315080042E8014628B9334B13F8012B32B989B208E0CD
S315080042F8314813F037FF0B20CDE70131B1F5006FD0
S31508004308F1D1013189B206202A4A56F09CFC0146A9
S3150800431828B92A4B13F8012B32B989B208E028487C
S3150800432813F020FF0C20B6E70131B1F5006FF1D183
S31508004338013189B20120214A56F09CFC014620B178
S31508004348204813F00FFF0D20A5E71F49A1F1280003
S3150800435856F0F8FB044680B967F0FCFF02AA68F035
S3150800436819F8DDE90201194BC3E90001C3E902019D
S31508004378C3E906010549164879E70420FFF7E0FC72
S315080043882146144873E700BF10F40608982500204C
S315080043981EF2060806EF06083BF0060866F0060849
S315080043A890F00608C4F0060869ED0608EBF006085A
S315080043B844E70608C1E906081AF1060874EC06086F
S315080043C850F1060885F10608C0250020A01000202F
S315080043D8BAF10608D1F1060810B5FFF7B9FC034B80
S315080043E81C78FFF7CDFC204610BD00BF637B002074
S315080043F8402906D1C378202B08D005D813F0EF0F2B
S3150800440804D04FF0FF307047302BFAD18078A528B2
S31508004418F7D8872806D85F2802D013D804280AD8D8
S3150800442800207047094B7830C0B2C34003F0010337
S31508004438013B58B27047413804284FF0FF3098BFFF
S315080044480020704780F080000628F6E7B100003F94
S315080044582DE9F04F89B000260F46154604469846BA
S31508004468149B9DF84CA0CDE906320390059000EB05
S315080044780209079B23B90795002E45D100264CE06B
S31508004488BAF1080F069B2CD1FF2B26D89D42059A10
S3150800449823D31A44944220D84A451ED85A1C214682
S315080044A8164405A82A464CF0EBFC07900028E2D0EB
S315080044B8059B1B781909DED12146069305A8012311
S315080044C84CF0DEFC07AB0790009322462B4605A95D
S315080044D806A84CF0E3FC0028CBD0002009B0BDE8BC
S315080044E8F08FBAF10B0FCFD0BAF10F0FCCD0BAF1C3
S315080044F8140FC9D0BAF1110F01D1022BC5E7BAF1C9
S31508004508040FC3D1082BC0E7013EB7D0FB68B0B289
S315080045189847C8F800000028DFD0129BAAF1040AB9
S315080045281E800123D8F800705FFA8AFBD8F80020A5
S31508004538B91AB14201DA079909B90398CEE76BB9EE
S315080045480123234903FA0BF30B4204D113F0900F06
S3150800455803D02F2300E026233B700137DDF850905F
S31508004568BA1A4A44B242B8DCA9450399B5D801EB48
S3150800457809039C42B1D862199342AED84A463846CE
S3150800458866F0E6F84B462A46214603A84CF078FC1E
S31508004598034607904F440398002B9FD003785FEA99
S315080045A813199BD10DF1480A4AF8083F21460123F9
S315080045B803A84CF065FC07AB0790009322462B46E8
S315080045C8504603A94CF06AFC4B460028AED084E74F
S315080045D8012801002DE9F04F8BB081460F461D468C
S315080045E8164622B9002420460BB0BDE8F08F0329E9
S315080045F8F8D90028F6D04CF099FC04460028F1D0E2
S315080046083278314622F03F032B70737802F0300275
S31508004618C270837073883A465BBA0381331D069362
S3150800462806A800234CF02CFC3278079002F00F02FB
S315080046382270CAB1082A6DD82369002B6AD1974215
S31508004648069967D38B189E4264D8F019834261D8B5
S3150800465848464CF0ABFC206100285BD03A46314608
S31508004668237806A84CF00CFC4FF0000B069BDFF8E5
S31508004678BCA39B1BFB1A0793DDE90632002A00F048
S31508004688D0811A78FF2A0FD19A1BBA420ADA1A7801
S31508004698FF2A3FD101339E1BBF1BBFB2A781002F3C
S315080046A838D0A361002336E002F00F031209314619
S315080046B80893099201233A4606A84CF0E1FB07AD90
S315080046C807903B463246009506A909A84CF0E6FB32
S315080046D800BB099B03EB0B081FFA88F8434519D852
S315080046E8C34517D83B463246009506A908A8CDF80B
S315080046F824804CF0D3FB68B9B8F11C0F0DD8B8F173
S31508004708020F07D92AFA08F3DB070CD4DDE90725CF
S31508004718954215D90123637065E7B8F1230F02D0CE
S31508004728B8F13C0FF6D1214648464CF009FC00285A
S31508004738F0D0DDE90725AA42ECD3B8F1230F4BD808
S31508004748B8F1020FE6D9A8F10303202BE2D801A194
S3150800475851F823F0BF4800088D4800081D4700088F
S315080047686949000813490008ED4800081D4700086C
S315080047781D4700084F4900080B4800081D47000850
S31508004788314800088B4900081D470008E149000818
S315080047981D4700081D470008354900081D47000839
S315080047A81D4700089D4900081D4700081D470008C1
S315080047B81D470008BF490008034A00081D470008A6
S315080047C81D4700081D4700081D4700081D47000823
S315080047D81D47000849480008B8F13C0F9AD1042D2E
S315080047E898D8D4F81CB09BF80130002B92D1012335
S315080047F829468BF8013006A84CF034FBCBF818008C
S3150800480809E0022D86D86368013383D1294606A8AC
S315080048184CF028FB6060069B9B1B9F42FFF47AAF0F
S31508004828FB1AC346079327E7042D3FF673AF2946B5
S3150800483806A8D4F81CB04CF015FBCBF81400EAE728
S3150800484840F209436A1E9A423FF664AFD4F81CB090
S31508004858DBF83030002B7FF45DAF2A4648460699C8
S31508004868ABF804504CF0A2FBE369CBF830001B6B9D
S31508004878002B3FF44FAF2B463A46314606A84CF074
S31508004888FFFAC8E7E369596B00297FF443AF0421A7
S3150800489801910DF11601009106984946029534339F
S315080048A8FFF7D6FD069000283FF434AFE369BDF854
S315080048B816201A70AFE76B1EFE2B3FF62BAFD4F8FF
S315080048C81CB0DBF83830002B7FF424AF2A4648465C
S315080048D80699ABF806504CF069FBE369CBF8380043
S315080048E89B6BC5E7E369D96B00297FF413AF0821E9
S315080048F801915918029500913C3349460698FFF7E5
S31508004908A7FD0690002886D104E7022D3FF602AFD8
S31508004918D4F81CB0DBF8203001337FF4FBAE294607
S3150800492806A84CF09FFACBF8200074E7E369196CDF
S3150800493800297FF4EFAE1421019103F10A010295CB
S3150800494800914033D9E76369002B7FF4E3AE0B2364
S31508004958019304F10A030093029504F11403CCE7C2
S31508004968022D3FF6D7AED4F81CB0DBF82430013355
S315080049787FF4D0AE294606A84CF074FACBF8240082
S3150800498849E70F21E369019103F10C0102950091AA
S315080049984433B2E7032D3FF6BDAED4F81CB0DBF8B6
S315080049A82C3001337FF4B6AE294606A84CF05AFADD
S315080049B8CBF82C002FE7032D3FF6ACAED4F81CB085
S315080049C8DBF8283001337FF4A5AE294606A84CF053
S315080049D849FACBF828001EE7022D3FF69BAED4F815
S315080049E81CB0DBF8103001337FF494AE294606A8CC
S315080049F84CF038FACBF810000DE7042D3FF68AAECE
S31508004A08D4F81CB09BF80230002B7FF483AE012340
S31508004A1829468BF8023006A84CF024FACBF81C0075
S31508004A28F9E6002B7FF430AE74E600BFD8C19218B9
S31508004A382DE9F0410E4617469846054628B121B194
S31508004A481AB12C20A847044618B900242046BDE800
S31508004A58F0812C22002165F012FE012322462371DB
S31508004A680023C4E90467E560C4F8188042F81C3FC7
S31508004A78226240F2023222800A22A270014AA36206
S31508004A881380E3E7405B002008B566F097F902282B
S31508004A980DD1074B4FF0FF31186867F0B9FE30B1F2
S31508004AA840F28F21034B044A04484AF0BDFE08BD6C
S31508004AB8D825002048F4060836F506087FF40608BF
S31508004AC808B566F07BF902280BD1064B186867F01B
S31508004AD8D3FE30B140F29721034B044A04484AF002
S31508004AE8A3FE08BDD8250020DCF406081CF5060830
S31508004AF87FF40608F8B5044617480D46174604F025
S31508004B0897FD164B186028B99821154B154A16486B
S31508004B184AF08AFEFFF7B8FF4CF0A5FA134B144E75
S31508004B28002C08BF1C46134B1349002D08BF1D4609
S31508004B3812482B462246B1607060F46035613775B5
S31508004B48FFF776FF3060FFF7BBFF00F0D1F9BDE845
S31508004B58F84000F081B800BF74F50608D82500208B
S31508004B6804F5060850F506087FF40608ED0F05084B
S31508004B78DC250020F10F05080D100508F50F0508B6
S31508004B8838B504460D46FFF77FFF064B21462A46E9
S31508004B9853F8140CFFF71EFD0446FFF791FF20464D
S31508004BA838BD00BFF025002038B504460D46FFF786
S31508004BB86BFF054B21462A4618684BF0AEFE04469D
S31508004BC8FFF77EFF204638BDDC25002010B50446D1
S31508004BD818B1806908B14CF015FA034B2146BDE8AF
S31508004BE8104018684CF0C3B9DC25002008B566F0F3
S31508004BF8E5F802280DD1074B4FF0FF31186867F022
S31508004C0807FE30B14FF4CC71034B044A04484AF006
S31508004C180BFE08BD1428002084F5060822F70608A6
S31508004C28B7F5060808B566F0C9F802280BD1064B89
S31508004C38186867F021FE30B140F29F11034B044A09
S31508004C4804484AF0F1FD08BD142800201BF606089A
S31508004C5809F70608B7F5060837B5194804F0E8FC51
S31508004C68184B186028B9D121174B184A18484AF022
S31508004C78DBFD4FF40273342200930A21154B1648BC
S31508004C884CF061FA044618B1D921144B0F4AEDE7DE
S31508004C98134D2871134804F091FCA86018B9E0214F
S31508004CA8114B0A4AE2E72146104A114804F03AFD30
S31508004CB818B9E4210F4B054AD8E703B030BD00BF41
S31508004CC88CF70608142800203FF606083BF706085E
S31508004CD8B7F506080C260020F425002053F6060822
S31508004CE8E8B3002058F7060868F6060868F70608BD
S31508004CF89D4D00087AF60608F7B5436A044663B177
S31508004D089847054648B1A36A53B9032202210020E9
S31508004D1855F0A0FE431C064608D1012003B0F0BD95
S31508004D28204698470028F0D10020F7E728464CF097
S31508004D3874F9431E9BB2B3F5806F0746EDD2FFF7A9
S31508004D4855FF29460E484CF06AF9002802DAFFF79B
S31508004D5869FFE2E72023043401933A4600233046E4
S31508004D68074900941CF0F8F80130F0D02846FFF7F8
S31508004D782DFFFFF757FF304655F08CFED4E700BFE6
S31508004D88B47B00200168D0E90B32014813F0EAB970
S31508004D988EF6060870B5184C4FF0FF310120FFF75C
S31508004DA825FAFFF723FF237933B1D4E902014FF037
S31508004DB8FF33002267F0CFFC104B1E6946B9FFF790
S31508004DC831FF2379002BE7D1206867F058FCE3E721
S31508004DD8237935683BB9D5E90B239A4203D00133C1
S31508004DE876682B63EAE72846FFF786FF10B1284658
S31508004DF8FFF7C8FF0023F3E7E8B30020F4250020EF
S31508004E0870B50646074B1C6914B92546284670BD71
S31508004E18256880223046296865F046FC0028F5D0C2
S31508004E286468F1E75828002008B565F0C7FF022826
S31508004E380DD1074B4FF0FF31186867F0E9FC30B120
S31508004E484FF4C971034B044A04484AF0EDFC08BDFF
S31508004E58F02F00209CF7060833FA0608DCF7060840
S31508004E6808B5074B4FF0FF31186867F0D1FC30B129
S31508004E7840F2A111034B044A04484AF0D5FC08BD80
S31508004E88F02F00209CF70608F3F90608DCF7060851
S31508004E9808B565F093FF02280BD1064B186867F02A
S31508004EA8EBFC30B14FF4CD71034B044A04484AF081
S31508004EB8BBFC08BDF02F00203EF8060810FA0608C5
S31508004EC8DCF7060808B5064B186867F0D5FC30B154
S31508004ED840F2A711034B044A04484AF0A5FC08BD4A
S31508004EE8F02F00203EF80608D6F90608DCF706086B
S31508004EF807B5134804F09CFB124B186028B9B4216F
S31508004F08114B124A12484AF08FFC4FF470731E214F
S31508004F18009320220F4B10484CF015F9014618B19A
S31508004F28BC210E4B094AEDE70D4A0E4804F0FAFB78
S31508004F3818B9C1210C4B054AE4E703B05DF804FB30
S31508004F48CCFA0608F02F00206FF8060864FA060857
S31508004F58DCF70608302C00205828002053F60608E7
S31508004F68A8FA06088950000890F8060838B50F4BBD
S31508004F7805461C69FFF758FF5CB90C484CF0F8F869
S31508004F8870B12022294665F0E3FBFFF781FF20462A
S31508004F9809E0236880222968186865F085FB18B92E
S31508004FA8FFF776FF012038BD6468E5E75828002032
S31508004FB8F8B5114B00241D69FFF736FF4FF47072D8
S31508004FC800210E4865F05BFB0C4E35B9FFF760FF0C
S31508004FD80A48002C08BF2846F8BD1D2C0AD806EB37
S31508004FE8441720223846296865F0B2FB0CB147F801
S31508004FF8047C01346D68E8E75828002070280020EA
S3150800500838B5084B084D1C69FFF72AFF1CB9BDE8D7
S315080050183840FFF757BF23682846196813F0A2F8DF
S315080050286468F3E758280020CED30608014813F029
S3150800503899B800BFA2F8060808B50846FFF7F6FFAC
S31508005048BDE80840014813F08DB800BFA2F8060865
S31508005058014813F087B800BFD1F80608014813F0CD
S3150800506881B800BF0BF90608014813F07BB800BFE2
S315080050783AF90608014813F075B800BF6EF906082C
S315080050882DE9F04F87B0002634463546DFF8ECB1EF
S31508005098DFF8EC910596ADF812604FF0FF31012064
S315080050A8FFF7A4F803220221002055F0D3FC431C7D
S315080050B8074606D140F2E5116B4B6C4A6C484AF034
S315080050C8B3FB0023CBF800306A4BDFF8B8C103F10D
S315080050D8100E624618685968083303C27345944621
S315080050E8F7D141F2336055F0A0FC2022ABF8040052
S315080050F85946384605921BF001FF01301ED0DFF8E5
S3150800510888A105ABCDE900934FF480620023514688
S3150800511838461BF065FF002840F39080514680B258
S31508005128FFF72EFD05460028EBD08378013B032BB5
S3150800513809D901464846FFF77FFFE2E74FF4F871B9
S315080051484D4B4A4ABAE7FFF733FF29460DF11202D3
S3150800515800F0C2F8064688B12A46BDF812104BF088
S31508005168D9FF044600283BD12846FFF72FFD2046DD
S31508005178FFF72CFD30464BF045FFC2E728464BF0B3
S3150800518850FF18B92846FFF763FFBAE70390FFF7F9
S3150800519837FE8046039B18464BF034FFB8F1000FDC
S315080051A82AD0D8F8103093B9D8F8143023B329463A
S315080051B848469847044668B92846FFF707FD204633
S315080051C8FFF704FD20464BF01DFF002499E7284603
S315080051D89847EFE7D8F8183013B12946484698474C
S315080051E820464BF01AFFB0F5806F804621460BD94A
S315080051F82846FFF733FFB7E784212846FFF7D4FC8C
S3150800520804460028ECD1D7E750464BF008FF00289B
S3150800521804DA21462846FFF727FFA5E7059B4246F5
S31508005228CDE900935146002338461BF095FE013018
S315080052389AD121462846FFF71DFF95E701307FF4E6
S3150800524860AF4BF026FA00287FF45BAF384655F076
S3150800525821FC2846FFF7BAFC2046FFF7B7FC30467C
S315080052684BF0D0FE19E700BFA1F9060856FA06085A
S31508005278DCF70608CA630708BDF9060838280020B7
S315080052881828002044280020B47F0020012808D0C8
S31508005298022814BF022301232820034A00FB0320FF
S315080052A870470023F8E700BF1CFB060838B50D460B
S315080052B809682C23074A0131044612F07BFF031EAE
S315080052C806DB2A689A4203D3D21AE0182A6038BD40
S315080052D80020FCE7DC2508082DE9F04F91B00746C1
S315080052E80C460592002118220AA865F0C8F9002F6D
S315080052F84CD0002C4AD06389013B9BB27F2B45D8FA
S31508005308A378012B42D120464BF08BFE0290002849
S315080053183CD08022A74965F0C7F9E3698146002B86
S3150800532839D05D6C1DB19D89003D18BF01253E46E3
S31508005338D6F8008040464BF09FFE834668B1DDF8F4
S315080053483CA0BAF1000F29D10C204BF04FFE20B132
S31508005358C0E9008B0F90C0F808A0F669002EE7D1BF
S31508005368B9F1000F40F0EB80002D00F0DF80E3690B
S315080053789889013080B24BF039FE054660BB0F9814
S31508005388002840F08E8002984BF03CFE00263046F6
S3150800539811B0BDE8F08F1D46C9E79A46DAF8043019
S315080053A89B4510D0DAF80830002BF6D10C20039369
S315080053B84BF01CFE0028D0D0039BC0E9008B836005
S315080053C8CAF80800C9E75A464146DAF8000065F0FF
S315080053D82CF90028E6D1C0E7E369B1469A89596CE1
S315080053E865F0B6F9E36980219B892846EE544CF0A6
S315080053F843F8714C8046A346E169002958D02846E7
S3150800540865F083F90A90002852D0282303FB09B3CC
S315080054181C6A0D930444A54248D8A844444528BFA5
S315080054280024802120460A944CF026F80B90002880
S3150800543846D101244FF000080220FFF727FF039002
S315080054480320FFF723FFDDF83CA08146002840F03B
S31508005458B7800027059BB8B218809CB90746013063
S3150800546880B24BF0C3FD0997064658B1B8F1000F4C
S3150800547840F0218180460E9CDFF840B1002C40F0B0
S315080054881E81F455BAF1000F40F03A810E980028AB
S3150800549840F03D8128464BF0B5FD02984BF0B2FD29
S315080054A875E784684BF0AEFD204669E70024B8E73F
S315080054B809F10109B9F1030F04F128049CD1B8E7E9
S315080054C8002CB6D0B94699F80C302BB10D9B1B7831
S315080054D8022B09D0032B26D0D9F81C90B9F1000F56
S315080054E8F1D14C46C84611E0D9F804000028F3D093
S315080054F880220A9965F0D8F880460028ECD14846F3
