:020000040800F2
:1000000000100020C15A0008BD140508BD140508E1
:10001000BD140508BD140508BD140508BD14050868
:10002000BD140508BD140508BD140508BD14050858
:10003000BD140508BD140508DBA60008BD1405089D
:10004000BD140508BD140508BD140508BD14050838
:10005000BD140508BD140508BD140508BD14050828
:10006000BD140508BD140508BD1405084D3D000864
:10007000D5060508BD140508BD140508BD140508FE
:10008000BD140508BD140508BD140508BD140508F8
:10009000BD140508BD14050891620008BD140508CB
:1000A000BD140508BD140508D15E0008B15E000846
:1000B000BD140508BD1405082DED010819F8010847
:1000C00003A30508FFA205089DEF010819A3050871
:1000D00007A30508E9F701080BA3050859F801086B
:1000E00049F90108BD140508BD140508BD1405082B
:1000F000BD140508BD140508BD140508BD14050888
:10010000BD140508BD140508BD140508BD14050877
:10011000BD140508BD140508BD140508BD14050867
:10012000BD140508BD140508BD140508BD14050857
:10013000BD140508BD140508BD140508BD14050847
:10014000BD140508BD140508BD14050855AC00080C
:10015000BD140508BD14050849D1060881D0010861
:10016000BD140508BD140508F3A20508F9A2050889
:0C017000BD140508BD140508BD140508E9
:10017C00F0B5114A114C124E00F00105E3695F070E
:10018C0013D40DB9334213D103EA00078F4207D1C0
:10019C000B4A1A40002A0CBF00206FF00100F0BD82
:1001AC00013AEBD16FF00200F9E74FF0FF30F6E7C0
:1001BC006FF00100F3E700BF809698000000035039
:1001CC000200010070B50B4BD96911F480310DD1CF
:1001DC0001244FF48072084E084DF46020462C64C4
:1001EC001A61FFF7C5FF3464EC6070BD6FF001005D
:1001FC00FBE700BF00000350001003500020035029
:10020C0038B54FF480320E4B0E4C9A66E56941F6C8
:10021C00713315400122E3630B4B0021DA6002239A
:10022C00606121202361FFF7A3FF10B92120FFF7A4
:10023C009FFF0122054BDA600DB10023E36338BD4B
:10024C000090005000000350001003500020035099
:10025C0070B5134C6061E3695B071ED40E4656F80B
:10026C00043B8D18A361AE420BD104230021212045
:10027C002361FFF77DFF58B9BDE870402120FFF7DF
:10028C0077BF08210846FFF773FF10B104232361E1
:10029C0070BD56F8043BA361E5E74FF0FF30F7E77C
:1002AC00000003502DE9F84315464FF48032184BEB
:1002BC0089469A6603F51C33DF690646174041F6FA
:1002CC007132DA63012203F58053DFF84C80DA6077
:1002DC0055B9284601220F4BDA601FB10022A3F555
:1002EC000053DA63BDE8F88306F5005404EA080409
:1002FC00A41BAC4228BF2C46494622463046FFF789
:10030C00A7FF0028E6D12644A1442D1BE0E700BF3F
:0C031C00009000500020035000E0FFFFA4
:100328002DE9F04100231546C2E900014FF47A7225
:1003380080460F464FF014F918A3D3E9002304466A
:100348000E46404639464FF00BF9134B80B22881D0
:100358005843241A66F100064FF4616200232046D0
:1003680031464FF0FDF84FF46163C0B2A8725843AC
:10037800241A20464FF03C024FF0000366F10001BA
:100388004FF0EEF8C0B2E872C0EB0010A4EB8004A6
:100398002C73BDE8F08100BF80510100005C260588
:1003A80000000000000000002DE9F04F93B0CDE9F7
:1003B8000A32DDE91C530E9353EC102BCDE90801EA
:1003C800104619468DED060B1E9E4EF0A1FE80B11B
:1003D800DDE906014FF0FF32C54B4EF0C1FE40B9D2
:1003E800DDE906014FF0FF326FF480134EF09AFEFC
:1003F80070B1DDE908019DED060B0E9B1E96CDE957
:100408001C53DDE90A3213B0BDE8F04F00F088B99B
:100418000022DDE9060100234EF084FE002800F0EA
:100428003381DDE906A303F1004BCBF30A5016F440
:100438008063A0F2FF3008BF06250F934EF096FBAD
:100448009BA3D3E900234EF0FBFB9BA3D3E9002336
:100458004EF040FACBF31304894644F07F518046AE
:100468000022A44B504641F440114EF031FA94A3B7
:10047800D3E900234EF0E4FB02460B4640464946CA
:100488004EF028FA4EF076FE04464EF06FFB8EA32F
:10049800D3E90023804689464EF0D2FB0022964BD2
:1004A8004EF018FA4EF066FE89A3D3E900230746FA
:1004B800494640464EF0C4FB8046384689464EF0D1
:1004C80055FB85A3D3E900234EF0BAFB02460B4641
:1004D800404649464EF0FCF902460B46CDE90C234E
:1004E8004EF0AEFBDDE90C238046894610461946DE
:1004F8004EF0F0F90022CDE91001804B4046494604
:100508004EF0C8FC00227E4B4EF0E4F902460B4642
:10051800404649464EF0BEFC00227A4B4EF0DAF9CE
:1005280002460B46404649464EF0B4FCDDE90C2332
:100538008046894600204FF080414EF0C9F90246B6
:100548000B46404649464EF0C5F902460B46DDE9E2
:1005580010014EF09FFC07F2FF3700226A4B4EF065
:10056800B9F900223B054EF06BFB52465B468046CC
:1005780089464EF0F5FD002840F08980CDE90C89C8
:1005880004F16303C72B34BF0427052731051BD5A6
:1005980053A3D3E90023504659464EF0D7FD00280F
:1005A8007FD051A3D3E90023504659464EF0BAFDF7
:1005B800002876D00027A542C6BF2C1B04F1FF35C2
:1005C80000253C4646F480660E9B9F422CBF4FF0A8
:1005D8000008A3EB070816F0020903D0002F18BF84
:1005E8004FF000083CB1DDE90C23504659464EF067
:1005F80051FC82468B46DDE90601002200234EF0BD
:1006080091FD10B10BF100439B46DDE9080126F48A
:100618000063CDE90183DDE90A324BEC10AB0095AC
:1006280000F07EF802465FB3DDE9091316F0200FEB
:1006380000F10105089E0CBF65204520B047DDE9A3
:1006480008010523002205930A23002CCDE9023274
:1006580007F1FF374FEAD473B8BF64422A460193C3
:1006680004970A9B009459F0B7F80246B9F1000FB5
:1006780006D00B9BC41A0B9B1A190E9BA34245D894
:10068800104613B0BDE8F08FDDE906ABCDE60022D9
:10069800404649461A4B4EF0FDFB013CCDE90C01A2
:1006A8006EE7002D90D00F9B002B8DD0013D8BE77E
:1006B800FB799F501344D33FB3C8608B288AC63F49
:1006C80061436F63A787D23F71A379094F930A40AB
:1006D8001655B5BBB16B0240EF39FAFE422EE63F24
:1006E8002D431CEBE2361A3F0000000080842E41A7
:1006F800FFFFEF7F0000F83F0000E03F00002C40C4
:1007080000002440000018400000F03F2020DDE9F0
:100718000913089DA8470134ADE700BF0000000099
:100728002DE9F04F97B05BEC10ABDDE92057CDE930
:100738000501CDE90723504652465B465946229E9D
:100748004EF0E6FC70B90323CDE902760193B04B75
:100758000093DDE90501DDE9072358F05DFF17B0D7
:10076800BDE8F08F4FF0FF326FF4801350465946C2
:100778004EF0D8FC28B10423CDE902760193A54BAD
:10078800E6E74FF0FF3250465946A34B4EF0E8FCDF
:1007980068B1A24A06F00403002B08BF0322A04B4D
:1007A8001CBF13460422CDE902760192D0E75046D9
:1007B80093A3D3E9002359464EF0D2FC38B992A34B
:1007C800D3E90023504659464EF0ACFC68B1DDE948
:1007D8000723DDE905014BEC10ABCDE92176209527
:1007E80017B0BDE8F04FFFF7DFBD002200235046E9
:1007F80059464EF097FC002800F09A805B46524616
:10080800002000214EF064F8012382468B460993AC
:1008180016F4806400F08E80092D40F28E8000244A
:1008280030210EABA5F109020134202C03F8011B7D
:10083800A5EB040901D09442F6D1594650464EF032
:1008480099FC784B054603EBC90393ED007B8DEDCE
:100858000A7B4EF08BF902460B46504659464EF03D
:1008680037F8DDE90A234EF0EBF902460B46CDE9ED
:100878000C234EF0A7FC80464EF068F902460B4662
:10088800DDE90C014EF024F802460B46CDE90C23B5
:100898000022654B4EF064FC002851D008F1010895
:1008A80040464EF053F902460B46DDE90A014EF088
:1008B80043FC10B14FF000080135B9F1000F50D1D9
:1008C80028464EF053F902460B46504659464DF01D
:1008D800FFFF0022544B804689464EF023FC30B17E
:1008E800002240464946504B4EF03AFC10B1E8070A
:1008F80000D501350A210EAB1A19202C0AD095FB18
:10090800F1F001FB1055303502F8015B0134054662
:100918000028F2D106F00302012A57D1002F55D042
:10092800099A12B916F00C0F00D0013F302245E0A9
:1009380009906DE74FF006097FE7A94600247CE798
:100948000022DDE90C01384B4EF0ECFB0028B4D155
:10095800B8F1000F02D018F0010FAED008F101086D
:10096800ABE70A210EAB2344202C0ED0B8FBF1F0E4
:1009780001FB1082B8F1090F02F1300209F1FF39C9
:1009880004F1010403F8012B11D83021A1440EAA67
:10099800202CAFD0A14504F101030AD11C4609F16E
:1009A80058030DEB03092E2309F8203CA2E78046E3
:1009B800DAE7A1541C46EBE71A550134A74205D9DA
:1009C800202CF9D1CDE902760194C1E6202CF9D08A
:1009D800099A3AB12D2104F158026A4402F8201C00
:1009E8000134EFE7710704D504F158022B216A445A
:1009F800F4E73207E6D504F1580220216A44EDE70E
:100A08000000000065CDCD410000000065CDCDC1DE
:100A1800671B07086B1B0708FFFFEF7F5E1B0708B4
:100A2800631B0708701B07080000E03F0000000078
:100A380070B5A8B02C2200211DA869F04CFE4FF01B
:100A480002331F9340F20B13874D14ACADF89C3062
:100A58000FCD0FC40FCD0FC42B6884492360844B7E
:100A6800844807930023CDE908330A931FF07AF8E6
:100A7800814D286000284FD0012159F056FC20B143
:100A880040F24A417D4820F071FB286859F011F87E
:100A98007B4E3070286859F00EF87A4B7A491870F6
:100AA80028681FF09DFB044600282FD13378774E25
:100AB8005BB9774823F084FF3060E0B940F27B41AE
:100AC800744B754A6D484EF0DBFE744823F078FF8E
:100AD80030600028EDD0C18928681FF0F1FA33682A
:100AE8002146586823F0A6FF044678B9684823F0E1
:100AF80067FF306090B1C18928681FF0E1FA336858
:100B08000421586823F096FF044638B12346222171
:100B18000220634A59F0A8FF28B070BD08F0A6FC6F
:100B2800604A04ABCDE904010393A2F1080113F86C
:100B3800010B02F8010D9142F9D10622FF210BA801
:100B480069F0C9FD0622FF210DF1320069F0C3FDED
:100B5800182200210EA869F0BEFD08220EA903A8DC
:100B680069F022FE41F234231C22002120A8ADF8AE
:100B78002C3069F0B0FD28681DA91FF02DFD044632
:100B88000028C3D14849286859F0F3FC04460028D6
:100B9800BCD14649286859F0D6FC04460028B5D18E
:100BA800434928681FF016F904460028AED12CA343
:100BB800D3E90023CDE90023286859F0DCFC04467A
:100BC8000028A3D13B4A3C49286859F02EFD044629
:100BD80000289BD1012059F0C0FB00289CD0A023FD
:100BE800364A07A8D380364A136008F013FD354B00
:100BF800186020B940F2C441334B274A62E72246C5
:100C08000121082008F064FE304B186020B940F23A
:100C1800C7412F4B204A55E700220121082008F040
:100C280057FE2C4B186020B940F2CA412A4B1A4A89
:100C380048E72A4A2A492B4825F0FEFB294842F072
:100C480023FE0021284814AA08F098FD274B1860B5
:100C580000287FF461AF40F2D641254B0E4A31E7B8
:100C6800C88D01C103400000489507084D47020898
:100C7800F28B0708C8B80020E8510020CF89070880
:100C880038A8002037A8002007001100A041002044
:100C98009DBC0508078C07084894070887BC050809
:100CA800928C070841A80020469507084495070834
:100CB800EC51002076BA0020E0410020E8B800207E
:100CC80054520020685200201F8C070864520020EC
:100CD8003B8C070860520020588C0708788C07085E
:100CE800E54B020808520020795C02086C5200208B
:100CF800818C0708000000002DE9F3470546584C91
:100D080022211020574A59F0AFFE182229462046C2
:100D180069F04AFDA27B544BDFF894A11A70E37C7A
:100D280000228AF800300023CDE90023DFF884810F
:100D380000224FF40073D8F8000059F01CFC064656
:100D480020B10126304602B0BDE8F087474B484F36
:100D58001B787BB9474823F033FE04463C60FCB956
:100D6800454A2221022059F07FFE0122434B2126C9
:100D78001A70E7E7424B434C1A88434BD8F80000F7
:100D880053F82210414A8B6821603B601FF082F9BA
:100D980022683F4B946824221B8802FB0344DDE74A
:100DA8003C4B1C60374BD3F80090B9F1000F07D0CB
:100DB80000232420D9F80C108B4208D100251AE012
:100DC80040F23671344B354A35484EF059FDD9F862
:100DD800085000FB0355EA695278120912F00E0F09
:100DE8002ED0052A2CD82F4B0021EA89B3F9000010
:100DF8003D6023F057FE18A3D3E90023CDE9002373
:100E0800D8F8000059F0B7FBD9F80820AA4207D053
:100E1800254B3A600421D289B3F9000023F042FE41
:100E2800224BE2893C601A809AF800301B0913F0C3
:100E38000E0F07D024F0FCFD012024F091FA81E781
:100E48000133B9E701220721D8F8000059F0A5FCC1
:100E58000028EFD075E700BFC88D01C1034200002C
:100E6800A4410020239007082FA8002032A80020C2
:100E7800A0410020254B02083F90070830A8002019
:100E8800B65B002094410020C4B3002059470208F3
:100E9800B45B00209C4100207B900708069307085C
:100EA800CF89070878BA00207ABA002070BA0020E3
:100EB8002EA80020E85100202DE9F8434468054693
:100EC80094F9013090F8E8715A1C1AD17B1E5BB274
:100ED800637000EB431393F825302370A0684DF03E
:100EE80057FE38A3D3E900238046894694F9016068
:100EF8004EF036F908B3002E1FDD013E0023667060
:100F080026E09F4206DD00EB431393F82520237863
:100F18009A42E3D0002305F1250263709F4204D86A
:100F28007B1E637000232371D8E75901505C217838
:100F3800884208BF63700133F0E7404623A3D3E932
:100F4800002349464EF00CF900B32379F3B1013B75
:100F5800237194F9013005EB431393F8253023707E
:100F680047B385F8EA31052395F8022285F8EC3174
:100F780085F8F02100230E2285F8EB3185F8F2215F
:100F880085F8F13105F5F570BDE8F88340460FA303
:100F9800D3E9002349464EF0C5F80028D9D0237973
:100FA8000133DBB2092B2371D3D97B1EB342D0DDC9
:100FB8000136A3E727210220014A59F055FDE1E750
:100FC80056410808666666666666E63F9A99999984
:100FD8009999B93F000000002DE9F8432DED028BE7
:100FE80087680546384616460C464DF0D1FD28A3BD
:100FF800D3E90023804689464EF0B2F888BB26A381
:10100800D3E90023404649464EF08CF860BBF7EE22
:10101800007A07EE107A87EE878A6B7F607F01225D
:10102800834224D0002143F0CBF801220446314604
:10103800687F43F0C5F8044404F2D5702860D8B13D
:1010480007EE900AF8EE677A9FED0D7A67EE887AD8
:1010580087EE270ABDEC028B10EE103AEB60BDE874
:10106800F8839FED088AD8E79FED078AD5E73146D0
:10107800184643F0A5F8E1E79FED040AEAE700BF48
:1010880000007A44E4388E3F00401C46000000000F
:10109800CDCCCCCCCCCCEC3F9A9999999999B93FC5
:1010A8002DE9F74F064690F8E8010D469146A0B3A2
:1010B8007468A3690133A361A37D06EB43131A7F08
:1010C80002441A77D4E90732C3EB520207EE902A9A
:1010D8004000B8EE677A07EE900AF8EEE76AF4EE99
:1010E800C76AF1EE10FA0BD507EE903A37EE667A3A
:1010F800F8EE677A77EE877AFCEEE77AC4ED077A3E
:101108004FF0000BD9450BD842F21073A2699A42EE
:1011180082BF0023C4E90633236203B0BDE8F08F21
:10112800B5F802A02F79BAF1000F2ED038464DF04D
:101138001DFDCDE9000150464DF018FD02460B4655
:10114800DDE900014DF0A6FE02460B4600204C49A1
:101158004DF0BEFB4EF056F807EE100A96F8033233
:10116800AAEB0700034486F8033294F8243033B31B
:1011780094F825305B4522D1BAF1000F08D1C4F8A4
:1011880020A00BF1010B0635BCE7B7EE007AE5E7C6
:10119800E3690133E3612A78002AF2D000239846F4
:1011A80096F8E8C106F108019C450FD8B8F1000F80
:1011B80014D127210220334A59F056FCE1E72A7856
:1011C800002ADED0BAF1000FDBD0E7E791F81DE086
:1011D8000133964508BF88462031E5E7002288F8A4
:1011E8001420B8F81020D8F8043017440133BAB2E4
:1011F800C8F80430A8F810701AB198F81D2086F8BD
:101208001422F7EE007A012B77EEC77A8CBFB3EE83
:10121800097A9FED1D7AB8F8122088BF67EE877AA1
:101228000244A8F81220D8F808208CBF9FED177A3E
:1012380067EE877A06EE102ADFED156AE6EE077A82
:1012480087EEA67A17EE103A17EE100AC8F808309B
:101258004DF09EFC08A3D3E900234DF063FF18B1BD
:10126800FF2388F815308CE798F91530013388D1B9
:101278000423F6E7AFF30080666666666666EE3FAF
:101288000000F03F764108080000484200009642FE
:101298000000C842000000002DE9F04F2DED028B40
:1012A800054600274FF0200A4FF0080B0B46082090
:1012B8004D4A87B08846272159F0D6FB95F8E83182
:1012C80027210820494A59F0CFFB6C6805F1080628
:1012D800E37D23716371637595F8E891B9450DDC79
:1012E8003FA7D7E900674FF00008AA46C346C145A3
:1012F80046D807B0BDEC028BBDE8F08FE17D4246D1
:101308001AFB01B130462944FFF766FE96F81D9096
:101318000495F0684DF03CFCCDE90201B0684DF051
:1013280037FC4B46CDE90001314A2721082059F006
:101338009BFB2379D6ED037A05EB431292ED057AF0
:10134800F4EEC77AF1EE10FA02DB327F22710EE07A
:1013580017B995F82420F9E7637905EB431393ED62
:10136800057AF4EEC77AF1EE10FA04DB337F637185
:1013780001372036B0E7012FFAD195F84430F6E767
:10138800E37D434515D09AED048A18EE100A4DF016
:10139800FFFB32463B464DF0D9FE10B9BBF1000FBA
:1013A8000CD19AF8243022799A4202D062799A4272
:1013B80011D108F101080AF1200A98E7637D05EBCD
:1013C8004313D3ED047AB4EEE78AF1EE10FAE8DAC3
:1013D8004FF0010BEDE76375FAE700BFAFF300804C
:1013E800666666666666EE3F8E410808B041080884
:1013F800BF410808000000002DE9F047D0F804803C
:1014080000EB411393F8245098F817300446AB4288
:101418002DD098F81530AB4229D000EB411ADAF8F4
:1014280010004FEA41194DF0B3FB13A3D3E9002391
:1014380006460F464DF080FE10B99AF91D00A0B17E
:1014480098F80430AB4212D098F80530AB420ED071
:1014580009A3D3E90023304639464DF081FE18B17F
:101468004C44637F013B63770120BDE8F08700208F
:10147800FBE700BFAFF30080666666666666EE3F10
:101488002DE9F34704460E46456827210820804A7F
:1014980059F0EAFA20463146FFF7FEFE284668F082
:1014A800C3FA002800F0BC80204668F0D0FA06464F
:1014B800034627210820774A04EB461759F0D4FA47
:1014C8002721082097F82530734A59F0CDFA002EC5
:1014D800C0F2A68094F8E83195F804E09E4295F8A9
:1014E80015C080F29D80012204EB4E1185F824205E
:1014F8000B6A386A97F8258098420FFA8CF302D85D
:10150800387F322877D9012284F8EC21002284F828
:10151800EA8184F8EB21A87D287091F8250084F8E9
:10152800F00191F8261084F8F12184F8F21185F879
:1015380001E004EB431393F82510012684F8F61113
:1015480093F8263084F8F831002384F8F73185F8C9
:1015580002C085F82520A04605F1FF3904F1120ADA
:1015680019F8013F5F1C002E00F0868004EB43133E
:1015780018694DF00DFB02460B46CDE9002340A348
:10158800D3E900234DF0ECFD40B93FA3D3E9002394
:10159800DDE900014DF0C6FD00286DD004EB4717CA
:1015A800BB79042B8EBF02230133C3F3460388F8AB
:1015B800EC3108F10608C245D2D1EA7D04F5F57090
:1015C80004EB421393F8253084F8FC31002384F8A7
:1015D800FD31EA7085F8243094F8F22194F8EC3162
:1015E800134494F8F821C3F113039B1A84F8FE31CD
:1015F80002B0BDE8F08791F8250084F8EA0191F877
:10160800261084F8EC11002184F8EB1185F800E02D
:1016180084F8F08184F8F22184F8F1116E7088E77B
:1016280000262A7904EB421393F8251084F8EA116E
:1016380093F8263084F8EB6184F8EC312A706A79E3
:1016480004EB421393F8251084F8F01193F8263030
:1016580084F8F16184F8F2316A706A7D04EB421310
:1016680093F8251084F8F61193F8263084F8F7617A
:1016780084F8F831AA706EE704EB4717BB7996E750
:10168800666666666666EE3F9A9999999999B93F32
:10169800E3410808F1410808014208080000000079
:1016A8002DE9F8432DED028B876805463846164626
:1016B8000C464DF06DFA2EA3D3E9002380468946E7
:1016C8004DF04EFD00283DD12BA3D3E90023404621
:1016D80049464DF027FDC0BBF7EE007A07EE107AB9
:1016E800AB7F87EE878A07EE903AB8EEE77AB4EEDA
:1016F800C87AF1EE10FA01D5B8EE678A6B7F607F81
:101708000122834224D0002142F05AFD01220446DE
:101718003146687F42F054FD044404F2D5702860D5
:10172800D8B107EE900AF8EE677A9FED0D7A67EE6A
:10173800887A87EE270ABDEC028B10EE103AEB6030
:10174800BDE8F8839FED078AD8E79FED078AD5E7BC
:101758003146184642F034FDE1E79FED040AEAE716
:1017680000007A44E4388E3F00401C460000000028
:10177800CDCCCCCCCCCCEC3F9A9999999999B93FDE
:101788002DE9F04F2DED028B90F8E83105460E4615
:10179800934689B0002B00F0238127210820964A20
:1017A80059F062F900226C68A1690131A16195F8CC
:1017B800E80190423DD8D4E907230A2779436427F2
:1017C800B1FBF7F1C2EB53030B4407EE903A430029
:1017D80006EE903AF8EE677AF8EEE66AF4EEE76A13
:1017E800F1EE10FA0BD507EE102A77EEE67AB8EE8E
:1017F800477A77EE277AFCEEE77AC4ED077A002776
:10180800B846BB451DD8B8F1010F00F0E680B8F125
:10181800130F40F2B9800023A3612721082095F80F
:101828000332764A09B0BDEC028BBDE8F04F59F09F
:101838001BB9A37D013205EB43131F7F01371F77C7
:10184800B7E7B6F8029096F804A0B9F1000F41D0B6
:1018580050464DF08BF9CDE9060148464DF086F922
:1018680002460B46DDE906014DF014FB02460B4625
:10187800002063494DF02CF84DF0C4FC08EE100A26
:10188800337818EE100A069304954DF081F9069BFB
:10189800CDE902015B4A27210820CDE9009A59F0D9
:1018A800E3F87288337995F80312D31A0B4485F854
:1018B800033294F82430C3B194F82530BB4214D1D4
:1018C8005AB92262272108204F4A59F0CDF801372A
:1018D800063696E7B7EE008AD2E7E3692721013397
:1018E80008204A4AE36159F0BFF8B6F802A0BAF1F5
:1018F800000FECD00023E25D05EB4211C8680B77BE
:101908000130C86096F804C00B8B4FEA4219634453
:101918009BB20B831BB191F8253085F81432F7EE92
:10192800007A05EB0902538B01285344A3EB0C03FF
:1019380077EEC87A53830DD9B2EE0E7AD2ED046AE7
:1019480027EE877ADFED327AA6EEA77ADFED316AE5
:10195800C7EE267AA944C9ED047A17EE900A4DF02D
:1019680017F923A3D3E900234DF0DCFB30B1FF23A3
:1019780089F81D30C2441FFA8AF8A8E799F91D3082
:101988000133F7D10423F3E7B8F1020FD4ED0B7A52
:10199800B1EE047A15D977EE877AB3EE047AF4EECD
:1019A800477AF1EE10FA77FE277A42F21073A269AD
:1019B800C4ED0B7A9A4282BF0023C4E9063323623E
:1019C8002BE7F2EE046A77EEE67AF4EE477AF1EE68
:1019D80010FA48BFF0EE477AE7E7DFED0F7AE4E761
:1019E80009B0BDEC028BBDE8F08F00BFAFF30080FB
:1019F800666666666666EE3F46420808AC420808B8
:101A08000000F03F5C4208088D4208089C42080824
:101A18000000AA420000C8420000000000000000C8
:101A28002DE9F84F2DED028B0546884600274FF02B
:101A380020094FF0080B446800F10806E37D237184
:101A48006371637595F8E8A1BA450CDC0FF2D0090B
:101A5800D9E9008900262F46B346B24532D8BDECF5
:101A6800028BBDE8F88FE17D424619FB01B1304693
:101A78002944FFF715FE2379D6ED037A05EB4312C7
:101A880092ED057AF4EEC77AF1EE10FA02DB327FB6
:101A980022710EE017B995F82420F9E7637905EB70
:101AA800431393ED057AF4EEC77AF1EE10FA04DBEE
:101AB800337F637101372036C4E7012FFAD195F8D7
:101AC8004430F6E7E37DB34215D097ED048A18EE6B
:101AD800100A4DF05DF842464B464DF037FB10B901
:101AE800BBF1000F0AD197F8243022799A4202D02C
:101AF80062799A420FD101362037AEE7637D05EB54
:101B08004313D3ED047AB4EEE78AF1EE10FAEADA79
:101B18004FF0010BEFE76375FAE700BFAFF3008002
:101B2800666666666666EE3F2DE9F047456890F89A
:101B3800E821AB690446B3EB420F2ED900EB411301
:101B480093F82480EB7D43452AD06B7D434527D00D
:101B580000EB411ADAF810004FEA41194DF018F875
:101B680011A3D3E9002306460F464DF0E5FA10B954
:101B78009AF91D0090B12B79434511D06B794345F3
:101B88000ED009A3D3E90023304639464DF0E8FAD0
:101B980018B14C44637F013B63770120BDE8F087AF
:101BA8000020FBE7AFF30080666666666666EE3F78
:101BB8000348044B834202D0034B03B118477047D4
:101BC80074C6002074C6002000000000064B0749B8
:101BD800C91A891048BF0131491003D0044B0BB111
:101BE80001481847704700BF74C6002074C600201B
:101BF8000000000010B5064C237843B9FFF7D8FF62
:101C0800044B13B10448AFF300800123237010BDC7
:101C1800C65B002000000000A456080808B5054B64
:101C28001BB105490548AFF30080BDE80840FFF740
:101C3800CDBF00BF0000000098230020A45608086C
:101C4800A3F5803A704700BF174B002B08BF134B12
:101C58009D46FFF7F5FF00218B460F461348144AAF
:101C6800121A68F038FD0E4B002B00D098470D4B28
:101C7800002B00D098470020002104000D000D48DB
:101C8800002802D00C48AFF300804EF0A7F92000DE
:101C980029004EF0B8FC4DF011FE00BF000008000E
:101CA80000000000000000000010002000100020CC
:101CB8009CB1002000000000000000002DE9F04366
:101CC8009BB000AF00230446F81CC7E9013359F064
:101CD80081F818B181B2184816F070FA6A46FB7894
:101CE800F81CA2EBC3039D466946E84659F087F8FD
:101CF80018B181B2114816F061FA0026FB78F5B2E6
:101D0800AB4210D908EBC509484607F10C0159F058
:101D18008FF8FB6A0136002BF0D158F83500D9F856
:101D280004103B1D03C33B1D03CB206020466C37CA
:101D38006160BD46BDE8F083A8D10608E1D1060878
:101D480013B56846FFF7BAFF064C009B06492360A7
:101D5800019B06486360E379A27902B0BDE81040B0
:101D680016F040BA7764002015D20608386D0020B6
:101D780030B597B010A859F0A3F84EF03DFC11AD5E
:101D880002461749284616F02DFAFFF7D9FF154BDA
:101D9800BDF84020D3E90A01CDE90E01D3E90801D5
:101DA800CDE90C01D3E90601CDE90A01D3E9040123
:101DB800CDE90801D3E902010B4B0C4C01930C4B04
:101DC800CDE90601CDE9032200934FF48061204656
:101DD800084B094A029516F019FA204617B030BD8B
:101DE800F39E070800100020386D00208768002047
:101DF800B9D20608406D00202CD206082DE9F04F14
:101E0800A9B080464EF0F8FB654C0FAF0246654915
:101E1800384616F0E7F9FFF793FF2378052B65D1CD
:101E280001F07CFC604ADFF8B0B1D2E90045041B40
:101E380061EB05052946204601F04AFC594902464E
:101E480019A816F0CFF9DBE90001201845EB0101CC
:101E580001F03EFC554E0DF17809024651494846BD
:101E680016F0C0F9D6E9000101F032FC0DF18C0A38
:101E780002464C49504616F0B5F9DBE90032E41841
:101E880045EB020520462946CDE90A9A4CF0A2FE08
:101E98000022474B4CF0D4FE82468B46D6E900011F
:101EA800201845EB01014CF095FE0B4602465946B9
:101EB80050464CF0EFFFCDE908013E4B1B880693D6
:101EC8003D4B059319ABCDE903733C4B4FF480614F
:101ED80002933B4B3B4A01933B4B3C4800934346A0
:101EE80016F094F9394829B0BDE8F08F01F016FCD6
:101EF800374ADFF8E490D2E90056451B61EB060645
:101F08002278344914A816F06DF93146284601F0B4
:101F1800DFFB2449024619A816F064F9D9E9000143
:101F280001F0D6FBDFF884A00DF1780B02461D49BD
:101F3800584616F057F9DAE90001281846EB01016E
:101F480001F0C6FB23AB02461649184616F04AF9BB
:101F5800D9E9004923AB20464946CDE90AB34CF0FC
:101F680039FE0022124B4CF06BFECDE90C01DAE988
:101F78000031E41849EB0101601946EB01014CF00E
:101F880029FE0B460246DDE90C014CF083FFCDE942
:101F98000801084B1B88069319AB059314AB92E70D
:101FA800876C0020F39E070878100020601000203E
:101FB800000059403C5B002093D30608386D002090
:101FC800B9D20608BED20608406D002087680020F6
:101FD8007010002096D306086810002037B56049B5
:101FE800012058F024FE05465E495D4803F06EFC6A
:101FF8005D4C002D00F09C804FF480615B4A2068A6
:1020080016F004F94EF0F8FA236802465849002001
:1020180057F004FD4EF0F0FA22680146544816F0D5
:10202800CDF84FF48061534AABB2206816F0EEF851
:102038000020216857F0F2FC206816F0BFF84FF432
:1020480080614D4B4D4A206816F0E0F84EF0D4FA06
:10205800236802464649002057F0E0FC4EF0CCFACF
:1020680022680146424816F0A9F8434868F0A9FBDF
:10207800434A014640484FF027F94249404803F097
:1020880025FC40F2D54300934FF480613D4B3E4A16
:10209800206816F0BBF84EF0AFFA236802463449C0
:1020A800002057F0BBFC4EF0A7FA226801463048E2
:1020B80016F084F84FF48061344B354A206816F0E6
:1020C800A5F84EF099FA236802462949002057F0EE
:1020D800A5FC4EF091FA22680146254816F06EF8E4
:1020E8002A4868F06EFB2B4A014628484FF0ECF866
:1020F8002949284803F0EAFB41F2356300934FF47D
:102108008061254B254A206816F080F84EF074FA55
:10211800236802461649002057F080FC4EF06CFAFE
:1021280022680146124816F049F8284603B030BD27
:102138004FF480610B4B1A4A206816F067F84EF08E
:102148005BFA236802460A49284657F067FC4EF0B6
:1021580053FA22680146064816F030F86FE700BFC8
:10216800676400203F64002064240020C812070828
:10217800AAD30608B2D3060812D406081FD4060844
:10218800E4230020EF6300203AD4060861D406084F
:102198006ED40608C4230020C76300208AD406082A
:1021A800EFD30608F8B5FFF719FF03220221002034
:1021B80058F07CFC514A411C0346514C106023D115
:1021C8004FF480614F4A206816F020F84EF014FA58
:1021D800236802464C49002057F020FC4EF00CFAC8
:1021E80022680146484815F0E9FF484A4FF48061E3
:1021F800206816F00BF82168002057F00FFC2068C3
:1022080015F0DCFF0120F8BD4FF48061404A2068DA
:1022180015F0FCFF4EF0F0F9236802463A49002019
:1022280057F0FCFB4EF0E8F9002501462268394ECC
:10223800354815F0C3FF40F2D540356058F021FC11
:102248000322B0800221284658F030FC324E421C4E
:102258000346306016D14FF480612A4A206815F091
:10226800D5FF4EF0C9F9236802462749284657F09A
:10227800D5FB4EF0C1F922680146234815F09EFFB0
:10228800264AB3E74FF48061254A206815F0BEFF5F
:102298004EF0B2F9236802461B49284657F0BEFBA8
:1022A8004EF0AAF91F4F0146226817481E4C15F038
:1022B80085FF41F23560256058F0E3FB33683E4600
:1022C800A08046F8043B0FCC0FC694E80F0086E8C0
:1022D8000F0041F20303FB843223BB6242F22A332C
:1022E80012484FF48C71BB85B8634FF0F1F87D63E9
:1022F800F88587F8245028463D6484E7B4230020F5
:1023080064240020C8120708AAD30608B1D4060816
:10231800E7D40608D8230020B023002017D50608E4
:102328004ED5060860B30020B82300207ED50608E5
:1023380073B53C4D4FF48C71E8634FF0C9F82886AB
:1023480005F124004EF095FE06464EF07BFE04464D
:10235800E8B9354D009640F273334FF48061334A43
:10236800286815F053FF4EF047F92B6802463049AC
:10237800204657F053FB4EF03FF92A6801462C4897
:1023880015F01CFF40F27535284602B070BD05F106
:1023980024014EF070FE00281CDA234D40F27933F8
:1023A8004FF48061234A286815F030FF4EF024F975
:1023B8001F4902462B68002057F030FB4EF01CF9ED
:1023C8002A6801461A4815F0F9FE002520464EF005
:1023D80045FED9E720230193174B32460093214647
:1023E800002328681EF0E4FD0130EED12B680E4E64
:1023F80000934FF4806140F28533104A306815F03D
:1024080005FF4EF0F9F8336802460949002057F0F5
:1024180005FB4EF0F1F832680146054815F0CEFE8E
:102428003125D3E760B300206424002091D5060845
:10243800AAD30608D1D50608B82300200BD606086B
:102448002DE9F04385B005461C469DF830609DF89F
:102458003470002A00F08F80002978D04EF0CCF834
:102468000146714815F0AAFE284615F0A7FE002C73
:1024780040F09A800124002E3CD02B464FF4806116
:102488006A4A6B4815F0C2FE20230193694BDFF8B6
:10249800D091009386B2002332466549D9F80000EE
:1024A8001EF086FD013040F0838040F2D543029350
:1024B800614B03960193D9F80030DFF88C810093C3
:1024C8004FF4806140F2B7335C4AD8F8000015F049
:1024D8009DFE4EF091F85A490246D8F80030002087
:1024E80057F09CFA4EF088F8D8F800200146544876
:1024F80015F064FE3FB32B464FF480614B4A5148B8
:1025080015F084FE83B2B3F58C7F54D94FF48C73E5
:102518004D4D80B2019300904FF471734FF4806178
:102528004A4A286815F072FE4EF066F84449024699
:102538002B68002057F072FA4EF05EF82A680146C0
:102548003F4815F03BFE204605B0BDE8F08315F086
:1025580035FE002C8ED00124DFF8EC802A464FF49B
:102568008061D8F8000015F051FED8F8001000205E
:1025780057F054FA16E0002B3FF47DAFB1B1144682
:10258800DFF8C4802A464FF48061D8F8000015F0BF
:102598003DFE4EF031F8D8F80030024628490020B8
:1025A80057F03CFA013466E70124E9E70C46D3E723
:1025B8000134E4B29EE72348FFF7BAFE064610B995
:1025C8000134E4B2BFE7204D4FF48061204A286807
:1025D80015F01CFE4EF010F82B6802461849002032
:1025E80057F01CFA4EF008F82A680146144815F00E
:1025F800E5FD41F235630293164BB6B20193164BD3
:1026080003961B68154A00934FF4806140F2CA3361
:10261800286815F0FBFD2968002057F0FFF92868A5
:1026280015F0CCFD8FE700BF39D60608F39E0708E2
:10263800C75F0020D8230020EF6300203FD606089C
:10264800AAD30608C75B0020642400209DD606088C
:10265800C8120708C7630020B023002009D706085E
:10266800B42300202DE9F74300F0BAFFBF4DC0485E
:1026780015F0A4FDBF4EC04AC049C148C14C15F071
:10268800B1FD64212846C04BBC4A15F0BFFD019539
:1026980000964FF48061BA4BBC4A206815F0B6FD2D
:1026A8004DF0AAFF23680246B949002057F0B6F951
:1026B8004DF0A2FF22680146B54815F07FFDB54BE5
:1026C8003221B54A0093B548B54B15F09FFD4FF43C
:1026D8008061AB4BB34A206815F098FD4DF08CFF34
:1026E80023680246AA49002057F098F94DF084FF64
:1026F80022680146A64815F061FD33464FF4806113
:10270800A84A206815F082FD4DF076FF236802463E
:102718009F49002057F082F94DF06EFF226801466C
:102728009B4815F04BFD2B464FF480619D4A20686D
:1027380015F06CFD4DF060FF2368024694490020B7
:1027480057F06CF94DF058FF22680146904815F093
:1027580035FD4FF48061914B924A206815F056FD83
:102768004DF04AFF236802468949002057F056F980
:102778004DF042FF22680146854815F01FFD0121F2
:10278800042000F0E7FC01222220114600F00AFD97
:1027980001220B20114600F005FD012225201146DB
:1027A80000F000FD01221D20114600F0FBFC7E4BCD
:1027B8004FF48061714A7D4815F028FD4FF480611F
:1027C8007B4A206815F022FD4DF016FF236802466B
:1027D8006F49002057F022F94DF00EFF226801469C
:1027E8006B4815F0EBFC4FF48061724B724A20681D
:1027F80015F00CFD4DF000FF2368024664490020E7
:1028080057F00CF94DF0F8FE22680146604815F0C3
:10281800D5FC4FF48061674B684A206815F0F6FCD8
:102828004DF0EAFE236802465949002057F0F6F8B1
:102838004DF0E2FE624D01462268554815F0BEFC97
:10284800284658F0AFFAEB79AA795E495E4815F048
:10285800C9FC4FF480615C4B5C4A206815F0D6FCDB
:102868004DF0CAFE236802464949002057F0D6F8C1
:102878004DF0C2FE22680146454815F09FFC5449B8
:10288800544815F0AFFC4FF48061524B524A20680F
:1028980015F0BCFC4DF0B0FE236802463C49002010
:1028A80057F0BCF84DF0A8FE22680146384815F0EC
:1028B80085FC4A498B2002F0AFFF00F02FFF484B00
:1028C800484FC3E9000158F05CFA4FF48061464A6A
:1028D800206815F09BFC4DF08FFE236802462C49BA
:1028E800002057F09BF84DF087FE226801462848E3
:1028F80015F064FC4DF0F2FE0121042000F02AFCE2
:1029080001222220114600F04DFC01220B20114625
:1029180000F048FC01222520114600F043FC01226A
:10292800012411461D2000F03DFCFFF73BFC00F0A0
:102938009BFC00F01DFF2D492D4800F0A9FA1A480C
:10294800FFF716FA234622462146CDE90044FFF751
:1029580077FDDFF8A0803B78052B71D100F0C6FD2C
:102968004FF0010900F0D6FF46E000BFD46C00200C
:10297800C81207089BD70608B9D20608F39E0708AD
:10298800486D00206424002073D7060891D70608F4
:10299800AAD30608C5D70608B0D70608A26C002037
:1029A800A4D706080ED40608900E070887640020EE
:1029B800CED70608E5D70608F5D706080DD80608C5
:1029C8007F64002015D20608406D002025D806082F
:1029D80034D80608896C00204CD80608552A000807
:1029E80080100020876C00205CD80608176400203F
:1029F8003F64002008BA002000F090FE0023B8F8D9
:102A0800002006460D464CF0ABFD1A430BD14CB1E5
:102A18000D48FFF7F3F90123CDE900991A46194645
:102A2800FFF70EFD0024304629463C2200234CF0D7
:102A380097FD013A1A4308BF01244DF05DFE8AE76D
:102A48004FF00009D8E700BF900E07082DE9FF47AF
:102A58008268C84DD2B2052A2A7000F2E281C64EB9
:102A680033889A4200F0DD81C44C00924FF48061B3
:102A7800C34A206815F0CAFB4DF0BEFD2368024624
:102A8800C049002056F0CAFF4DF0B6FD2268014645
:102A9800BC4815F093FB29784B1E042B02D8BA4882
:102AA80015F08CFB2F787B1E042B35D800F036FEF2
:102AB80002460B46B54901EBC707C7E900232B7847
:102AC8005F1E51F8332001EBC70C01EBC30051F82E
:102AD80037104068DCF80470521A60EB0701AC4804
:102AE80000EBC30740F833207960CDE900214FF4AB
:102AF8008061A84A206815F089FB4DF07DFDA14949
:102B080002462368002056F089FF4DF075FD2268C3
:102B180001469C4815F052FB2B78052B40F09C8011
:102B28009D4815F04BFB9D4815F048FB9C4815F057
:102B380045FB2A78954B9B4803EBC20153F832308A
:102B480002884968013292B2DFF88092012AC9E905
:102B58000031954F028040F06781CDE90031934AFA
:102B68004FF48061206815F051FB4DF045FD236856
:102B780002468449002056F051FF4DF03DFD226881
:102B88000146804815F01AFB00231A46DFF84882F0
:102B9800C7E90032404667F014FE854B87B295F8C6
:102BA800009018804DF028FDC7F580614B46814A9A
:102BB800009008EB070015F029FB276895F80080BE
:102BC8004DF01AFD43464FF480617A4A009038462A
:102BD80015F01CFB4DF010FD2368024669490020E2
:102BE80056F01CFF4DF008FD22680146654815F0B7
:102BF800E5FA02A8FFF762F86F4F029B6F493B6046
:102C0800039B6F487B60FB79BA7915F0EBFA6D4B43
:102C18001B684BB16C48FFF7ABF801231A461946FD
:102C2800CDE90033FFF70CFC0121042000F092FAF3
:102C380001222220114600F0B5FA01220B2011468C
:102C480000F0B0FA01222520114600F0ABFA01226B
:102C58001D20114600F0A6FA3388052B40F0DF80CE
:102C68004A4F4FF00009BA46B84600F057FD2A7897
:102C780009F101094A45EAE80201F6DA0020DFF81D
:102C880010C13B46B968D3F80CE00130D3E9009392
:102C9800B1EB09016EEB03034CF8081F824207F100
:102CA8000807CCF80430ECDA08EBC20158F83230E7
:102CB800464F4A68DFF82481D7E90001C8E90032A5
:102CC8001B1A62EB0102CDE900324FF48061404AE1
:102CD800206815F09BFA4DF08FFC236802462949BD
:102CE800002056F09BFE4DF087FC226801462548DF
:102CF80015F064FAD8E90032DFF8E4C0DFF8D880CC
:102D0800DCE900011B1842EB0102D7E900105B1A4D
:102D180062EB00024046CCE9003267F052FD244BDA
:102D280087B295F8009018804DF066FCC7F5806171
:102D38004B46284A009008EB070015F067FA276809
:102D480095F800804DF058FC43464FF48061214AC5
:102D58000090384615F05AFA4DF04EFC23680246AA
:102D68000849002056F05AFE4DF046FC226801241E
:102D7800014637E0876C0020385B0020642400207F
:102D880076D80608AAD306088BD806083010002083
:102D9800001000209DD80608C6D80608F1D80608F5
:102DA80007D906083C5B00206010002033D90608CC
:102DB8003A5B002070D906087764002015D206080F
:102DC800386D0020B4230020900E070878100020EA
:102DD8007BD9060898D9060887640020701000205F
:102DE80068100020264815F0E9F9264B21460420F2
:102DF8001C7000F0AFF922462146222000F0D2F9DB
:102E0800224621460B2000F0CDF9224621462520F6
:102E180000F0C8F9224621461D2000F0C3F92B789E
:102E2800338004B0BDE8F087DFF86080D8E900029D
:102E38001B1A61EB0201CDE90031134A4FF480619E
:102E4800206815F0E3F94DF0D7FB236802460C49DA
:102E5800002056F0E3FD4DF0CFFB226801460848FC
:102E680015F0ACF9D7E90001D9E900321B1842EB9B
:102E78000102D8E900105B1A62EB000286E600BF87
:102E8800AAD30608886C002054D9060870100020C0
:102E980070B50D4604461A4E304615F08FF919489C
:102EA80015F08CF941F235622946174815F086F974
:102EB800164815F083F92146154815F07FF915488D
:102EC80015F07CF92146144815F078F902F0C4F899
:102ED800124815F073F9124815F070F9114815F0F9
:102EE8006DF9114815F06AF9104815F067F910489E
:102EF80015F064F93046BDE8704015F05FB900BFC1
:102F0800C8120708A3D90608D7D90608F8D90608A9
:102F180009DA060849DA06085DDA0608B5DA0608A5
:102F28000BDB06085BDB060897DB0608F1DB060807
:102F38004CDC06081FB504460F4815F03FF900F0B1
:102F48008BFD02A800F0AEFD78B19DF80B30402152
:102F580000930A4A9DF80A30094815F057F92146A6
:102F680007484DF035FB04B010BD4021054A044820
:102F780015F04CF9F3E700BF8ADC0608A8DC060860
:102F8800506D0020BEDC06081FB504460F4815F03A
:102F980015F900F061FD02A800F084FD78B19DF8F4
:102FA8000930402100930A4A9DF80830094815F075
:102FB8002DF9214607484DF00BFB04B010BD402108
:102FC800054A044815F022F9F3E700BFCDDC0608EE
:102FD800EBDC0608506D0020BEDC060810B586B094
:102FE8000446124815F0EAF800F036FD04A800F08F
:102FF80059FDA8B19DF81130402102939DF8103079
:103008000B4A01939DF813300A4800939DF812303B
:1030180015F0FCF8214607484DF0DAFA06B010BD65
:103028004021054A034815F0F1F8F3E7FFDC0608EC
:103038001DDD0608506D0020BEDC060870B588B09E
:1030480001241422002103A867F045FB1F4B204EE2
:10305800204D0093204B68460196029504938DF805
:103068000C4001F0AFFF30B140F216311B4B1C4A47
:103078001C484CF005FC1C4B6846CDE900361B4B40
:10308800029504938DF80C4001F09CFF20B140F2AA
:103098001F31124B124AEBE7154B68460093154B4C
:1030A8008DF80C40CDE90135134B049301F08AFFEC
:1030B80020B14FF44A71094B094AD9E71E2203216E
:1030C8000E4815F07BF8032008B070BD44DD0608F3
:1030D800EE3F08084ADD06083D2F000851DD0608C6
:1030E800EBDD060891DD06089FDD0608912F000834
:1030F800A5DD0608AFDD0608E52F0008B4DD0608E3
:1031080000B58BB0FFF79AFF2022002102A867F0D4
:10311800E2FA0B4B41F28832019318230021CDE9E2
:103128000623084801AA06F029FB28B95721064BAF
:10313800064A07484CF0A4FB0BB05DF804FB00BF3F
:1031480003DE06086D2600080CDE06082DDE0608DC
:103158001FDE06082DE9F04107468020884650F01A
:1031680043FF0024054605EB440305F814400134E9
:10317800232C5F70F7D1294620461DF08DFB0646AB
:10318800B8F1000F05D003463A462146044815F029
:1031980015F8284650F03AFF3046BDE8F08100BFE8
:1031A80036DE0608F7B58DF804008DF805100546DB
:1031B8000E46012001A917461DF06EFB04462FB1EB
:1031C800034632462946034814F0F8FF204603B068
:1031D800F0BD00BF61DE060810B583780446852B74
:1031E8000CD1164B164A174918681DF07BFF164B71
:1031F8001860164802F0DCFB154B1860A378832B87
:103208001BD1A068134B104C18602368984214D146
:1032180040F2CF420023104957F07EFC80B20028CC
:1032280014BF012200220D4B18800D4B1A7004D1D7
:10323800206857F05BFC0B4B186010BDB0B3002042
:10324800B4B3002000240020ACB300200C240020DC
:10325800FC230020A8B30020916D00203E5B0020D5
:10326800906D0020A4B300202DE9F341884C4FF461
:103278008061884A206814F0C9FF4DF0BDF92368C1
:1032880002468549002056F0C9FB4DF0B5F9226881
:103298000146814814F092FF02220121002057F0D4
:1032A80005FC7E4E03464FF480617D4A30602068FD
:1032B80014F0ACFF4DF0A0F92368024676490020CF
:1032C80056F0ACFB4DF098F922680146724814F0AC
:1032D80075FF32687349744B7448B2F1FF3F08BFF9
:1032E8000B46734914F06AFF35686A1C0CD167F005
:1032F800C3FD4EF02BFF2A4601466E4814F05EFFD0
:1033080067F0BAFD4EF027FFDFF8BC810023424684
:1033180042F80C3B684B03F11007154618685968CA
:10332800083303C5BB422A46F7D1644F644D388839
:1033380057F0A7FB634BA8F804001A686249306885
:103348001DF008FE5749584B0246B0F1FF3F08BF31
:103358000B4628605D49554814F030FFD5F80080C9
:10336800B8F1FF3F0CD167F087FD4EF0EFFE424603
:103378000146504814F022FF67F07EFD4EF0EBFE48
:103388005349852002F048FA4649474B0246B0F1B6
:10339800FF3F08BF0B4628604E49444814F00EFF13
:1033A800D5F80080B8F1FF3F0CD167F065FD4EF00D
:1033B800CDFE424601463F4814F000FF67F05CFD31
:1033C8004EF0C9FE4249832002F026FA3549364BB1
:1033D8000246B0F1FF3F08BF0B4628603E4933481C
:1033E80014F0ECFED5F80080B8F1FF3F0CD167F07F
:1033F80043FD4EF0ABFE424601462E4814F0DEFE79
:1034080067F03AFD4EF0A7FE0021306857F0B0FB98
:103418002449254B2860B0F1FF3F08BF0B46024600
:103428002E49224814F0CAFE2D686B1C0CD167F097
:1034380023FD4EF08BFE2A4601461E4814F0BEFEC0
:1034480067F01AFD4EF087FE254802F0B1FA254DC7
:103458003A882860009203464FF48061224A206827
:1034680014F0D4FE4DF0C8F8236802460A4900203B
:1034780056F0D4FA4DF0C0F822680146064814F018
:103488009DFE286802B0BDE8F0414DF0ABBF00BF1B
:103498006424002086DE0608AAD30608B0B30020FC
:1034A800A9DE0608A82E080820A70708D4DE060803
:1034B800C0DE0608E2DE0608FA6407080ABA002039
:1034C800A4B30020B4B3002020240020F1DE0608B5
:1034D800E131000803DF06085DDF0608B1DF0608F2
:1034E8002C240020FC230020C5DF06082DE9FF4717
:1034F8002B4C2668C6B92B4D4FF480612A4A2868A0
:1035080014F084FE4DF078F82B68024627493046BF
:1035180056F084FA4DF070F82A680146234814F0F2
:103528004DFE236801332360214F3B78A3B3002568
:103538002368DFF888900133DFF884A02360B9F8A6
:1035480000301C480AF8035002F032FADFF87480A1
:10355800144EC8F80000CDF808A0B9F800304FF4B0
:103568008061CDE90003144A2368306814F04EFEE8
:103578004DF042F8336802460C49284656F04EFA98
:103588004DF03AF832680146084814F017FED8F8AA
:1035980000004DF027FF3D7004B0BDE8F08700BF84
:1035A800F823002064240020F8DF0608AAD30608C0
:1035B800906D00200C2400200EE006083E5B0020E1
:1035C800916D0020FC230020044AD2E90031013328
:1035D80041F10001C2E90031704700BF88100020A6
:1035E80013B5174806F050F8164B186028B968212B
:1035F800154B164A16484CF043F900200021154B8C
:10360800154A1A60154BC3E900010BF069FC044622
:1036180030B10146124814F0D1FD204602B010BD69
:1036280068F0DEFE23460146CDE900440D4A0E4807
:1036380069F037FD04460028EFD001460B48EAE759
:10364800A0E106084024002032E006087AE10608D6
:103658004FE00608642400207372002088100020C0
:1036680062E00608D1350008442400208DE00608F1
:103678002DE9F84316469946144A002305460C4698
:103688004BF06EFF214630803C22284600234BF049
:1036980067FF002380460F46164628464FF46162AE
:1036A80021464BF05DFF182200234BF059FF40469E
:1036B80089F8002039463C2200234BF051FF089B33
:1036C80000201A70099B1E70BDE8F8838051010024
:1036D80010B586B00DF11503019305AB00930DF1FC
:1036E80016020DF11303FFF7C3FF9DF81530094CBF
:1036F80002939DF81430122101939DF8133020464F
:103708000093054ABDF8163014F080FD204606B037
:1037180010BD00BF61720020C4E00608D0B50D4C92
:103728004FF0FF31206869F09FF828B14E210A4B0D
:103738000A4A0B484CF0A4F80A4B2068D3E9006702
:1037480069F0C6F818B15421074B084AF1E730462A
:103758003946D0BD40240020D7E006085DE10608C0
:103768004FE006088810002013E1060840E106082B
:10377800F7B5544C4FF48061534A206814F046FD65
:103788004CF03AFF236802465049002056F046F9AB
:103798004CF032FF226801464C4814F00FFD03221A
:1037A8004B49002057F082F94A4D03464FF4806197
:1037B800494A2860206814F029FD4CF01DFF236851
:1037C80002464249002056F029F94CF015FF2268BC
:1037D80001463E4814F0F2FC2A684049404B4148F3
:1037E800B2F1FF3F08BF0B463F4914F0E7FC2E68D3
:1037F800721C0CD167F040FB4EF0A8FC3246014623
:103808003A4814F0DBFC67F037FB4EF0A4FC384F65
:1038180000233A4642F80C3B364B03F1100C16468F
:1038280018685968083303C663453246F7D1324EE3
:10383800308857F026F9314B2D491A68B880286826
:103848001DF088FB2E4D2549254B2860B0F1FF3F20
:1038580008BF0B4602462B49224814F0AFFC2D68DE
:103868006B1C0CD167F008FB4EF070FC2A46014631
:103878001E4814F0A3FC67F0FFFA4EF06CFC2248D7
:1038880002F096F8214D32882860009203464FF4E2
:1038980080611F4A206814F0B9FC4CF0ADFE236823
:1038A80002460A49002056F0B9F84CF0A5FE2268F5
:1038B8000146064814F082FC286803B0BDE8F040D1
:1038C8004DF090BD64240020B0E10608AAD3060894
:1038D80002000100BCB30020D9E10608A82E0808A0
:1038E80020A70708D4DE0608F0E10608E2DE06088D
:1038F80090240020FA6407080CBA0020C0B3002006
:10390800B8B3002004E206089C2400206C240020A0
:1039180016E206082DE9F04385B0314C2668C6B991
:10392800304D4FF48061304A286814F06FFC4CF039
:1039380063FE2B6802462D49304656F06FF84CF06E
:103948005BFE2A680146294814F038FC23680133D5
:103958002360274B274D284E2848019300950023C4
:1039680040F2CF42314600681DF066FBDFF89480D4
:103978000028C8F800002FDD0027236837540133DA
:1039880005F10C00236002F013F8DFF87C90154D68
:10399800C9F800000296D8F800304FF48061CDE9EC
:1039A8000003174A2368286814F030FC4CF024FE02
:1039B8002B6802460D49384656F030F84CF01CFE8C
:1039C8002A680146094814F0F9FBD9F8000005B047
:1039D800BDE8F0434DF006BD05B0BDE8F08300BF7B
:1039E80068240020642400203EE20608AAD30608C2
:1039F800C0B300207024002073760020BCB30020E0
:103A080056E20608B8B300206C240020044A054B8F
:103A180010685B68012838BF0120B3FBF0F07047DD
:103A2800B0240020001000E070B50446FFF7EEFF58
:103A38000546084ED6F8A430C3F340039C4201D192
:103A4800012070BDFFF7E2FF401B8842F2D9002039
:103A5800F7E700BF00C003500D4AD2F8FC3043F02E
:103A68008073C2F8FC3000220A4B5A601A6842F090
:103A780001021A60084B094A1B68B3FBF2F3084AB3
:103A88001360012302221946104605F03BBB00BF14
:103A980000ED00E0001000E0D8B5002040420F0023
:103AA800B02400202DE9F04F85B001230222002424
:103AB80005461946104602948DF80C40A24605F0BA
:103AC80021FB002304220121022005F01BFB022216
:103AD800454B44F61F66C3F8A020FFF797FF014641
:103AE800FFF794FF431AB34224D90123042219464D
:103AF800022005F007FBCDF804A0019B4F2B1BDD2E
:103B0800012302221946104605F0FCFA782100200C
:103B1800FFF78AFFA8B90134032C5FD0334ACDF8E8
:103B280000A003E000BF009B01330093009B934279
:103B3800F8DDC6E700BFD3E700BF019B013301935F
:103B4800DBE70120FFF770FF0028E4D00026B3462A
:103B580002AF4FF0070807F801BB50210020FFF71C
:103B680063FF0028D7D078210120FFF75DFF0028E8
:103B7800D1D0FFF74BFF4FF4967181460020FFF735
:103B880053FF01460028C6D0FFF740FFA0EB09000D
:103B9800322807D9012303FA08F217F8013C134326
:103BA80007F8013CB8F10108D7D20136052ED0D16B
:103BB8009DF808009DF809709DF80A209DF80B30C3
:103BC80028703844AA7002449DF80C60EB701344C6
:103BD800DBB29E426F702E7101D09CE7002108462F
:103BE80005B0BDE8F08F00BF00E003503F0D0300B3
:103BF80010B52A4C04F0C0FD04F058FF236F0120D3
:103C080023F0070343F00303236704F079FF244BF1
:103C180001219B6A3E20DB015EBF4FF48032214BBD
:103C28009A62D4F8203123F0070343F00203C4F862
:103C38002031D4F8283123F0070343F00203C4F8F5
:103C48002831D4F8403123F0030343F00203C4F8C9
:103C58004031D4F8603123F0030343F00203C4F881
:103C6800603104F0CFFAD4F84032002023F0030387
:103C780043F00203C4F84032D4F8003223F00703BB
:103C880043F00203C4F80032D4F8083223F00703E3
:103C980043F00203C4F8083210BD00BF0080005092
:103CA8000040005A0060005A064B1B681A7A022A24
:103CB80004D812B11B68044A13607047032AF9D06C
:103CC800704700BFD4B30020B424002030B58FB0B3
:103CD800174D06AC0FCD0FC495E80F0084E80F0010
:103CE8000E2200210DF10A0066F0F5FC4FF4801257
:103CF800104B6946CDE900230B238DF808300C23BF
:103D08008DF809300C4B06AA03932023049340F244
:103D180001130A48ADF81430094B0AF053FA044667
:103D280000214FF4E1304DF0B6FB20460FB030BD16
:103D380054E806083C00015B437B002078250020FE
:103D4800B824002001484FF0EDBE00BF78250020C0
:103D5800F8B50C46064611462046154656F067FF4C
:103D68000746284601F024FE033C012C054604D9E9
:103D780047B13146064814F021FA2846BDE8F84014
:103D88004DF030BB02463146024814F017FAF4E70A
:103D9800B9EE0608D9EE06080121024B81401868E1
:103DA80068F0AEBCD025002008B5074B4FF0FF31B6
:103DB800186868F059FD30B14FF45C71034B044A40
:103DC80004484BF05DFD08BDD4250020E6EE06084A
:103DD80035F306081BEF060808B5064B186868F0A7
:103DE80077FD30B140F27631034B044A04484BF07A
:103DF80047FD08BDD425002080EF06081CF30608FF
:103E08001BEF060873B5002300220546CDE9002301
:103E180068F0CCFA6A4668F0E9FA00982D4A0199E8
:103E2800D2E90232C01A61EB02012B4ACDE9000146
:103E3800FCF776FA284801F0E3FD284B002814BF68
:103E480006461E466B68002B41D1AC6814F001048D
:103E58000DD00121224A2348FFF77AFF204801F0BC
:103E6800A7FD3146044602461F4814F0A7F9AB687F
:103E78009A070DD503211D4A1D48FFF769FF1B4806
:103E880001F096FD3146044602461A4814F096F9A8
:103E9800AB685B070DD50421174A1848FFF758FF90
:103EA800154801F085FD314604460246144814F0D1
:103EB80085F920464DF096FA30464DF093FA6A6837
:103EC8001AB11049104814F079F902B070BD0024F5
:103ED800EFE700BFA010002090100020900E070808
:103EE800747B0020A6EF0608ADEF0608947B00203F
:103EF800CDEF0608D9EF0608A47B002001F00608DC
:103F08000CF00608DCF4060836F00608F7B50022BF
:103F18000023CDE9002344680646344D64B12146A8
:103F2800334814F04BF90120FFF736FF01212868C8
:103F380068F01FFC03B0F0BD502221462D4866F002
:103F4800CAFB2D4814F03AF901212C4A2C48FFF7F6
:103F5800FFFE2146274A2B48FFF7FAFE02212A4A8C
:103F68002A48FFF7F5FE0321294A2A48FFF7F0FE01
:103F7800294A04212948FFF7EBFE68F017FA6A4638
:103F880068F034FADDE90017254BD3E908208A18D0
:103F980047EB000C9868C3E90017121AD868C3E900
:103FA80002176CEB0000C3E908209A6A1D48013229
:103FB8009A62D3E90623891A67EB0303CDE9001354
:103FC8004FF47A73B1FBF3F114F0F8F82046FFF7D9
:103FD800E3FE0221286868F0CCFB7268002AA9D0A9
:103FE8001149124814F0EAF8A4E700BFD0250020D0
:103FF80050F00608647B002072F00608747B0020ED
:10400800A6EF06087FF00608847B00208AF00608E1
:10401800947B002098F00608A47B0020A7F00608EF
:10402800A0100020B8F00608BFF4060836F006080D
:10403800F7B50023002205461548CDE9002314F002
:10404800BDF868F0B3F96A4668F0D0F9DDE9001008
:10405800104BD3E904248A18D3E9067640EB04040C
:10406800D21B64EB0604C3E90424C3E90010C3E9C6
:1040780006106A681AB10849084814F09FF8012028
:10408800FFF78AFE0022064B1A7003B0F0BD00BF8E
:10409800C1F00608A01000209FF4060836F00608B4
:1040A800637B002010B50F490446A1F1280056F0A3
:1040B80075FD18B90C490D4814F080F80220FFF777
:1040C8006BFE0120FFF768FE094B0121186868F0B4
:1040D80050FB62682AB1BDE810400649064814F052
:1040E8006DB810BDC025002098250020D1F0060825
:1040F800D02500207CF4060836F0060841680148FF
:1041080014F05CB8F8F0060810B50B4B044680684C
:104118001870C0B201F062FC014618B1A2680748E5
:1041280014F04CF862682AB1BDE81040044905480B
:1041380014F044B810BD00BF637B002025F10608C9
:104148005EF4060836F0060842681AB102490348C8
:1041580014F034B8704700BF45F4060836F0060876
:1041680042681AB10249034814F028B8704700BFE2
:1041780023F4060836F0060842681AB102490348D3
:1041880014F01CB8704700BF05F4060836F006089E
:1041980042681AB10249034814F010B8704700BFCA
:1041A800EDF3060836F0060842681AB102490348DA
:1041B80014F004B8704700BFC2F3060836F00608CA
:1041C80042681AB10249034813F0F8BF704700BFAC
:1041D8009FF3060836F0060842681AB102490348F8
:1041E80013F0ECBF704700BF87F3060836F00608E7
:1041F80008B50C4805F048FA0B4B186030B940F286
:10420800B7110A4B0A4A0B484BF03AFB0A4805F02B
:1042180001FA0A4B186020B94FF4DD71084B044AC3
:10422800F1E708BD30F50608D42500203DF1060861
:1042380070F306081BEF060820F50608D0250020B5
:1042480053F1060808B50B460146034803220068E7
:1042580068F0ADFAC00F08BDD025002030B5AFB06A
:10426800002300228DF807300023CDE90223FFF751
:104278009BFD38225A495B4866F096FA0DF1070013
:1042880056F06BFD024618B15749584813F096FF8F
:104298009DF8071031B1564813F090FFFFF79CFDC9
:1042A8002FB030BD4F4CA22205A866F014FA94F83E
:1042B800210001F099FB054694F8240056F0D6FD3C
:1042C800014618B14B4813F079FFE7E72946A222C7
:1042D80005A866F069FA022305A88DF8803056F023
:1042E800D8FD014630B1444813F068FF0520FFF7B8
:1042F80053FDD3E7B4F9220056F0FFFC014620B184
:104308003E4813F05BFF0620F1E73D4856F0F3FD09
:10431800014608B13B48D6E73B4B13F8012B0AB9D5
:1043280089B203E00131B1F5006FF6D1013189B2EC
:104338000220354A56F09CFC014628B9334B13F845
:10434800012B32B989B208E0314813F037FF0B204E
:10435800CDE70131B1F5006FF1D1013189B2062005
:104368002A4A56F09CFC014628B92A4B13F8012B1F
:1043780032B989B208E0284813F020FF0C20B6E7CC
:104388000131B1F5006FF1D1013189B20120214A23
:1043980056F09CFC014620B1204813F00FFF0D2079
:1043A800A5E71F49A1F1280056F0F8FB044680B99B
:1043B80067F0FCFF02AA68F019F8DDE90201194B61
:1043C800C3E90001C3E90201C3E90601054916482A
:1043D80079E70420FFF7E0FC2146144873E700BFA3
:1043E80040F50608982500204EF3060836F0060822
:1043F8006BF1060896F10608C0F10608F4F1060804
:1044080099EE06081BF2060874E80608F1EA0608A1
:104418004AF20608A4ED060880F20608B5F2060876
:10442800C0250020A0100020EAF2060801F30608C3
:1044380010B5FFF7B9FC034B1C78FFF7CDFC2046FD
:1044480010BD00BF637B0020402906D1C378202B14
:1044580008D005D813F0EF0F04D04FF0FF307047A5
:10446800302BFAD18078A528F7D8872806D85F2876
:1044780002D013D804280AD800207047094B783096
:10448800C0B2C34003F00103013B58B27047413842
:1044980004284FF0FF3098BF0020704780F080005C
:1044A8000628F6E7B100003F2DE9F04F89B0002655
:1044B8000F46154604469846149B9DF84CA0CDE936
:1044C80006320390059000EB0209079B23B9079574
:1044D800002E45D100264CE0BAF1080F069B2CD1DE
:1044E800FF2B26D89D42059A23D31A44944220D8FC
:1044F8004A451ED85A1C2146164405A82A464CF09F
:10450800EBFC07900028E2D0059B1B781909DED147
:104518002146069305A801234CF0DEFC07AB079063
:10452800009322462B4605A906A84CF0E3FC002878
:10453800CBD0002009B0BDE8F08FBAF10B0FCFD077
:10454800BAF10F0FCCD0BAF1140FC9D0BAF1110FCC
:1045580001D1022BC5E7BAF1040FC3D1082BC0E77C
:10456800013EB7D0FB68B0B29847C8F800000028F1
:10457800DFD0129BAAF1040A1E800123D8F800702C
:104588005FFA8AFBD8F80020B91AB14201DA079914
:1045980009B90398CEE76BB90123234903FA0BF352
:1045A8000B4204D113F0900F03D02F2300E02623F1
:1045B8003B700137DDF85090BA1A4A44B242B8DC71
:1045C800A9450399B5D801EB09039C42B1D86219F2
:1045D8009342AED84A46384666F0E6F84B462A4635
:1045E800214603A84CF078FC034607904F440398F3
:1045F800002B9FD003785FEA13199BD10DF1480A6D
:104608004AF8083F2146012303A84CF065FC07AB94
:104618000790009322462B46504603A94CF06AFCAB
:104628004B460028AED084E7012801002DE9F04F61
:104638008BB081460F461D46164622B900242046F7
:104648000BB0BDE8F08F0329F8D90028F6D04CF05C
:1046580099FC04460028F1D03278314622F03F0315
:104668002B70737802F03002C270837073883A46F8
:104678005BBA0381331D069306A800234CF02CFC7B
:104688003278079002F00F022270CAB1082A6DD85A
:104698002369002B6AD19742069967D38B189E42EB
:1046A80064D8F019834261D848464CF0ABFC2061CD
:1046B80000285BD03A463146237806A84CF00CFC1B
:1046C8004FF0000B069BDFF8BCA39B1BFB1A07935C
:1046D800DDE90632002A00F0D0811A78FF2A0FD1CE
:1046E8009A1BBA420ADA1A78FF2A3FD101339E1B75
:1046F800BF1BBFB2A781002F38D0A361002336E0CB
:1047080002F00F03120931460893099201233A4631
:1047180006A84CF0E1FB07AD07903B4632460095F2
:1047280006A909A84CF0E6FB00BB099B03EB0B08A4
:104738001FFA88F8434519D8C34517D83B4632466F
:10474800009506A908A8CDF824804CF0D3FB68B9D9
:10475800B8F11C0F0DD8B8F1020F07D92AFA08F3DF
:10476800DB070CD4DDE90725954215D901236370D1
:1047780065E7B8F1230F02D0B8F13C0FF6D1214616
:1047880048464CF009FC0028F0D0DDE90725AA428C
:10479800ECD3B8F1230F4BD8B8F1020FE6D9A8F142
:1047A8000303202BE2D801A151F823F01749000890
:1047B800E548000875470008C14900086B4900082A
:1047C800454900087547000875470008A7490008CB
:1047D800634800087547000889480008E34900084D
:1047E80075470008394A00087547000875470008EA
:1047F8008D4900087547000875470008F549000805
:10480800754700087547000875470008174A0008EB
:104818005B4A000875470008754700087547000897
:10482800754700087547000875470008A148000843
:10483800B8F13C0F9AD1042D98D8D4F81CB09BF845
:104848000130002B92D1012329468BF8013006A8AC
:104858004CF034FBCBF8180009E0022D86D86368C9
:10486800013383D1294606A84CF028FB6060069BDB
:104878009B1B9F42FFF47AAFFB1AC346079327E7B7
:10488800042D3FF673AF294606A8D4F81CB04CF0A7
:1048980015FBCBF81400EAE740F209436A1E9A4276
:1048A8003FF664AFD4F81CB0DBF83030002B7FF44F
:1048B8005DAF2A4648460699ABF804504CF0A2FB77
:1048C800E369CBF830001B6B002B3FF44FAF2B464E
:1048D8003A46314606A84CF0FFFAC8E7E369596B37
:1048E80000297FF443AF042101910DF116010091D5
:1048F8000698494602953433FFF7D6FD06900028FE
:104908003FF434AFE369BDF816201A70AFE76B1EA9
:10491800FE2B3FF62BAFD4F81CB0DBF83830002B59
:104928007FF424AF2A4648460699ABF806504CF067
:1049380069FBE369CBF838009B6BC5E7E369D96B82
:1049480000297FF413AF08210191591802950091AD
:104958003C3349460698FFF7A7FD0690002886D104
:1049680004E7022D3FF602AFD4F81CB0DBF8203084
:1049780001337FF4FBAE294606A84CF09FFACBF82A
:10498800200074E7E369196C00297FF4EFAE142165
:10499800019103F10A01029500914033D9E7636957
:1049A800002B7FF4E3AE0B23019304F10A03009379
:1049B800029504F11403CCE7022D3FF6D7AED4F8E4
:1049C8001CB0DBF8243001337FF4D0AE294606A8AA
:1049D8004CF074FACBF8240049E70F21E369019100
:1049E80003F10C01029500914433B2E7032D3FF621
:1049F800BDAED4F81CB0DBF82C3001337FF4B6AE72
:104A0800294606A84CF05AFACBF82C002FE7032DBC
:104A18003FF6ACAED4F81CB0DBF8283001337FF495
:104A2800A5AE294606A84CF049FACBF828001EE79F
:104A3800022D3FF69BAED4F81CB0DBF810300133E2
:104A48007FF494AE294606A84CF038FACBF810004B
:104A58000DE7042D3FF68AAED4F81CB09BF802305F
:104A6800002B7FF483AE012329468BF8023006A879
:104A78004CF024FACBF81C00F9E6002B7FF430AE9A
:104A880074E600BFD8C192182DE9F0410E461746CA
:104A98009846054628B121B11AB12C20A8470446EA
:104AA80018B900242046BDE8F0812C22002165F0C9
:104AB80012FE0123224623710023C4E90467E5603E
:104AC800C4F8188042F81C3F226240F20232228069
:104AD8000A22A270014AA3621380E3E7405B002028
:104AE80008B566F097F902280DD1074B4FF0FF3152
:104AF800186867F0B9FE30B140F28F21034B044AC1
:104B080004484AF0BDFE08BDD825002078F50608FF
:104B180066F60608AFF5060808B566F07BF90228C0
:104B28000BD1064B186867F0D3FE30B140F29721DD
:104B3800034B044A04484AF0A3FE08BDD8250020C8
:104B48000CF606084CF60608AFF50608F8B5044654
:104B580017480D46174604F097FD164B186028B9FC
:104B68009821154B154A16484AF08AFEFFF7B8FFF8
:104B78004CF0A5FA134B144E002C08BF1C46134BDF
:104B88001349002D08BF1D4612482B462246B16026
:104B98007060F46035613775FFF776FF3060FFF7B6
:104BA800BBFF00F0D1F9BDE8F84000F081B800BFC4
:104BB800A4F60608D825002034F6060880F606086C
:104BC800AFF5060845100508DC2500204910050842
:104BD800651005084D10050838B504460D46FFF761
:104BE8007FFF064B21462A4653F8140CFFF71EFD9B
:104BF8000446FFF791FF204638BD00BFF02500208E
:104C080038B504460D46FFF76BFF054B21462A468B
:104C180018684BF0AEFE0446FFF77EFF204638BD0D
:104C2800DC25002010B5044618B1806908B14CF0A5
:104C380015FA034B2146BDE8104018684CF0C3B97B
:104C4800DC25002008B566F0E5F802280DD1074BF1
:104C58004FF0FF31186867F007FE30B14FF4CC71A0
:104C6800034B044A04484AF00BFE08BD14280020F0
:104C7800B4F6060852F80608E7F6060808B566F01E
:104C8800C9F802280BD1064B186867F021FE30B12D
:104C980040F29F11034B044A04484AF0F1FD08BD55
:104CA800142800204BF7060839F80608E7F6060826
:104CB80037B5194804F0E8FC184B186028B9D12119
:104CC800174B184A18484AF0DBFD4FF40273342298
:104CD80000930A21154B16484CF061FA044618B1A6
:104CE800D921144B0F4AEDE7134D2871134804F0EE
:104CF80091FCA86018B9E021114B0A4AE2E7214665
:104D0800104A114804F03AFD18B9E4210F4B054A3E
:104D1800D8E703B030BD00BFBCF80608142800204F
:104D28006FF706086BF80608E7F606080C26002059
:104D3800F425002083F70608E8B3002088F8060861
:104D480098F7060898F80608F54D0008AAF7060827
:104D5800F7B5436A044663B19847054648B1A36A64
:104D680053B903220221002055F0A0FE431C064639
:104D780008D1012003B0F0BD204698470028F0D1A3
:104D88000020F7E728464CF074F9431E9BB2B3F5B0
:104D9800806F0746EDD2FFF755FF29460E484CF0C5
:104DA8006AF9002802DAFFF769FFE2E720230434F2
:104DB80001933A4600233046074900941CF0F8F85E
:104DC8000130F0D02846FFF72DFFFFF757FF304698
:104DD80055F08CFED4E700BFB47B00200168D0E911
:104DE8000B32014813F0EAB9BEF7060870B5184C43
:104DF8004FF0FF310120FFF725FAFFF723FF237952
:104E080033B1D4E902014FF0FF33002267F0CFFC41
:104E1800104B1E6946B9FFF731FF2379002BE7D104
:104E2800206867F058FCE3E7237935683BB9D5E992
:104E38000B239A4203D0013376682B63EAE72846AE
:104E4800FFF786FF10B12846FFF7C8FF0023F3E7F6
:104E5800E8B30020F425002070B50646074B1C690E
:104E680014B92546284670BD256880223046296831
:104E780065F046FC0028F5D06468F1E75828002062
:104E880008B565F0C7FF02280DD1074B4FF0FF3179
:104E9800186867F0E9FC30B14FF4C971034B044A54
:104EA80004484AF0EDFC08BDF02F0020CCF80608B5
:104EB80063FB06080CF9060808B5074B4FF0FF31ED
:104EC800186867F0D1FC30B140F2A111034B044AD5
:104ED80004484AF0D5FC08BDF02F0020CCF806089D
:104EE80023FB06080CF9060808B565F093FF0228AD
:104EF8000BD1064B186867F0EBFC30B14FF4CD715D
:104F0800034B044A04484AF0BBFC08BDF02F0020BC
:104F18006EF9060840FB06080CF9060808B5064BAA
:104F2800186867F0D5FC30B140F2A711034B044A6A
:104F380004484AF0A5FC08BDF02F00206EF90608C9
:104F480006FB06080CF9060807B5134804F09CFB95
:104F5800124B186028B9B421114B124A12484AF072
:104F68008FFC4FF470731E21009320220F4B1048C2
:104F78004CF015F9014618B1BC210E4B094AEDE772
:104F88000D4A0E4804F0FAFB18B9C1210C4B054A2A
:104F9800E4E703B05DF804FBFCFB0608F02F0020F3
:104FA8009FF9060894FB06080CF90608302C002027
:104FB8005828002083F70608D8FB0608E1500008A7
:104FC800C0F9060838B50F4B05461C69FFF758FFAE
:104FD8005CB90C484CF0F8F870B12022294665F00D
:104FE800E3FBFFF781FF204609E023688022296858
:104FF800186865F085FB18B9FFF776FF012038BD02
:105008006468E5E758280020F8B5114B00241D69AD
:10501800FFF736FF4FF4707200210E4865F05BFB16
:105028000C4E35B9FFF760FF0A48002C08BF284628
:10503800F8BD1D2C0AD806EB4417202238462968EB
:1050480065F0B2FB0CB147F8047C01346D68E8E701
:10505800582800207028002038B5084B084D1C69D6
:10506800FFF72AFF1CB9BDE83840FFF757BF236890
:105078002846196813F0A2F86468F3E75828002056
:105088000ED40608014813F099B800BFD2F90608F3
:1050980008B50846FFF7F6FFBDE80840014813F0D9
:1050A8008DB800BFD2F90608014813F087B800BFD1
:1050B80001FA0608014813F081B800BF3BFA060858
:1050C800014813F07BB800BF6AFA0608014813F0DC
:1050D80075B800BF9EFA06082DE9F04F87B0002684
:1050E80034463546DFF8ECB1DFF8EC910596ADF8BB
:1050F80012604FF0FF310120FFF7A4F803220221CC
:10510800002055F0D3FC431C074606D140F2E511B8
:105118006B4B6C4A6C484AF0B3FB0023CBF8003069
:105128006A4BDFF8B8C103F1100E62461868596877
:10513800083303C273459446F7D141F2336055F002
:10514800A0FC2022ABF804005946384605921BF013
:1051580001FF01301ED0DFF888A105ABCDE900932F
:105168004FF480620023514638461BF065FF002843
:1051780040F39080514680B2FFF72EFD0546002887
:10518800EBD08378013B032B09D901464846FFF74A
:105198007FFFE2E74FF4F8714D4B4A4ABAE7FFF751
:1051A80033FF29460DF1120200F0C2F8064688B115
:1051B8002A46BDF812104BF0D9FF044600283BD10F
:1051C8002846FFF72FFD2046FFF72CFD30464BF011
:1051D80045FFC2E728464BF050FF18B92846FFF7AD
:1051E80063FFBAE70390FFF737FE8046039B184634
:1051F8004BF034FFB8F1000F2AD0D8F8103093B92B
:10520800D8F8143023B3294648469847044668B965
:105218002846FFF707FD2046FFF704FD20464BF020
:105228001DFF002499E728469847EFE7D8F818307B
:1052380013B129464846984720464BF01AFFB0F567
:10524800806F804621460BD92846FFF733FFB7E722
:1052580084212846FFF7D4FC04460028ECD1D7E780
:1052680050464BF008FF002804DA21462846FFF78D
:1052780027FFA5E7059B4246CDE900935146002349
:1052880038461BF095FE01309AD121462846FFF793
:105298001DFF95E701307FF460AF4BF026FA002838
:1052A8007FF45BAF384655F021FC2846FFF7BAFC7F
:1052B8002046FFF7B7FC30464BF0D0FE19E700BF99
:1052C800D1FA060886FB06080CF90608FA640708EE
:1052D800EDFA060838280020182800204428002065
:1052E800B47F0020012808D0022814BF022301231C
:1052F8002820034A00FB032070470023F8E700BF7B
:105308004CFC060838B50D4609682C23074A0131BC
:10531800044612F07BFF031E06DB2A689A4203D379
:10532800D21AE0182A6038BD0020FCE70C270808CC
:105338002DE9F04F91B007460C460592002118223E
:105348000AA865F0C8F9002F4CD0002C4AD0638910
:10535800013B9BB27F2B45D8A378012B42D1204635
:105368004BF08BFE029000283CD08022A74965F0C4
:10537800C7F9E3698146002B39D05D6C1DB19D8961
:10538800003D18BF01253E46D6F8008040464BF048
:105398009FFE834668B1DDF83CA0BAF1000F29D121
:1053A8000C204BF04FFE20B1C0E9008B0F90C0F8E5
:1053B80008A0F669002EE7D1B9F1000F40F0EB80A4
:1053C800002D00F0DF80E3699889013080B24BF04E
:1053D80039FE054660BB0F98002840F08E80029881
:1053E8004BF03CFE0026304611B0BDE8F08F1D465C
:1053F800C9E79A46DAF804309B4510D0DAF8083045
:10540800002BF6D10C2003934BF01CFE0028D0D0C3
:10541800039BC0E9008B8360CAF80800C9E75A46B5
:105428004146DAF8000065F02CF90028E6D1C0E71B
:10543800E369B1469A89596C65F0B6F9E369802148
:105448009B892846EE544CF043F8714C8046A3469D
:10545800E169002958D0284665F083F90A900028A8
:1054680052D0282303FB09B31C6A0D930444A542B8
:1054780048D8A844444528BF0024802120460A94DF
:105488004CF026F80B90002846D101244FF0000874
:105498000220FFF727FF03900320FFF723FFDDF823
:1054A8003CA08146002840F0B7800027059BB8B291
:1054B80018809CB90746013080B24BF0C3FD0997AC
:1054C800064658B1B8F1000F40F0218180460E9C85
:1054D800DFF840B1002C40F01E81F455BAF1000FFE
:1054E80040F03A810E98002840F03D8128464BF064
:1054F800B5FD02984BF0B2FD75E784684BF0AEFD40
:10550800204669E70024B8E709F10109B9F1030F5A
:1055180004F128049CD1B8E7002CB6D0B94699F814
:105528000C302BB10D9B1B78022B09D0032B26D0F6
:10553800D9F81C90B9F1000FF1D14C46C84611E0DA
:10554800D9F804000028F3D080220A9965F0D8F829
:1055580080460028ECD148460AA94BF0D1FD012825
:105568000446E5D10E9B002B92D1012C90D03846F1
:105578000AA94BF0EAFD4FF00108044688E7D9F87C
:105588000800DFE738460AA94BF0DFFD3546044638
:105598004FF00108E6E7802102984BF099FF044696
:1055A8000F9DB5B1D5F804904C452DD14A462968D0
:1055B800029865F066F838BBB846D8F800004BF09A
:1055C80087FD98F80C3053B9D8F81C80B8F1000F53
:1055D800F3D10E9C0025B4FA84F4640956E781459A
:1055E800F2D16A68D8F80010286865F04AF882464F
:1055F8000028E9D140460AA94BF082FD012804465B
:10560800E2D15546D046ADE7AD68CAE70CFC0608BE
:105618004CFC060829FC0608039B002B3FF445AF09
:105628000120FFF75FFE00283FF43FAFB8F1000FFD
:1056380015D14746DDF838B0BBF1000F12D1002F65
:105648003FF433AF013F31E7036A4269134404333F
:105658003B444F6889681F440029F5D1EAE7514661
:105668000027F9E78021DBF800004BF031FF039BAE
:1056780080211A6A0490DBF8040007924BF028FF97
:10568800D9F82010079A049B0A4409320690174457
:10569800DBF8080080211F444BF01AFF069BDBF85B
:1056A8001CB03B441F18C7E7D9F80400013080B28A
:1056B8004BF0C8FC044650B9002009A9FFF722FEA8
:1056C8008046D9F80890B9F1000FEDD1FFE6D9E985
:1056D800001265F069F8D9F80420039BDDF824B0BE
:1056E800A3540BF10101224A2346404612F08EFDD5
:1056F800049020464BF0B2FC049A002ADCDB934568
:10570800DAD308EB0200ABEB02020992D5E7D146E7
:1057180080460394D7E7A368DDF824900193636873
:105728005A4600934046236809F1010112F06EFDC4
:1057380000280EDB81450CD38044A9EB00000990BA
:10574800E36923B1404609A9FFF7DCFD8046E46917
:10575800C0E64FF00008F3E7DAF8084050464BF08F
:105768007DFCA246BAE6C4694BF078FC2046BAE64E
:105778001EFC060808B5074B4FF0FF31186867F0A4
:1057880073F830B140F29911034B044A04484AF0C7
:1057980077F808BDF42F00202FFD06080EFE060836
:1057A800C4FC060808B5064B186867F091F830B1D4
:1057B80040F29F11034B044A04484AF061F808BDBF
:1057C800F42F00206FFD0608EDFD0608C4FC06084E
:1057D80038B50B4803F058FF0A4B186028B9F82170
:1057E800094B0A4A0A484AF04BF80024094D28197F
:1057F8000121183400F01CF9B4F5F07FF7D138BD59
:105808005CFE0608F42F0020A0FD06082DFE060801
:10581800C4FC060804B40020F8B506460D46D9B104
:1058280065F0F8FA0228044601D1FFF7A3FF002328
:1058380018200A4A00FB03F18F18515CB14204D1C9
:10584800BD60022C05D00020F8BD0133142BF1D126
:10585800F7E7FFF7A7FFF6E70120F5E7F8B3002021
:105868002DE9F041837805467F33DBB2152B09D942
:10587800FFF780FFA978124812F0A0FCBDE8F041BC
:10588800FFF790BF0F4AD456FFF774FF631CF1D09F
:1058980018270D4E284607FB0468D8F804309847A7
:1058A800D8F808300BB1284698477C4333191B6950
:1058B800002BE3D00C3430194BF0A8FDDEE700BF15
:1058C800C1FD0608D7FD0608F8B300202DE9F84FFA
:1058D80000230F46064601464FF001094FF0FF0826
:1058E80031F8022B62BB5A1C082A22D1D01A48452B
:1058F80001D981469846531C072BF1D93C4600250F
:105908004FF03A0A18494FEA490BA8451AD1B8F19D
:10591800000F03D1204600F801AB04464D44072D83
:1059280004F801AB5E44F0D900232370E01BBDE806
:10593800F88F31F8024B501C002CD7D10246D3E720
:105948001A46D8E73288204652BA92B212F04AFC78
:105958000135082D0444E7D0A845034906F102069D
:1059680004F801ABEED1D9E7632B08087FB5002313
:1059780080290E461546CDE90033CDE9023312D809
:105988000A46014668464BF06CFC29466846FFF714
:105998009DFF2C1832462046044912F023FC20446F
:1059A800401B04B070BD1846FBE700BF6CFE06083C
:1059B80038B5054660B128204EF016FB044638B1CC
:1059C80001462846FFF782FF18B920464BF00AFD2A
:1059D800014C204638BD00BF70FE0608014601484C
:1059E8004BF0F3BCC0FF06080138C0B203289ABFC9
:1059F800024B53F820000020704700BF88FE0608BD
:105A080030B585B0044620204EF0EEFA054650B178
:105A1800237B20210293E37A044A0193A37A00931B
:105A2800238912F0F3FB284605B030BD73FE060843
:105A380010B5044650B10023C0E90131044803F011
:105A4800E9FD2060B0FA80F0400910BD0120FCE7B4
:105A5800B0FF060808B503484DF0E0FFBDE8084070
:105A68004AF0DABD400A070801484DF0D7BF00BF29
:105A7800400A070807B508204BF045FD02238DF8BA
:105A88000030054B684601934BF0C9FC082003B071
:105A98005DF804EB4BF042BD00D430100348044AD3
:105AA8000449121A92104BF006BD00BF7C01000891
:105AB800280300089CB1002008B500F02FF8FFF774
:105AC800EDFF124B12498B4212D30020114B1249A1
